:020000040800F2
:10000000D8090020010100083B330008C52400087E
:10001000393300085D0B0008ED39000800000000CE
:100020000000000000000000000000008134000813
:100030005F0B0008000000005D33000883340008F7
:100040001B0100081B0100081B0100081B01000820
:100050001B0100081B0100081B0100081B01000810
:100060001B0100081B0100081B0100081B01000800
:100070001B0100081B0100081B0100081B010008F0
:100080001B0100081B0100081B0100081B010008E0
:100090001B0100081B0100081B0100081B010008D0
:1000A0001B0100081B0100081B0100081B010008C0
:1000B000613500081B0100081B0100081B01000836
:1000C0001B0100081B0100081B010008AD330008DC
:1000D0001B010008E13900081B0100081B01000892
:1000E0001B0100081B0100081B010008DFF80CD0F1
:1000F00000F0F0FB0048004731480008D809002014
:100100000648804706480047FEE7FEE7FEE7FEE7B1
:10011000FEE7FEE7FEE7FEE7FEE7FEE7193500082B
:10012000ED0000082DE9F0410024061B254671F181
:10013000000605DA01240027D0EB070067EB010178
:10014000161E73F1000605DA0027D2EB070201251F
:1001500067EB030300F0B3F986460E4617469C464C
:10016000AC4204D00025D0EB050E65EB010624B1AE
:100170000020D2EB000760EB030C704631463A4694
:100180006346BDE8F081202A04DB203A21FA02F020
:100190000021704721FA02F3D040C2F120029140C1
:1001A000084319467047D2B201E000F8012B491EFE
:1001B000FBD270470022F6E710B513460A46044604
:1001C0001946FFF7F0FF204610BDF0B480EA0102A7
:1001D000D40F4200B2EB410F02D20246084611464C
:1001E0004A0042D0C30DDDB2C1F3C752AD1A202D73
:1001F00035DAC1F3160141F4000204B15242C5F1EF
:10020000200602FA06F12A411044B3EBD05F23D056
:10021000C4B1012DA0EBC35009DCF0BC4FF000428B
:1002200002EAC352DBB200F5000000F082B94000E0
:1002300000F1807000EBC350A0F1807040EAD170F3
:10024000490009E0490841EAC071A0EBC35000F53C
:100250000000400800EBC350F0BC00F061B96142FF
:10026000012202EB4101001BF6E7F0BC704781F070
:100270000041AAE780F00040A7E780EA010210B53C
:1002800002F00043400022D04A001FD0010E01EBD3
:100290001261C0F35600C2F3560240F4000042F46B
:1002A0000002A0FB022000047F39140400D0401C8F
:1002B00050EA124001D44000491EC2B20C0604EBC1
:1002C000D010401C4008802A02D003E0002010BD5E
:1002D00020F00100002900DA0020184310BD420080
:1002E00005D0C0F3C7525242914201DC0020704752
:1002F00000EBC15070472DE9FE4F81EA030404F082
:10030000004421F0004100944FF0000B23F0004323
:1003100050EA01045ED052EA03045BD0C3F30A54EE
:10032000C1F30A552C44A4F2F3340194A0FB025407
:10033000C1F3130141F48011C3F3130343F4801399
:1003400001FB024400FB034E840A970A44EA8154ED
:1003500047EA8357A4FB076802958D0A05FB0785CA
:100360004FEA932C04FB0C542705029D4FEA0658D4
:1003700047EA1637B5EB08056EEB070C870E920EB1
:1003800047EA811742EA8312A7FB0201B6EB0B0191
:1003900064EB00042B0D43EA0C335E1844EB1C5055
:1003A000DA465146E7FB0201C5F313044FEA0B336B
:1003B00043EA14534FEA0432019C43EA0603A4F1D2
:1003C0000C040294009CCDE900B400F0EFF803B0F7
:1003D000BDE8F08F00200146F9E7C10F80EAE07028
:1003E0000844CA079623002100F0A3B80EB540F2D6
:1003F000334102910021CDE900110A460B4600F07D
:10040000D5F803B000BD00F0004220F00040C10D5F
:10041000C0F3160040F400007F2901DA0020704785
:10042000962903DCC1F19601C84001E09639884065
:10043000002AF4D04042704720F00040C10DC0F3C4
:10044000160040F400007F2901DA00207047962949
:1004500003DCC1F19601C840704796398840704767
:10046000C1F30A5210B5C1F3130140F2FF3341F456
:1004700080119A4201DA002010BD40F233439A42C3
:10048000A2F2334203DC5242FFF77DFE10BD9040E2
:1004900010BD30B50B46014600202022012409E0A2
:1004A00021FA02F59D4205D303FA02F5491B04FA2D
:1004B00002F52844151EA2F10102F1DC30BD2DE940
:1004C000F05F0546002092469B46884606468146D8
:1004D00040241BE02846414647462246FFF753FE8C
:1004E00053465A46C01A914110D311461846224627
:1004F00000F002FA2D1A67EB01084F462246012050
:10050000002100F0F9F917EB00094E41201EA4F17B
:100510000104DFDC484631462A464346BDE8F09FE9
:100520000029A8BF7047401C490008BF20F0010007
:10053000704710B4B0FA80FC00FA0CF050EA0104E5
:1005400004BF10BC704749B1CCF1200421FA04F477
:1005500011FA0CF118BF012121430843A3EB0C0150
:10056000CB1D4FEA00614FEA102042BF002010BCB3
:10057000704700EBC35010440029A4BF10BC704763
:10058000401C490008BF20F0010010BC704710B5A6
:10059000141E73F1000408DA401C41F100019218A6
:1005A0005B411A4301D120F0010010BD2DE9F04D4F
:1005B00092469B4611B1B1FA81F202E0B0FA80F2A4
:1005C0002032904600F098F904460F4640EA0A00AF
:1005D00041EA0B0153465A46084313D0114653EAE9
:1005E000010019D0C8F140025046FFF7CCFD054686
:1005F0000E4650465946424600F07EF9084305D063
:10060000012004E020463946BDE8F08D0020054376
:1006100046EAE0762C4337430A986305E40AA0EBE8
:1006200008000022FD0A44EA47540A3002D500209F
:100630000146E9E7010510196941DDE9084500199E
:100640006941BDE8F04DA2E72DE9FE4F804681EA01
:100650000300C00F0C46009021F0004123F000453C
:10066000B8EB0200A94105D24046214690461C46FF
:100670000B46024623F00040104347D0270DC7F336
:100680000A00C3F30A510290401A019040286BDA25
:10069000C3F3130040F4801B0098924620B100235E
:1006A000D2EB030A63EB0B0B01985946C0F14002F1
:1006B000504600F021F906460D4650465946019A2B
:1006C00000F029F910EB08006141002487EA11527B
:1006D00084EAE7731A4340D0009A62B3019A012A70
:1006E0004FEA075215DC001B61EB02014FF000429C
:1006F00002EA0752CDE90042001C41F58011324662
:100700002B46FFF753FF03B0BDE8F08F404621466C
:10071000F9E7001B61EB0201001C41F58013001892
:100720005B412018A2F5001747EB030140EAD570A2
:10073000B6196D4111E06D084FEA360645EAC075FD
:100740004FEA0752001B61EB0201001C41F58011CA
:1007500049084FEA30000019514132462B4603B098
:10076000BDE8F04FFFF713BF0098012240000023BF
:10077000D0EB020263EBE073009821464FEAE0748D
:10078000B8EB000061EB0401E9E783F000435BE7AD
:1007900081F0004158E72DE9F04D81EA030404F0AF
:1007A000004B21F0004514464FF0000A23F00041B1
:1007B00050EA050220D054EA01021DD0C5F30A57C1
:1007C0000246C5F31303C1F31300C1F30A5640F404
:1007D000801543F48013A7EB0608101BD64608F2D9
:1007E000FD3873EB050002D308F1010801E092180F
:1007F0005B41B8F1000F03DA00200146BDE8F08D3F
:1008000000204FF48011064684460EE0171B73EB60
:10081000050705D3121B63EB050306434CEA010CE5
:1008200049084FEA300092185B4150EA0107EDD1C8
:1008300052EA030012D082EA040083EA0501084369
:1008400005D0101BAB4106D20122002306E0002296
:100850004FF0004302E06FF0010253101AEB060064
:100860004CEB085110EB0A0041EB0B01BDE8F04DD9
:10087000FFF78DBEC1F30A52C1F3130140F2FF33FB
:1008800041F480119A4202DA00200146704740F29A
:1008900033439A42A2F2334202DC5242FFF773BC66
:1008A00000F02AB830B5041E71F1000404DB4FF0EB
:1008B0000044404264EB0101141E73F1000405DBA7
:1008C0001C464FF00043524263EB0403994208BFB9
:1008D000904230BD064C074D06E0E06840F0010351
:1008E00094E8070098471034AC42F6D3FFF702FCB7
:1008F000D8610008F8610008202A04DB203A00FAD9
:1009000002F1002070479140C2F1200320FA03F366
:10091000194390407047202A06DBCB17203A41FA52
:1009200002F043EAE07306E041FA02F3D040C2F17C
:100930002002914008431946704700002DE9F14F0D
:1009400082B0DFF8D0A174480190DFF8D0B1744ACA
:10095000DBF83000C117841841F1FF35A4FB041007
:1009600005FB040004FB0502BBF91600A1FB0067B0
:10097000C31702FB007001FB0307BBF91400A4FBC3
:1009800000C8C31705FB008004FB030040044FEAC6
:100990004C4340EADC309E194741BBF912004FF04E
:1009A000000818EB060647EBC007BBF91030A1FBA7
:1009B000030902FB03924FEAE37C01FB0C214FF495
:1009C00080724FF00003FFF7ADFBBBF90E20A4FBD4
:1009D00002394FEAE27C05FB029204FB0C2212036F
:1009E00042EA13521B03C41841EB0205241CBBF856
:1009F0000C1045F50042A4FB010302FB013104FB8E
:100A0000081100220223FFF78DFB04460D4654EA2D
:100A100005007DD00298C0F58010C117CB0743EACE
:100A20005003C007811B63EB070340F63542A1FB6F
:100A3000020703FB0272002601FB062122462B4619
:100A4000FFF770FB804689464FF400520023404672
:100A50004946FFF767FBBBF91C200C46A0FB023799
:100A600001FB0271D61700FB061621460246A3FBC6
:100A7000020406FB024203FB01214FF00072002337
:100A8000FFF750FB04460D46BBF91A10A1FB080303
:100A9000CA1702FB083201FB09214FF40022002390
:100AA000FFF740FB06460F4618EB040049EB050133
:100AB000801979414FF480720023FFF733FBBBF9B3
:100AC0001820D3171B0143EA1273120110EB02081E
:100AD00041EB03090222002340464946FFF722FB6F
:100AE00064220346A3FB020501FB0251002403FB21
:100AF000041180222346FFF715FB504503D25046D0
:100B0000BDE8FE8F04E001998842F9D90198F7E722
:100B10005046F5E7C0C62D00C0D8A700340000201D
:100B2000000CFEFF10B50C4AC310D188B2F9084082
:100B3000A3EB41036343DB12C1EB20104043B2F946
:100B40000A100013484380131844106300EB800020
:100B50008030001210BD000034000020FEE7704716
:100B600010B5002490F82110022903D004218163DC
:100B700001243DE001680A6822F00E020A60016863
:100B80000A6822F001020A601A4A0168914201D102
:100B9000012121E0174A1432914201D110211BE0BA
:100BA000144A2832914201D1891515E0114A3C328C
:100BB000914201D189140FE00E4A5032914202D184
:100BC0004FF4803108E00B4A6432914202D14FF475
:100BD000801101E04FF08071064A083A516001210E
:100BE00080F82110002180F82010416B01B1884766
:100BF000204610BD0800024070B5044600F012F90E
:100C00000546601C02D004480078044400F00AF94C
:100C1000401BA042FAD370BDAC0000202DE9F84F74
:100C200000230024DFF8C0914FF00F0809F1040AF7
:100C30000AF1040B0BF1040E0127A7400A683A40A1
:100C4000BA4275D1DFF8A4C14D68A5EB0C06654525
:100C50002BD00DDC032D34D005DC35B3012D19D09C
:100C6000022D2FD11BE0112D16D0122D2AD119E003
:100C7000B6F5881F19D006DCB6F5803F15D0B6F55D
:100C8000801F1FD111E0B6F5001F0ED0B6F5041F6E
:100C900018D10AE0CB6815E0CB681B1D12E0CB68C9
:100CA00008330FE0CB680C330CE08B6823B1012BC9
:100CB00004D00823476105E0042303E0082307610B
:100CC00000E00023FF2A01D8054601E000F10405F9
:100CD00002D84FEA840603E0A4F108064FEA86062C
:100CE0002F6808FA06FC27EA0C0703FA06F647EA1B
:100CF00006072F604D68ED0070D53D4DAE6946F09A
:100D00000106AE61AD6905F001050095394D24F08D
:100D100003067719BE68A5072D0F08FA05FC26EA19
:100D20000C06DFF8D4C0604503D14FF0000C17E08B
:100D300054E0DFF8C8C0604502D14FF0010C0FE06D
:100D4000DFF8BCC0604502D14FF0020C08E0DFF8CC
:100D5000B4C0604502D14FF0030C01E04FF0040C29
:100D60000CFA05FC4CEA060CC7F808C04D68ED0308
:100D700005D5D9F800501543C9F8005004E0D9F85A
:100D800000509543C9F800504D68AD0305D5DAF819
:100D900000501543CAF8005004E0DAF800509543BB
:100DA000CAF800504D68ED0205D5DBF80050154338
:100DB000CBF8005004E0DBF800509543CBF800502E
:100DC0004D68AD0205D5DEF800501543CEF8005051
:100DD00004E0DEF800509543CEF80050641C102C5F
:100DE000FFF42AAFBDE8F88F0004014000001110A5
:100DF000001002400000014000080140000C0140CA
:100E000000100140001401408068084201D0012018
:100E1000704700207047002A01D001617047090423
:100E2000016170470148806870470000AC000020F5
:100E300070B50446002C04D094F83D00002510B194
:100E400006E0012070BD84F83C50204600F0A6FA70
:100E5000242084F83D002068016821F00101016030
:100E600000F038FC424A6168914203D84149884207
:100E700003D304E04049884201D2012070BD3F49BC
:100E8000B0FBF1F1236859606368934201D8491CB3
:100E900007E04FF4967359434FF47A73B1FBF3F1C3
:100EA000491C236819626168914210D84900401EAC
:100EB000B0FBF1F2521CC2F30B02042A01D204204F
:100EC00022E0B0FBF1F0401CC0F30B001CE0A26874
:100ED000CAB301EBC10303EB0116431EB3FBF6F3E8
:100EE0005B1C43F480431B0536D06AB301EBC1029F
:100EF00002EB0111401EB0FBF1F0401CC0F30B00EF
:100F000040F4804040F400402168C861D4E9070102
:100F1000084321680860D4E9031008432168886009
:100F2000D4E9050108432168C8602068016841F0E0
:100F3000010101602564202084F83D00256384F8C8
:100F40003E50002070BD00E008E001EB4106431E6A
:100F5000B3FBF6F35B1CC6E70120D5E701EB4101CB
:100F6000401EB0FBF1F0401CC0F30B00CAE70000CC
:100F7000A086010080841E0000093D0040420F0051
:100F80002DE9FF4F83B00446DDE911988A46934668
:100F9000109FFFF747FF054694F83D00202803D037
:100FA000022007B0BDE8F08F19230122A049204696
:100FB000009501F0C9FB08B10220F2E794F83C006B
:100FC000012807D0012084F83C0020680168C90787
:100FD00002D005E00220E4E7016841F00101016070
:100FE0002068016821F400610160222084F83D003E
:100FF000402084F83E00002626646762A4F82A9008
:101000008C48E062608D2085CDE900855A465146C6
:101010002046069B01F06CFA50B1206C042803D0E6
:1010200084F83C600320BCE784F83C600120B8E70A
:10103000208D70B1012815D0022823D020680168C6
:1010400041F48061016020684169806902907A4FB3
:10105000E3E02068416981690291016841F400710F
:101060000160F4E72068016821F48061016072B6D4
:101070002068416981690291016841F40071016051
:1010800062B6E4E72068016841F40061016072B66D
:101090002068416981690291016821F480610160E1
:1010A00062B6D4E703286FD801280BD0022823D0DA
:1010B0004346002239462046009501F045FBE8B33F
:1010C00003206EE72A464146204601F0C1FB30B1BD
:1010D000206C202801D0012063E7032061E720680D
:1010E0000169606A421C62620170208D401E208589
:1010F000608D401E608590E04346002239462046C0
:10110000009501F021FB08B103204AE772B6206880
:10111000016841F40071016020680169606A421C45
:1011200062620170208D401E2085608D401E6085AA
:1011300062B620680169606A421C00E008E06262F1
:101140000170208D401E2085608D401E608564E00A
:101150002068016821F48061016072B6206801692D
:10116000606A421C62620170208D401E2085608D85
:10117000401E60854346002239462046009501F016
:10118000E3FA10B103200CE71EE02068016841F487
:101190000071016020680169606A421C626201702E
:1011A000208D401E2085608D401E608562B62068BF
:1011B0000169606A421C62620170208D401E2085B8
:1011C000608D401E608528E02A464146204601F099
:1011D0003FFB30B1206C202801D00120E1E6032044
:1011E000DFE620680169606A421C62620170208D3E
:1011F000401E2085608D401E608520684169C9437E
:1012000049070AD40169606A421C62620170208D3C
:10121000401E2085608D401E6085208D00287FF453
:1012200041AF20203C346070A67026700020B8E6E4
:10123000020010000000FFFF040001002DE9FF4F35
:1012400083B00446DDE910898A469346129FFFF772
:10125000E9FD054694F83D00202803D0022007B0A0
:10126000BDE8F08F192301224A492046009501F07C
:101270006BFA08B10220F2E794F83C00012807D08D
:10128000012084F83C0020680168C90702D005E00D
:101290000220E4E7016841F0010101602068016873
:1012A00021F400610160212084F83D00402084F891
:1012B0003E0000262664C4F82480A4F82A9036480C
:1012C000E062608D2085CDE900755A465146204682
:1012D000069B01F0AFF9D0B3206C042803D084F84A
:1012E0003C600320BBE784F83C600120B7E72A4656
:1012F0003946204601F0DDFA58B1206C042801D0AF
:101300000320ACE72068016841F40071016001200E
:10131000A5E7606A411C6162216800780861208D40
:10132000401E80B22085618D491E61852368596900
:10133000C94349070BD450B1606A411C616200780F
:101340001861208D401E2085608D401E6085208D97
:101350000028CCD12A463946204601F0CFF958B1B1
:10136000206C042801D0032079E72068016841F44B
:1013700000710160012072E71F3454F81F0C0168EE
:1013800041F4007101602020A077E67766770020A5
:1013900065E70000020010000000FFFF00B585B007
:1013A00000680C49884212D1C0200190122002909E
:1013B0000320049001A90848FFF730FC0748C169E1
:1013C00041F40011C161C06900F40010009005B043
:1013D00000BD000000540040000C0140001002401D
:1013E000024881680278114481607047AC00002097
:1013F00010B50748016841F010010160032000F0BA
:101400009FF8002000F006F800F026F8002010BD3C
:101410000020024070B504460D4D4FF47A712878D3
:10142000B1FBF0F00B490968B1FBF0F000F029FDC9
:1014300008B1012070BD102C07D200222146501E99
:1014400000F05EF86C60002070BD012070BD0000EF
:10145000AC000020B800002008B52148816941F0A7
:1014600001018161816901F001010091C16941F0CF
:101470008051C161C06900F080500090032000F0ED
:101480005FF8002211466FF00B0000F039F80022DF
:1014900011466FF00A0000F033F8002211466FF099
:1014A000090000F02DF800221146501F00F028F826
:1014B00000221146101F00F023F800221146901E52
:1014C00000F01EF800221146501E00F019F80549E0
:1014D000486820F0E06040F00070486008BD0000FF
:1014E000001002400000014000F01F020121914065
:1014F0004009800000F1E020C0F8001170470000B2
:10150000F0B40D460D4B1B68C3F30223C3F107046F
:10151000042C00D90424191D072901D2002300E05E
:10152000DB1E012606FA04F1491E294099409E401F
:10153000761E16403143F0BC01F000BF0CED00E018
:1015400000F00701054A10684FF6FF03184040EA13
:101550000120034908431060704700000CED00E0D3
:101560000000FA052DE9F04704460E46DFF84881F1
:10157000D8F8000000F00700B0420FD2D8F8000001
:1015800020F007003043C8F80000D8F8000000F051
:101590000700B04202D00120BDE8F0872078474F15
:1015A000800705D57868A16820F0F00008437860CE
:1015B0002078C00748D06068012806D0022809D0EA
:1015C000396889070BD40120E6E73968890306D416
:1015D0000120E1E73968890101D40120DCE779685D
:1015E00021F0030101437960FFF71CFC05466068A8
:1015F00041F28839012809D0022814D020E0FFF7F1
:1016000011FC401B484501D90320C5E77868C0F3A9
:1016100081000128F3D117E0FFF704FC401B484587
:1016200001D90320B8E77868C0F381000228F3D11C
:101630000AE0FFF7F7FB401B484501D90320ABE761
:10164000786810F00C0FF4D1D8F8000000F0070013
:10165000B0420ED9D8F8000020F007003043C8F897
:101660000000D8F8000000F00700B04201D00120CF
:1016700092E72078400705D57868E16820F4E060BB
:10168000084378602078000706D57868216920F43F
:10169000605040EAC100786000F03CF87968084A80
:1016A000C1F30311515CC840064908600020FFF7F0
:1016B000B1FE002070E70000002002400010024050
:1016C000C0610008B80000200148006870470000B1
:1016D000B800002000B5FFF7F7FF04494968044A45
:1016E000C1F30221515CC84000BD0000001002405F
:1016F000D061000800B5FFF7E7FF04494968044AD4
:10170000C1F3C221515CC84000BD0000001002407E
:10171000D061000885B014A090E80E00C068CDE943
:1017200002230191049014A000680090134B5968A3
:10173000134801F00C02042A10D0082A0ED101A887
:10174000C1F38342805CC9030AD55968C1F34041A3
:101750001DF801100A4A5043B0FBF1F005B0704784
:1017600008494843FAE70000020304050607080990
:101770000A0B0C0D0E0F10100102000000100240A9
:1017800000127A0000093D002DE9F84F0446D04DC3
:101790002078C0075BD06868C0F38100012807D0BB
:1017A0006868C0F3810002280AD16868C00307D5C1
:1017B000286880034BD5606878BB0120BDE8F88FAE
:1017C0006068B0F5803F11D0A8B1B0F5A02F1BD054
:1017D000286820F480302860286820F48020286061
:1017E000606830B3FFF71EFB06461EE0286840F431
:1017F00080302860F4E7286820F48030286028686A
:1018000020F480202860EBE7286840F480202860DE
:10181000286840F480302860E2E718E0FFF702FB18
:10182000801B642801D90320C8E728688003F5D508
:101830000DE0FFF7F7FA064606E0FFF7F3FA801B24
:10184000642801D90320B9E728688003F5D42078FB
:10185000DFF8808280074FF0010A4FF0000945D57C
:10186000686810F00C0F07D06868C0F38100022888
:1018700012D16868C0030FD42868800704D5206996
:10188000012801D0012099E72868616920F0F8005B
:1018900040EAC100286029E02069B8B1C8F800A07A
:1018A000FFF7C0FA064606E0FFF7BCFA801B0228E5
:1018B00001D9032082E728688007F5D52868616987
:1018C00020F0F80040EAC10028600FE0C8F800905E
:1018D000FFF7A8FA064606E0FFF7A4FA801B0228E5
:1018E00001D903206AE728688007F5D4207800072B
:1018F00026D57948A16999B1C0F800A0FFF792FAFE
:10190000064606E0FFF78EFA801B022801D9032065
:1019100054E7686A8007F5D5012001F021FD0FE04A
:10192000C0F80090FFF77EFA064606E0FFF77AFA65
:10193000801B022801D9032040E7686A8007F5D49C
:101940002078400773D50026E869C00008D4E8690C
:1019500040F08050E861E86900F080500090012676
:10196000DFF878B1DBF80000C00514D4DBF8000024
:1019700040F48070CBF80000FFF754FA074606E009
:10198000FFF750FAC01B642801D9032016E7DBF8E3
:101990000000C005F4D5E068012812D0B0B10528D8
:1019A0001DD0286A20F001002862286A20F0040077
:1019B0002862E06841F2883B28B3FFF733FA074614
:1019C0001DE0286A40F001002862F2E7286A20F052
:1019D00001002862286A20F004002862E9E7286AEA
:1019E00040F004002862286A40F001002862E0E725
:1019F000FFF718FAC01B584501D90320DEE6286A14
:101A00008007F5D50DE0FFF70DFA074606E0FFF772
:101A100009FAC01B584501D90320CFE6286A800780
:101A2000F5D4012E03D1E86920F08050E861E06927
:101A3000A0B36968C1F38101022947D0022805D00B
:101A4000C8F86090FFF7EEF904463AE0C8F86090F5
:101A5000FFF7E8F9064606E0FFF7E4F9801B0228E5
:101A600001D90320AAE628688001F5D4206AB0F5E0
:101A7000803F05D16868A16820F4003008436860A1
:101A8000D4E908010843696821F4741108436860C7
:101A9000C8F860A0FFF7C6F9044607E014E0FFF7B6
:101AA000C1F9001B022801D9032087E628688001BC
:101AB000F5D509E0FFF7B6F9001B022801D903208C
:101AC0007CE628688001F5D4002077E6012075E6E1
:101AD0000010024000004242800442420070004078
:101AE0007047000038B504462068426881684B069C
:101AF00009D4CB0707D0530605D5216C01B0204689
:101B0000BDE8304008478B0707D5130605D5616C43
:101B100001B02046BDE83040084711F0600F43D0C7
:101B2000930641D54B060AD594F85130032B38D093
:101B3000636D43F004036365C3688368009389069B
:101B400009D5616D41F0010161658168009101680D
:101B500021F040010160606D002825D020684168B7
:101B600021F0E0014160012084F8510002F0020000
:101B700002F00101084318D02068416821F00301F8
:101B800041600C4DE06C18B14563E06CFEF7E8FF76
:101B9000A06C002808D04563A06CBDE83840FEF773
:101BA000DFBFC1688068009038BD2046FFF798FF0E
:101BB00038BD0000DD33000870B50446002C05D0A8
:101BC0000025A56294F8510010B104E0012070BD19
:101BD000204600F033F8022084F8510020680168A4
:101BE00021F040010160D4E901010843D4E9031266
:101BF0001143084361690843218B01F400710843D4
:101C0000E1690843216A0843A16A08432168086022
:101C1000A069042101EA1040616A08432168486014
:101C20002168E06A08612068C16921F40061C1612E
:101C30006565012084F85100002070BD30B585B085
:101C40000068244D0024244902220323A84222D103
:101C5000886940F480508861886900F48050009061
:101C6000A0200190029204931C4D01A92846FEF782
:101C7000D5FF402101910294039401A92846FEF763
:101C8000CDFF002211462320FFF73AFC2320FFF767
:101C90002BFC05B030BD124DA842FAD1C86940F402
:101CA0008040C861C86900F4804000904FF4204033
:101CB0000190029204930B4D01A92846FEF7AEFF56
:101CC0004FF4804101910294039401A92846FEF744
:101CD000A5FFDEE70030014000100240000801408F
:101CE00000380040000C01402DE9F84F04460D4635
:101CF00093461E46002794F8500001280DD04FF05F
:101D0000010A84F850A0FFF78DF8804694F851003E
:101D1000B946012804D002279EE00220BDE8F88FD2
:101D2000DDB1BBF1000F18D0032084F85100C4F8D6
:101D300054902563A4F834B0A4F836B0C4F83890B1
:101D4000A4F83C90A4F83E90C4F84490C4F84090A5
:101D5000A068B0F5004F02D006E001277CE02068C3
:101D6000016841F48041016020680168490603D49C
:101D7000016841F040010160E068B0F5006F05D0F6
:101D8000606850B3E08E012827D044E0606810B14D
:101D9000E08E01281DD1216835F8020BC860E08E65
:101DA000401EE08615E020688168890706D535F871
:101DB000021BC160E08E401EE0860AE03EB1701C4E
:101DC00007D0FFF72FF8A0EB0800B04201D303279C
:101DD00042E0E08E0028E6D120E0216815F8010BF2
:101DE0000873E08E401EE08615E020688168890750
:101DF00006D515F8011B0173E08E401EE0860AE04F
:101E00003EB1701C07D0FFF70DF8A0EB0800B04200
:101E100001D3032720E0E08E0028E6D133460122DB
:101E200002212046CDF8008001F0E0FA08B1032736
:101E300012E042463146204601F0BEFA18B10127B1
:101E40002020606508E0A06818B92068C168806833
:101E50000090606D00B1012784F851A084F8509083
:101E600038465BE74FF0E021042804D0086920F0F1
:101E7000040008617047086940F004000861704779
:101E8000704710B5401EB0F1807F01D3012010BD16
:101E90004FF0E02460610F21601701F04FFA00203D
:101EA000A06107202061002010BD10B5FFF7E8FFFA
:101EB00010BD7047704730B590F83C20012A20D003
:101EC000012380F83C30022280F83D2002685468EB
:101ED00024F070045460026854680D682C43546008
:101EE0000268946824F080049460026894684968E9
:101EF0000C43946080F83D30002180F83C100020B5
:101F000030BD022030BD10B50446002C03D094F83B
:101F10003D0010B107E0012010BD002084F83C0016
:101F2000204600F00DF8022084F83D00211D2068B5
:101F300001F046FB012084F83D00002010BD0000A8
:101F400008B50068B0F1804F12D10A48C16941F06C
:101F50000101C161C06900F001000090002211463A
:101F60001C20FFF7CDFABDE808401C20FFF7BCBAE3
:101F700008BD0000001002400168CA6842F001027A
:101F8000CA600068016841F00101016000207047EB
:101F900070B5044694F83C00012817D0012584F858
:101FA0003C50022084F83D002068826822F07702CD
:101FB00022F47F428260086850283AD00DDC202845
:101FC0005FD005DCA0B3102864D155E0022070BDBD
:101FD00030285BD040285DD13FE0602833D07028A6
:101FE0000CD0B0F5805F03D0B0F5005F52D113E0A4
:101FF0002068816821F0070181604BE0CB68D1E95E
:102000000121206801F012FB2068816821F077012E
:1020100041F0770181603DE0CB68D1E90121206882
:1020200001F004FB2068816841F48041816031E067
:102030001DE0CA684968206801F00AFB5021206849
:1020400001F0FEFA26E0CA684968206801F011FB39
:102050006021206801F0F4FA1CE0CA684968206831
:1020600001F0F6FA4021206801F0EAFA12E00021BE
:10207000206801F0E5FA0DE01021206801F0E0FA97
:1020800008E02021206801F0DBFA03E0302120681D
:1020900001F0D6FA3C3465700020207070BD7047A6
:1020A00070B50446206801694FF00005C9438907EF
:1020B00016D4C168C943890712D4E91E0161012001
:1020C000207720688069800703D02046FFF7E7FF6C
:1020D00005E0204600F09BF8204600F099F82577AF
:1020E00020680169C943490718D4C168C943490731
:1020F00014D46FF004010161022020772068806908
:1021000010F4407F03D02046FFF7C9FF05E02046CA
:1021100000F07DF8204600F07BF825772068016903
:10212000C943090717D4C168C943090713D46FF01D
:1021300008010161042020772068C069800703D06E
:102140002046FFF7ACFF05E0204600F060F820468F
:1021500000F05EF8257720680169C943C90618D4E4
:10216000C168C943C90614D46FF010010161082089
:1021700020772068C06910F4407F03D02046FFF725
:102180008EFF05E0204600F042F8204600F040F8BF
:10219000257720680169C943C90708D1C168C943C7
:1021A000C90704D1891E0161204600F032F8206879
:1021B0000169C943090609D4C168C943090605D4A0
:1021C0006FF0800101612046FFF773FE206801690E
:1021D000C943490609D4C168C943490605D46FF00B
:1021E00040010161204600F015F820680169C943EB
:1021F00089060BD4C168C943890607D46FF0200152
:1022000001612046BDE87040FFF754BE70BD7047C5
:10221000704770477047704770B504462268106871
:10222000D168526900F00F03002B08D1850606D54E
:102230008D0604D52046BDE8704001F04FBA002B52
:102240005ED002F0010301F490752B4358D0C30710
:1022500005D0CB0503D5E36B43F00103E3634307EC
:1022600005D5D30703D0E36B43F00203E363830791
:1022700005D5D30703D0E36B43F00403E3630307FF
:1022800005D5D20703D0E26B42F00802E263E26BAD
:10229000002A2AD0800604D5880602D5204601F0FF
:1022A0001DFA20684069C0F38010E16B090700D473
:1022B00000B3204601F0F7F920684169490615D5B9
:1022C000416921F040014161606B58B1154941639A
:1022D000606BFEF745FC002807D0606B416BBDE8E2
:1022E000704008472046FFF796FF70BD2046FFF775
:1022F00092FF70BD2046FFF78EFF0020E06370BDA7
:10230000020606D50A0604D52046BDE8704001F055
:1023100001BB4006F3D54806F1D52046BDE8704024
:1023200001F0CFB99736000870B50446002C04D0F0
:1023300094F83900002510B106E0012070BD84F842
:102340003850204600F022F8242084F83900206814
:10235000C16821F40051C160204601F00DFA2068E7
:10236000016921F4904101612068416921F02A014D
:1023700041612068C16841F40051C160E5632020DB
:1023800084F8390084F83A00002070BD10B586B09A
:1023900000681549884225D11448816941F480417B
:1023A0008161806900F4804001904FF400700290D8
:1023B00002200390032005900D4C02A92046FEF751
:1023C0002DFC2115029100210391049102A92046C0
:1023D000FEF724FC002211462520FFF791F8252066
:1023E000FFF782F806B010BD00380140001002402F
:1023F0000008014070472DE9F84304460D46914618
:102400001E4694F83900202802D00220BDE8F88347
:10241000B5B1B9F1000F13D094F83800012811D0EC
:10242000012084F838000027E763212084F8390070
:10243000FEF7F8FC8046A4F82490A4F826902DE03E
:102440000120E3E70220E1E7E08C401EE084A06881
:10245000B0F5805F09D043460022802120460096D7
:1024600001F08BFAB0B10320D0E74346002280216F
:102470002046009601F081FA08B10320C6E72888BB
:102480002168C0F308004860206908B16D1C05E0B0
:10249000AD1C03E0216815F8010B4860E08C0028B2
:1024A000D2D14346002240212046009601F065FA31
:1024B00008B10320AAE7202038346070277000207C
:1024C000A4E77047FEE701684A69D24352050CD47D
:1024D0006FF480624A6104213030016100210160A3
:1024E00020224273017301207047002070470000D2
:1024F0002DE9F84F0446DDE90AB60F4690461D4621
:102500002068016841F4806101602068016841F43D
:10251000807101604FF001195B4600224946204658
:10252000009600F011F910B10320BDE8F88F216882
:1025300007F0FE000861DFF8F8A033465A4651461E
:10254000204600F03BF930B1206C042801D0032074
:10255000EBE70120E9E72068416980690090324695
:102560005946204600F0A5F958B1206C042801D046
:102570000320DAE72068016841F40071016001205E
:10258000D3E7284608F0FF0501280ED021684FEA5E
:102590001820086132465946204600F08AF970B189
:1025A000206C042804D00320BFE72068056108E000
:1025B0002068016841F4007101600120B5E72068DE
:1025C000056132465946204600F073F958B1206C37
:1025D000042801D00320A8E72068016841F40071B5
:1025E00001600120A1E72068016841F48071016069
:1025F0005B46002249462046009600F0A5F808B147
:10260000032092E72168F8B240F0010008613346E8
:102610005A465146204600F0D1F830B1206C0428CB
:1026200001D0032081E701207FE700207DE7000043
:10263000020001002DE9F8430446DDE908970D4644
:10264000164698462068016841F4807101604B4647
:1026500000224FF001112046009700F075F810B1EC
:102660000320BDE8F883216805F0FE0008613B46C1
:102670004A462149204600F0A1F830B1206C0428D8
:1026800001D00320EDE70120EBE720684169806974
:1026900000903A464946204600F00BF958B1206CAC
:1026A000042801D00320DCE72068016841F40071B0
:1026B00001600120D5E7F5B2B8F1010F0DD0216816
:1026C000300A08613A464946204600F0F2F870B1F7
:1026D000206C042804D00320C3E72068056108E0CB
:1026E0002068016841F4007101600120B9E72068A9
:1026F00005610020B5E700000200010070B5044646
:102700000D46164619E02046FFF7DDFE08B1012010
:1027100070BD681C11D025B1FEF784FB801BA84258
:102720000BD93034206940F0200020610020206067
:10273000202161732073032070BD20684069C0436D
:102740004007E0D4002070BD2DE9F0470546DDF8D4
:1027500020A00F4691461E46C7F3074812E0701CA2
:1027600010D02EB1FEF75EFBA0EB0A00B04209D9F3
:10277000002045F8300F20216973A87328730320C7
:10278000BDE8F087B8F1010F0BD02868806927EA0F
:1027900000000004000C0FD000244C45DFD00020C6
:1027A000EEE72868406927EA00000004000C01D029
:1027B0000024F2E70124F0E70124EEE72DE9F047D9
:1027C00004460E46154698464FF000094FF0200A81
:1027D000C6F3074729E020684069C043400513D489
:1027E0002068016841F40071016021686FF4806025
:1027F000486104202064C4F8309084F83DA084F837
:102800003C900120BDE8F087681C0ED02DB1FEF78A
:1028100009FBA0EB0800A84207D9C4F8309084F85F
:102820003DA084F83C900320ECE7012F08D02068FD
:10283000806926EA00000004000CCCD10020E1E70A
:102840002068406926EA00000004000CF6D0C2E7C8
:102850002DE9F04104460D46164600274FF02008AA
:1028600020E04069C043C0060CD421686FF010001E
:1028700048612764276384F83D8084F83C70012018
:10288000BDE8F08125B1FEF7CDFA801BA84209D939
:10289000206C40F02000206484F83D8084F83C7077
:1028A0000320EDE720684169C9434906D9D40020D7
:1028B000E6E770B504460D46164619E02046FFF7D8
:1028C00002FE08B1012070BD681C11D025B1FEF7D1
:1028D000A9FA801BA8420BD93034206940F02000AF
:1028E000206100202060202161732073032070BDCF
:1028F00020684069C0430006E0D4002070BD00009D
:102900002DE9FE4F9046DDE90C6204460F469B46DA
:10291000202C01D3203CE4B20020224B04EB4401E4
:1029200003EB41010DF104090B5C09F80030401C78
:10293000C0B20628F8D34FF6FF7006EB46010092AE
:1029400000EA410200EAC6034146384600F04EF96B
:1029500000254FF0010A002419F805000AFA04F1D5
:1029600008420DD0012E15D004FB068081B205FB74
:10297000067080B233463246CDF800B000F036F92A
:10298000641CE4B2082CE7D36D1CEDB2062DE2D333
:10299000BDE8FE8F08EB040178195A4600F076F87E
:1029A000EEE70000805F00082DE9F04782460D4603
:1029B0004FF4FA74B4EB450F00D92C460122D10232
:1029C0001F48FEF728FADFF87C904FF48058002269
:1029D00041464846FEF71FFA4FEA1A27204601F003
:1029E0009FFF064600200AF0FF0103E0375432182B
:1029F0005170801CA042F9D36800B0FBF4F7B0FB23
:102A0000F4F104FB110A57B1002506E0A2B20A2333
:102A100031460D48FFF768F96D1CBD42F6D31FFA29
:102A20008AF20A2331460848FFF75EF9012241463F
:102A30004846FEF7F0F93046BDE8F04701F004BD26
:102A400000080140000C0140A8020020F8B5DDF8A4
:102A500018C000240025161A002E00DA01245F1A7F
:102A6000002F00DA01256CB1801A84B210465DB1E6
:102A7000C91A8AB2194613462246CDF800C000F0A2
:102A8000B5F8F8BDB4B2F2E7BAB2F4E72DE9FE4FFB
:102A900005460C461646514841888D427ED2008834
:102AA00084427BD2DFF838814FF400670022394638
:102AB0004046FEF7B0F9DFF82CA14FF48059002210
:102AC00049465046FEF7A7F92A2000F02BFA0122CA
:102AD00039464046FEF79FF9012249465046FEF727
:102AE0009AF9002249465046FEF795F9280A8DF8D2
:102AF00008008DF809506D1C280A8DF80A008DF821
:102B00000B500123042202A93748FFF7EDF80122F8
:102B100049465046FEF77FF9002239464046FEF707
:102B20007AF9002249465046FEF775F92B2000F04D
:102B3000F9F9012239464046FEF76DF9012249466E
:102B40005046FEF768F9002249465046FEF763F901
:102B5000200A8DF804008DF80540641C200A8DF8C9
:102B600006008DF807400123042201A91E48FFF743
:102B7000BBF8012249465046FEF74DF9002239467E
:102B80004046FEF748F9002249465046FEF743F911
:102B90002C2000F0C7F90122394600E01CE0404635
:102BA000FEF739F9012249465046FEF734F9002272
:102BB00049465046FEF72FF9300A8DF800008DF88F
:102BC00001600123022269460748FFF78DF80122C0
:102BD00049465046FEF71FF9BDE8FE8F0000002071
:102BE00000080140000C0140A80200202DE9F0413E
:102BF0001546069E1C46144A5388984221D21388D3
:102C000099421ED2431957885B1EBB4202DB538890
:102C10001B1A9DB20B1917885B1EBB4202DB128880
:102C2000521A94B20A19521E93B24219521E92B20B
:102C300000F082F904FB05F13046BDE8F041FFF7F2
:102C4000B3BEBDE8F0810000000000202DE9FC4784
:102C50000446DDE90A680D4691469A4606EB4607AA
:102C60000AE0CDE90068641C53464A462946FFF74E
:102C700047FE05EB4700C5B220780028F1D1BDE83A
:102C8000FC870000012211020148FEF7C4B80000D1
:102C90000008014070B50546074C23886288002172
:102CA000084600F049F96188208841432846BDE87C
:102CB0007040FFF779BE00000000002010B5FFF75C
:102CC000E1FF00F027F900F005F9012000F08EF98E
:102CD0004FF47A70FDF790FFCB2000F087F9392090
:102CE00000F0A2F92C2000F09FF9002000F09CF9E0
:102CF000342000F099F9022000F096F9CF2000F07E
:102D000075F9002000F090F9C12000F08DF9302015
:102D100000F08AF9E82000F069F9852000F084F9D4
:102D2000002000F081F9782000F07EF9EA2000F020
:102D30005DF9002000F078F9002000F075F9ED2031
:102D400000F054F9642000F06FF9032000F06CF9F2
:102D5000122000F069F9812000F066F9F72000F0F8
:102D600045F9202000F060F9C02000F03FF9232051
:102D700000F05AF9C12000F039F9102000F054F9A0
:102D8000C52000F033F93E2000F04EF9282000F075
:102D90004BF9C72000F02AF9862000F045F93620CB
:102DA00000F024F9482000F03FF93A2000F01EF925
:102DB000552000F039F9B12000F018F9002000F09A
:102DC00033F9182000F030F9B62000F00FF9082090
:102DD00000F02AF9822000F027F9272000F024F9DA
:102DE000F22000F003F9002000F01EF9262000F088
:102DF000FDF8012000F018F9E02000F0F7F80F20AE
:102E000000F012F9312000F00FF92B2000F00CF93E
:102E10000C2000F009F90E2000F006F9082000F05F
:102E200003F94E2000F000F9F12000F0FDF8372002
:102E300000F0FAF8072000F0F7F8102000F0F4F89E
:102E4000032000F0F1F80E2000F0EEF8092000F069
:102E5000EBF8002000F0E8F8E12000F0C7F80020CF
:102E600000F0E2F80E2000F0DFF8142000F0DCF8AB
:102E7000032000F0D9F8112000F0D6F8072000F068
:102E8000D3F8312000F0D0F8C12000F0CDF8482070
:102E900000F0CAF8082000F0C7F80F2000F0C4F8CE
:102EA0000C2000F0C1F8312000F0BEF8362000F010
:102EB000BBF80F2000F0B8F8112000F097F8782048
:102EC000FDF79AFE292000F091F8BDE8104000209F
:102ED00000F05CB870B50D4D4FF4807400222146AF
:102EE0002846FDF798FFC820FDF786FE0022210145
:102EF0000748FDF790FFC820FDF77EFE21462846D3
:102F0000BDE870400122FDF786BF000000080140C7
:102F1000000C014000224FF480510148FDF77BBFB7
:102F2000000C014001B501231A4669460148FEF72D
:102F3000DBFE08BDA80200202DE9F04104460D4645
:102F400016461F462A2000F051F8200A00F06CF8BF
:102F5000E0B200F069F8300A00F066F8F0B200F074
:102F600063F82B2000F042F8280A00F05DF8E8B280
:102F700000F05AF8380A00F057F8F8B200F054F8A8
:102F8000BDE8F0412C2000F031B8000070B50446D7
:102F9000362000F02BF80120FDF72EFE2000124C09
:102FA0004FF0F0054FF4A0760BD001280FD0022887
:102FB00013D0032804D1E82000F036F8668025807D
:102FC00070BD482000F030F86580268070BD282054
:102FD00000F02AF86680258070BD882000F024F873
:102FE0006580268070BD00000000002070B5064698
:102FF0000B4D4FF48054002221462846FDF70BFF6D
:10300000002261100748FDF706FF3046FFF78AFFF0
:1030100021462846BDE870400122FDF7FCBE0000B5
:10302000000C01400008014070B506460122D102A3
:103030000A48FDF7F0FE0A4D4FF480540022214665
:103040002846FDF7E8FE3046FFF76CFF214628468C
:10305000BDE870400122FDF7DEBE0000000801401F
:10306000000C01402DE9F04F85B03D48816941F0E9
:1030700010018161816901F010010091816941F0C5
:1030800020018161816901F020010091816941F095
:1030900004018161816901F004010091816941F0BD
:1030A00008018161806900F008000090DFF8B490A9
:1030B0004FF40054002221464846FDF7ACFEDFF8ED
:1030C000A8A041F20247002239465046FDF7A3FE70
:1030D000DFF898B04FF41068002241465846FDF7DB
:1030E0009AFE019401260296002403940225049579
:1030F00001A94846FDF792FD4FF44040019002942B
:10310000039501A94846FDF789FD06200190029428
:10311000039501A95846FDF781FD10200190029406
:10312000039401A95846FDF779FD01960294039492
:1031300001A95046FDF772FD01970296039404958C
:1031400001A95046FDF76AFDCDF80480029603946C
:10315000049501A95846FDF761FD05B0BDE8F08F63
:103160000010024000100140000C01400008014026
:1031700010B50D480B4901600C4941600021816088
:10318000C1604FF48042026141618161C1610162AD
:10319000FDF74EFE002804D04FF4B87104A000F0F3
:1031A00077FC10BD0054004054020020A0860100AE
:1031B0002E2E2F5372632F6D61696E2E63000000F7
:1031C00010B510480E4901604FF482714160002132
:1031D0008160C160016141614FF400728261082227
:1031E000C2610162416281620A21C162FEF7E4FCB0
:1031F000002804D04FF4C47103A000F049FC10BDB6
:1032000000300140A80200202E2E2F5372632F6D34
:1032100061696E2E6300000010B510480E49016010
:103220004FF48271416000218160C16001614161A0
:103230004FF4007282611022C261016241628162B8
:103240000A21C162FEF7B8FC002804D04FF4D07107
:1032500003A000F01DFC10BD00380040000300205A
:103260002E2E2F5372632F6D61696E2E6300000046
:1032700010B586B018484FF08041016048F6A04173
:10328000416000248460C821C16004618461FEF74C
:103290003AFE20B14FF4DA7110A000F0F9FB4FF4C0
:1032A0008050029002A90C48FEF772FE20B14FF444
:1032B000DD710AA000F0ECFB009401946946064819
:1032C000FEF7F9FD002804D040F2C11103A000F080
:1032D000DFFB06B010BD0000580300202E2E2F5338
:1032E00072632F6D61696E2E6300000010B50D488A
:1032F0000B4901604FF4E131416000218160C16000
:1033000001610C2242618161C161FFF70DF8002863
:1033100004D04FF4EA7104A000F0BAFB10BD000025
:1033200000380140980300202E2E2F5372632F6D1A
:1033300061696E2E63000000FEE770470907090E01
:10334000002806DA00F00F0000F1E02080F8141DDC
:10335000704700F1E02080F80014704770470000CB
:1033600008B507494FF4FA520968B1FBF2F141433D
:10337000009100BF0098411E0091FAD208BD0000E4
:10338000B80000200A21B0FBF1F201FB1202B0FBF1
:10339000F1F042EA0010C0B2704700F00F010009DE
:1033A00000EB800001EB4000C0B270470148FEF71F
:1033B00099BB0000A802002038B504460B460092D5
:1033C00000228021204600F011F828B1606D40F005
:1033D00020006065032038BD002038BD10B5406A6C
:1033E0000021C187C186FEF77BFB10BD2DE9F041AE
:1033F00004460E4617461D46DDF8188034E0681C6A
:1034000032D02DB1FDF70EFDA0EB0800A8422BD362
:103410002068416821F0E00141606068B0F5827F7A
:103420000BD1A068B0F5004F02D0B0F5806F04D189
:103430002068016821F040010160A06AB0F5005FDA
:103440000AD1206801684DF6FF72114001602068C2
:10345000016841F400510160012050346070002087
:1034600020700320BDE8F0812068806836EA000003
:1034700004D00020B842C2D10020F3E70120F9E7D0
:10348000704710B5FDF7ACFFBDE81040FEF70DBD6D
:1034900030B58FB0012105910804069000240794EF
:1034A000099102250C950D904FF4E0100E9005A89F
:1034B000FEF76AF920B14FF4A27113A000F0E8FA08
:1034C0000F200090019502944FF4806003900494C3
:1034D00002216846FEF746F820B14FF4A9710AA010
:1034E00000F0D6FAFEF7F0F84FF47A71B0FBF1F085
:1034F000FEF7C7FC0420FEF7B5FC00221146501E63
:10350000FDF7FEFF0FB030BD2E2E2F5372632F6DCF
:1035100061696E2E630000000D48016841F00101F1
:10352000016041680B4A1140416001680A4A11403C
:103530000160016821F480210160416821F4FE01ED
:1035400041604FF41F0181600449C0030860704767
:10355000001002400000FFF8FFFFF6FE08ED00E05B
:1035600010B5104C4FF480412046FDF74DFC0E493C
:1035700008604FF400412046FDF746FC0B49086007
:103580000B4C04212046FDF73FFC0A49086002214C
:103590002046FDF739FC08490860BDE8104007489F
:1035A000FEF77EBD0010014080000020900000204A
:1035B00000080140940000208400002058030020EF
:1035C000F0B50268164C174D174E4FF08047A042D9
:1035D00005D0B84203D0A84201D0B04203D122F0B6
:1035E00070034A681A43A04205D0B84203D0A842EB
:1035F00001D0B04203D122F44073CA681A4322F0CA
:1036000080024B69134303608A68C2620A6882625F
:10361000A04201D10969016301214161F0BD0000AF
:10362000002C0140000400400008004010B58468F0
:1036300024F47F4442EA03220A432243826010BDFD
:10364000826822F070020A4342F0070181607047ED
:1036500010B5036A046A24F001040462846924F04A
:10366000F00444EA021423F00A020A43846102626D
:1036700010BD10B5036A23F0100303628469036A66
:1036800024F4704444EA023223F0A00343EA011117
:103690008261016210BD10B5406A0021C185C184FC
:1036A000FEF7B9FD10BD0168CA6822F49072CA60C5
:1036B00001684A6922F001024A61202180F83A102B
:1036C000704710B50168CA6822F04002CA60202124
:1036D00080F83910FEF7F5FE002010BD10B590F807
:1036E0003A10222901D0022010BD8168B1F5805F17
:1036F00011D0016919B30168496801F07F03816A3B
:103700004A1C82620B70C18D491E0904090CC185D7
:103710001CD0002010BD816A02693AB1026852686B
:10372000D2B20A80816A491C8162ECE70268526861
:10373000C2F308020A80816A891C8162E3E701689A
:103740004A68816A4B1C83620A70DCE70168CA68B8
:1037500022F02002CA600168CA6822F48072CA603E
:1037600001684A6922F001024A61202180F83A107A
:10377000FEF740FE002010BD2DE9F0410446206810
:103780000169E26821F4405111430161A168206997
:103790000143606901432068C26841F20C639A43A7
:1037A0000A43C26020684169A26921F44071114353
:1037B00041615749206864253226884254D1FDF77B
:1037C00099FF00EBC00101EB001061688900B0FBBC
:1037D000F1F7FDF78FFF00EBC00101EB001061680E
:1037E0008900B0FBF1F0B0FBF5F06FF01801484331
:1037F00007EB800006EB0010B0FBF5F000F0F007DF
:10380000FDF778FF00EBC00101EB00106168890053
:10381000B0FBF1F0B0FBF5F007EB0017FDF76AFF26
:1038200000EBC00101EB001061688900B0FBF1F80A
:10383000FDF760FF00EBC00101EB0010616889003B
:10384000B0FBF1F0B0FBF5F06FF01801484308EB66
:10385000800006EB0010B0FBF5F0216800F00F00CF
:1038600038448860BDE8F081FDF734FF00EBC0010B
:1038700001EB001061688900B0FBF1F7FDF72AFF4A
:1038800000EBC00101EB001061688900B0FBF1F0B2
:10389000B0FBF5F06FF01801484307EB800006EB32
:1038A0000010B0FBF5F000F0F007FDF713FF00EBA0
:1038B000C00101EB001061688900B0FBF1F0B0FBC2
:1038C000F5F007EB0017FDF705FF00EBC00101EB7A
:1038D000001061688900B0FBF1F8FDF7FBFE00EB1A
:1038E000C00101EB001061688900B0FBF1F0B0FB92
:1038F000F5F06FF01801484308EB800006EB00106C
:10390000B0FBF5F0216800F00F0038448860A9E7AB
:103910000038014090F83910212901D00220704769
:103920008168B1F5805F0CD0016A4A1C02620268AE
:1039300009785160C18C491E0904090CC18410D05A
:1039400019E0016A02680988C1F308015160016940
:1039500019B1016A491C0162ECE7016A891C016224
:10396000E8E70168CA6822F08002CA600068C1689E
:1039700041F04001C160002070472DE9F04104464C
:103980000E4617469846069D1DE0681C1BD02DB1BB
:10399000FDF748FAA0EB0800A84214D92068C168D6
:1039A00021F4D071C1602068416921F001014161B9
:1039B000202084F8390084F83A00002084F8380088
:1039C0000320BDE8F0812068006836EA000004D0DA
:1039D0000020B842D9D00020F3E70120F9E7000029
:1039E0000148FEF719BC000098030020FEE7000024
:1039F0007FB50546002003900846FFF7C3FC0390FF
:103A0000194C03AAE18B606ACDE90021029060891C
:103A10004FF6FF7101EA4001238C2A461348FDF757
:103A20000DFC607040F6FF754FF47A7468B110A118
:103A3000124800F02FF823222B4610491048FEF7B9
:103A4000DAFC2046FDF7D8F8F1E70EA10B4800F0AC
:103A500021F823222B4609490948FEF7CCFC2046D1
:103A6000FDF7CAF87FBD00000400002054020020CA
:103A70004552524F52200D0A00000000C4000020A1
:103A8000980300205345542054494D45200D0A0009
:103A9000FEE700000FB4084B10B504A902AA039872
:103AA00000F0DEF8044602A9002000F070FC204679
:103AB00010BC5DF814FB00008F43000802E008C84A
:103AC000121F08C1002AFAD170477047002001E098
:103AD00001C1121F002AFBD1704700002DE9FF5FD2
:103AE00082B00021DDE90430020DDDF840B003436F
:103AF00018D044F61050A2F2FF3242431514119828
:103B000001281FD0A5EB0B00401C5FEA000A4FF014
:103B100000064E4FDFF83891B046504615D5CAF131
:103B2000000413E0119801244AA3012801D16FEA8F
:103B30000B010298119AC0E90031C0E9024206B0B7
:103B4000BDE8F09FCBF10000DFE704460021404ACA
:103B5000491842EB0450CDE9001012E0E00707D00D
:103B600032463B4640464946FCF7C5FB80468946FF
:103B700032463B4610461946FCF7BDFB06460F464B
:103B80006410002CEAD1DDE90401DDE90023BAF17B
:103B9000000F06DAFCF7AFFB42464B46FCF7ABFBE7
:103BA00005E0FCF7F8FD42464B46FCF7F4FD044601
:103BB0000E460022284BFCF775FE03D84FF0FF306D
:103BC000014607E00022254B20463146FCF73CFD2C
:103BD000FCF750FE102409E0002C0ADB0A22002327
:103BE000FCF76DFC039B30321A55641E50EA01024B
:103BF000F2D1641C039AC4F111031444119A012AEE
:103C000003D0012208430DD10AE0084304D000206C
:103C10004FF0110B119072E7A3EB0B056D1E0DE039
:103C20005B4504DD4FF0000205F1010504E003DA15
:103C30004FF00002A5F10105002AECD0029811997D
:103C4000C0E90231C0E9004579E7000000001440F6
:103C50000000F03F300000000000F0430000E03FB3
:103C60002DE9FF4F95B09B468946064600250FE299
:103C7000252877D100242746F84A0121059400E041
:103C8000044316F8013F203B01FA03F01042F7D13C
:103C900030782A2811D06FF02F033078A0F130024D
:103CA000092A16D8059A44F0020402EB820203EBBB
:103CB00042021044761C0590EFE759F8042B059258
:103CC000002A03DA504244F40054059044F0020400
:103CD000761C30782E2816D116F8010F44F0040413
:103CE0002A280DD06FF02F023078A0F13003092B75
:103CF00009D807EB870302EB4303C718761CF3E7E9
:103D000059F8047B761C30786C280FD006DC4C28E0
:103D100017D068280DD06A2814D104E0742810D078
:103D20007A280FD10DE044F400140AE044F4801422
:103D300001E044F440147278824202D104F5801408
:103D4000761C761C307866280BD013DC582877D088
:103D500009DC002875D04528F6D04628F4D047283D
:103D60001AD19DE118E0632835D0642879D0652800
:103D700012D195E1702873D008DC6728F1D069284A
:103D80006FD06E280DD06F2806D1B5E073282CD0E7
:103D9000752875D0782874D05A46179990476D1CAD
:103DA00075E1C4F30250022809D003280DD0D9F8D8
:103DB000001004280DD00D6009F1040967E1D9F85D
:103DC0000010EA17C1E90052F6E7D9F800100D809B
:103DD000F2E70D70F0E719F8041B8DF800100020D1
:103DE0008DF80100EA46012003E059F804AB4FF0DA
:103DF000FF3061074FF0000102D40DE008F101012E
:103E00008846B9420FDA8045F8DB1AF80810002915
:103E1000F4D108E008F1010188468142FADB1AF882
:103E200008100029F6D105985B46A0EB080721464B
:103E30003846179A00F094FA284400EB080507E08A
:103E40004DE029E10DE01AF8010B5A461799904709
:103E5000B8F10108F7D25B4621463846179A13E1BC
:103E600042E00A220092C4F302524FF0000A022AF2
:103E700008D059F804CB032A4FEAEC710AD00DE0C0
:103E800029E02AE009F1070121F00702F2E802C166
:103E9000914609E00FFA8CFC4FEAEC71042A03D139
:103EA0004FFA8CFC4FEAEC71002907DA0A46002130
:103EB000DCF1000C61EB02012D2202E0220504D5A9
:103EC0002B228DF80420012203E0E20701D02022FA
:103ED000F7E7904659E00A2102E010220DE0102198
:103EE0004FF0000A00910BE010224FF0000A44F05E
:103EF00004040827009203E008224FF0000A009211
:103F0000C4F30252022A05D059F804CB0021032A37
:103F100008D009E009F1070121F00702F2E802C127
:103F2000914605E01FFA8CFC042A01D10CF0FF0C2D
:103F30004FF00008220728D5702806D0009B83F098
:103F4000100353EA0A0305D00EE040228DF8042046
:103F5000012208E05CEA010206D030228DF804203C
:103F60008DF8050002229046009B83F0080353EA77
:103F70000A030AD15CEA010201D1620705D53022A9
:103F80008DF804204FF001087F1E582804D034A07B
:103F900003900EA802900DE036A0F9E75346604664
:103FA000009AFCF78CFA84460398825C0298401EC3
:103FB000029002705CEA0100F0D1029806A9081A8A
:103FC00000F1200A600702D524F4803400E00127C4
:103FD000574502DDA7EB0A0000E0002000EB0A01D4
:103FE000009005984144401A0590E00306D45B46D2
:103FF0002146179A059800F0B3F90544002706E01A
:1040000001A85A46C05D179990476D1C7F1C474513
:10401000F6DBE0030CD55B462146179A059800F0C5
:104020009FF9054404E030205A46179990476D1CCB
:104030000099481E00900029F5DC08E002980299DA
:104040005A460078491C0291179990476D1CBAF1A5
:104050000001AAF1010AF1DC65E100000928010074
:1040600030313233343536373839616263646566EE
:1040700000000000303132333435363738394142B0
:10408000434445460000000000F058F90544761C02
:10409000307800287FF4ECAD19B02846BDE8F08FE9
:1040A000620700D4062709F1070222F0070CFCE89A
:1040B0000223E14603F000485FEA080C02D00FF249
:1040C000702C0DE05FEA045C02D50FF2682C07E06B
:1040D0005FEAC47C02D00FF2602C01E0AFF2700CFA
:1040E0004FF0FF3823F00043CDF850C065280CD0C6
:1040F00006DC452809D046281DD047283DD13DE0A3
:10410000662818D067287ED138E00021112F01DB06
:10411000112000E0781CCDE9000106A90EA8FFF7E8
:10412000DDFCDDE90F010E9A03910021009207F1F9
:10413000010A04914DE04FF000400097CDE90110D5
:1041400006A90EA8FFF7CAFCDDE90F0203920E9B39
:1041500011990022DDF80CA00093049211B9791C8A
:1041600000EB010AB7EB0A0004D4C0F1FF3007F1FD
:10417000010A0490AAEB0700019044E0012F00DA45
:1041800001270021112F01DD112000E03846CDE983
:10419000000106A90EA8FFF7A1FCDDE90F010E9AA8
:1041A0000391002104910092BA4621070CD403998F
:1041B000514500DA8A46BAF1010F05DD009AAAF1ED
:1041C0000101515C302908D0B84202DA10F1040F25
:1041D00006DA0121CDE9011015E0AAF10101E9E7B4
:1041E000002805DC049901440491AAEB000102E0D7
:1041F000411C514500DD8A460499401A401C01903B
:104200004FF000400290200704D40198504501DB94
:10421000CDF8048000208DF84F0002980DF14F0773
:10422000B0F1004F25D02B200E9002984FF00208DD
:1042300000280CDA404202902D200E9007E00A215F
:104240000298FCF726F93031029007F8011DB8F109
:104250000001A8F10108F2DC02980028EFD1791ED4
:104260000E980870307800F0200040F0450007F804
:10427000020D12A8C01B00F107081498007800B1C5
:10428000012000EB0A01019801EBE071059841441F
:10429000401A401E0590E00306D45B462146179A5B
:1042A000059800F05DF805441498007818B15A4656
:1042B000179990476D1CE00324D55B462146179A59
:1042C000059800F04DF805441CE00498002807DB31
:1042D000DDE90301884203DD0098405C179901E0A5
:1042E000179930205A469047049805F10105401C63
:1042F00004900198401E019004D12E205A4617992F
:1043000090476D1CBAF10001AAF1010ADDDC05E05D
:1043100017F8010B5A46179990476D1CB8F1000128
:10432000A8F10108F4DC5B462146179A0598ABE634
:104330002D0000002B000000200000002DE9F041BE
:10434000044600251E461746880404D405E0394675
:104350002020B0476D1C641EF9D52846BDE8F081C9
:104360002DE9F041044600251E469046C80301D5BC
:10437000302700E02027880404D505E04146384670
:10438000B0476D1C641EF9D52846BDE8F0810A6867
:10439000531C0B601070704770B54FF4C835294A34
:1043A000116BA1F596318403108C0005B2F92260DF
:1043B0004E43201A801B00F58040C31700EB53408A
:1043C000C01392F904304B43DC1703EB94539C1257
:1043D000D3785943CB1701EB5351C91201F5004172
:1043E0004C43E11704EB91514FF4001303EBA1216F
:1043F000B2F91E30594301F50051CB1701EB93413F
:1044000089134843C11700EB5141C9134943CB17E6
:1044100001EB5361C91192785143CA1701EB127134
:10442000A0EB2110002800DA00204FF0C85188428C
:1044300000DD0846C11700EB11500013A84200D957
:10444000284670BD3400002010B5002821D0114B43
:104450000022001F196803E0814203D80A46496818
:104460000029F9D152B11368841A9C4204D1006822
:1044700018441060104602E0506000E0186039B146
:1044800002680B1A934203D10B681A440260496810
:10449000416010BDBC0000202DE9F04F89B001261D
:1044A0004FF47A75CDE90165AE4800903346D022CD
:1044B000EC21AD48FCF764FDAA4C641E207000B1ED
:1044C00001206178602901D0012100E00021DFF89E
:1044D0009C9208434FF03C0840F6FF7B21D124E03A
:1044E000A3A1AF48FFF7D6FA424689F800805B46A1
:1044F000AB49AC48FDF77FFF2846FCF77DFB6078B1
:1045000060280ED0A8A1A648FFF7C4FA424689F851
:1045100000805B46A249A348FDF76DFF2846FCF7E3
:104520006BFB20780028EAD0DAE7A5A19C48FFF7CA
:10453000B1FA89F800805B46424699499948FDF7EF
:104540005AFF9748FF213C30FBF734FE944FFF2081
:104550003C37CDE9007001230022EC21029582480E
:10456000FCF70EFD207017F8880F797840EA0120DB
:10457000E080B878F97840EA0120208138797979AB
:1045800040EA01206081B879F97940EA0120A081F0
:10459000387A797A40EA0120E081B87AF97A40EAFB
:1045A00001202082387B797B40EA01206082B87B41
:1045B000F97B40EA0120A082387C797C40EA012026
:1045C000E082B87CF97C40EA01202083387D797D47
:1045D00040EA01206083B87DF97D40EA0120A08394
:1045E000787EA07097F8590097F85A1040EA012099
:1045F000E08397F85B00E07097F85D0097F85C1037
:10460000024661F31F12228497F85E10000940EA07
:104610000110608497F85F002071002708970DF162
:10462000200ACDE900A60123F522EC214E4802958F
:10463000FCF7A6FC20709DF8200000F0030040F07D
:1046400020000890CDE900A60123F522EC21464880
:104650000295FCF7F3FD20700797CDE9016507A8E7
:1046600000900123F522EC213F48FCF789FC2070E3
:10467000069705970DF1140ACDE900A60123F4224F
:10468000EC2139480295FCF77BFC20709DF8140062
:1046900040F027000590CDE900A60123F422EC218B
:1046A00031480295FCF7CAFD2070CDE9016506A8E6
:1046B00000900123F422EC212B48FCF761FC2070D0
:1046C00004970DF1100ACDE900A60123F222EC2196
:1046D00025480295FCF754FC20709DF8100000F06E
:1046E000070040F002000490CDE900A60123F22269
:1046F000EC211D480295FCF7A1FD20700397CDE940
:10470000016503A800900123F222EC211648FCF772
:1047100037FC20709DF80C0000909DF818309DF833
:104720001C202DA11E48FFF7B5F989F800805B46D3
:1047300042461B491B48FDF75EFE207800280ED03C
:104740000BA11748FFF7A6F9424689F800805B469F
:1047500013491448FDF74FFE2846FCF74DFA09B0FF
:10476000BDE8F08F350000205402002098000020A2
:104770004552524F5220434F4E4E45435420544FC2
:1047800020424D45323830202121212053544154BC
:104790005553213D48414C5F4F4B0D0A000000002E
:1047A000E700002098030020424D45323830206E4B
:1047B0006F7420666F756E64202121210D0A000040
:1047C000434F4E4E45435420544F20424D453238BE
:1047D00030204F4B0D0A0000434F4E4649473D30B5
:1047E0007825782C20204354524C5F4D4541533D51
:1047F000307825782C204354524C5F48554D3D303D
:104800007825780D0A00000008B5FEF757FA032056
:10481000FEF7BCFB0020FEF73DFA1F2000900323AB
:104820004FF4A07297210020FEF7E0F908BD0000C8
:1048300008B5FCF7DDFDFEF72BFEFEF713FCFEF7D7
:1048400055FDFEF795FCFEF7BBFCFEF711FDFEF7EC
:10485000E3FC3148FDF790FBFFF7D6FFFFF71CFEA6
:1048600000F044FB00F0E4FB2C4E306900F028F926
:1048700040F2B6384046FCF7BFF900F037FB00F0D5
:10488000D7FBF06800F01CF90024D6E9001088423C
:10489000F0D101254FF4FA773846FCF7ADF9D6E9A7
:1048A0000010884204D1641CE4B2092C00D1002419
:1048B000092C1CD2DFE804F01B05080B0E1114179D
:1048C0001A0001F0ABF912E000F0BAFF0FE000F0BF
:1048D0003FFE0CE000F00EFD09E000F027FC06E0D2
:1048E00001F0B8F803E001F069FA00E00025316852
:1048F000B06888420DD10025002096234FF4AA729B
:1049000001460090FEF7A2F800F092FB306900F03B
:10491000D7F8002DC0D1ADE7580300207C0000205F
:10492000F0B50B30154D20F007010024144A0FE0BC
:1049300003688B420BD38B4205D95E1A4318476834
:10494000C3E9006700E04368136002C004E0021D91
:1049500010680028ECD12046002802D1286808B150
:104960000020F0BD064A07481060074A121A22F0DC
:104970000702C0E9002401202860D7E7C00000201A
:10498000BC000020DC030020D80500202DE9F04108
:1049900086B00024039404940594344D34A103A8F4
:1049A0002A88FFF777F828880325A0F112014FF431
:1049B000FC674FF47848072908D8CDE900543B46F6
:1049C000B7220A2103A8FEF741F914E0192808D9F3
:1049D000CDE900544346B7220A2103A8FEF736F971
:1049E00009E0122807D2CDE900541F23B7220A217B
:1049F00003A8FEF72BF9204E20A103A83288FFF769
:104A000049F83088A0F11E01232908D8CDE90054C7
:104A10003B46D5220A2103A8FEF718F914E04128E5
:104A200008D9CDE900544346D5220A2103A8FEF750
:104A30000DF909E01E2807D2CDE900541F23D52225
:104A40000A2103A8FEF702F90E480FA102681148D7
:104A5000FFF720F8CDE900541F239A220A210D48C0
:104A6000FEF7F4F806B0BDE8F08100007400002005
:104A7000543A25642043000076000020483A25641B
:104A80002025250078000020503A2564206D6D48CF
:104A9000670000002C0200203EB50024029407A10C
:104AA00002A8FEF7F7FF0A20CDE900044FF4FC63EB
:104AB00000228C2102A8FEF7C9F83EBD3A00000092
:104AC00010B5044618480068844214D100F0B6F9C5
:104AD0001648807878B9FFF7DFFF00F037F900F06B
:104AE000E9F800F087F800F025F800F06FF900F021
:104AF000D3F9FFF74BFF0E480068844213D1FFF74C
:104B0000CBFF00F09BF900F021F900F0D3F800F0A2
:104B100071F800F00FF800F059F900F0BDF9BDE8A8
:104B20001040FFF733BF10BD8800002004000020B4
:104B30008C00002070B586B0002403940494059482
:104B4000294E0625B2790A2A0CD228A103A8FEF71D
:104B5000A1FFCDE900541F236422142103A8FEF70E
:104B600075F80BE021A103A8FEF794FFCDE90054EE
:104B70001F236422002103A8FEF768F81CA103A8E4
:104B8000FEF788FFCDE900541F2364224B2103A8C0
:104B9000FEF75CF8B2790A2A0CD214A103A8FEF73A
:104BA00079FFCDE900541F236422142103A8FEF7E6
:104BB0004DF80BE00DA103A8FEF76CFFCDE9005402
:104BC0001F236422002103A8FEF740F808A103A8D0
:104BD000FEF760FFCDE900541F2364224B2103A898
:104BE000FEF734F806B070BD040000202564000014
:104BF0002F00000010B586B000240394049405949F
:104C00001B484079082827D2DFE800F02604090E67
:104C100013181D2217A103A8FEF73CFF1CE017A1E3
:104C200003A8FEF737FF17E016A103A8FEF732FF2F
:104C300012E017A103A8FEF72DFF0DE016A103A8AF
:104C4000FEF728FF08E016A103A8FEF723FF03E004
:104C500016A103A8FEF71EFF0320CDE900044FF6BE
:104C6000E0735022002103A8FDF7F0FF06B010BD4D
:104C7000040000204D4F4E44415900005455455307
:104C8000444159005745444E4553444159000000A2
:104C90005448555344415900465249444159000033
:104CA00053415455524441590000000053554E445D
:104CB00041590000F0B585B0002402940394049497
:104CC0001E4E0A254FF4FC67307900281CD01CA129
:104CD00002A8FEF7DFFECDE9005400223B46114654
:104CE00002A8FDF7B3FF3279092A1AD915A102A843
:104CF000FEF7D0FECDE900543B4600220A2102A86F
:104D0000FDF7A4FF05B0F0BD0FA102A8FEF7C2FE9B
:104D1000CDE9005400223B46114602A8FDF796FF5C
:104D2000F0E708A102A8FEF7B5FECDE900543B4626
:104D30000022322102A8FDF789FFE3E704000020EA
:104D400020200000256400003030000070B586B0DF
:104D5000002403940494059418480A254FF4FC6633
:104D6000C278002A0FD00A2A1AD215A103A8FEF78A
:104D700091FECDE9005433460022BE2103A8FDF781
:104D800065FF06B070BD0FA103A8FEF783FECDE955
:104D9000005433460022BE2103A8FDF757FFF0E779
:104DA00009A103A8FEF776FECDE9005433460022A0
:104DB000BE2103A8FDF74AFFE3E70000040000203E
:104DC00030256400303000002564000030B585B027
:104DD000002402940394049415480625C2790A2AF3
:104DE0000CD214A102A8FEF755FECDE900541F23F2
:104DF0006422782102A8FDF729FF0BE00DA102A88B
:104E0000FEF748FECDE9005464221F23114602A894
:104E1000FDF71CFF08A102A8FEF73CFECDE90054F7
:104E20001F236422AF2102A8FDF710FF05B030BD9B
:104E300004000020256400002F000000F0B585B0BC
:104E40000024029403940494104E03254FF4FC674D
:104E5000B07800280BD10EA102A8FEF71BFECDE909
:104E600000543B465022E62102A8FDF7EFFEB2783F
:104E700008A102A8FEF70EFECDE900543B465022E1
:104E8000E62102A8FDF7E2FE05B0F0BD0400002017
:104E9000202000002564000030B585B00024029475
:104EA000039404940F480625027A0A2A0DD20EA113
:104EB00002A8FEF7EFFDCDE900541F236422DC2198
:104EC00002A8FDF7C3FE05B030BD07A102A8FEF79A
:104ED000E1FDCDE900541F236422C82102A8FDF79B
:104EE000B5FEF0E70400002025640000FEB5FF21B8
:104EF0003D48FBF75FF9FF213B4DCDE900514FF4F1
:104F00007A70029001230022EC213848FCF738F82F
:104F1000374C207015F8F70F6978000440EA01203B
:104F2000A97808430009A063E8782979000440EAD9
:104F300001206979084300096063E979AA7941EAA7
:104F40000221E163FBF7EEFD6062A06BFBF7F6FC6C
:104F5000A062E06BFFF720FA0646E062606AFBF7AA
:104F60003CFA2449FBF789F94FF08041FBF77FF9C0
:104F7000FBF749FA05B220480580A06A42F2107199
:104F800090FBF1F01D4CFBF731FA1D4A1D4BFBF76E
:104F9000B2F9FBF765FA074620603046FBF71DFAC9
:104FA0006FF00901FBF79BF9FBF746FA84B216484C
:104FB00004800D483C213C38FBF7FCF80A483B468E
:104FC0002A4612A13C380094FEF764FD16483C22A4
:104FD000027003B00449BDE8F04040F6FF733C396D
:104FE0001248FDF708BA00002301002054020020F7
:104FF000340000200AD7233C7400002078000020F1
:105000009911DE1E8400E83F76000020743A256482
:105010002C20703A25642C20683A2564203C3C3CC6
:105020003C5C720A000000009800002098030020F9
:10503000FEB52B4C04F12805A18B606ACDE9005127
:10504000029060894FF6FF7101EA4001238C628B68
:105050002448FBF795FF607000B1FEE72878FEF763
:105060009CF9A0706878FEF798F9E070A878FEF7D0
:1050700094F92071E878FEF790F960712879FEF7CD
:105080008CF9A071687900F01F00FEF786F9E071D5
:10509000A879FEF782F9207220790090E378A2784F
:1050A00011A11748FEF7F6FC232540F6FF7633469C
:1050B0002A4613491348FDF79EF9207AE179CDE994
:1050C0000010A379627910A10D48FEF7E3FC03B04C
:1050D00033462A46BDE8F04009490A48FDF78BB936
:1050E00004000020540200205345433A2564204D1B
:1050F000494E3A256420484F55523A25640D0A001E
:10510000C4000020980300204441593A25642044FB
:105110004154453A2564204D4F554E543A2564205C
:10512000594541523A2564200D0A00002DE9FC5FE3
:105130005BA15E48FEF7AEFC5D480A22027040F6B5
:10514000FF735A495B48FDF756F9DFF86CA100265A
:1051500006279AF80620DFF864914FF478480A2A67
:1051600018D257A15748FEF795FCCDE900781F23C8
:10517000642214215348FDF769FDD9F80000FBF7BC
:105180003BFDCDE900761F23642214214D48FDF735
:105190005DFD17E04AA14B48FEF77CFCCDE90078A5
:1051A0001F23642200214748FDF750FDD9F8000075
:1051B000FBF722FDCDE900761F2364220021414840
:1051C000FDF744FD4048414902680B689A4264D1AA
:1051D00001240125DFF8F8908B4622463DA1334893
:1051E000FEF758FC32480A2202704FF6FF732F492F
:1051F0003048FDF700F93AA13A48FEF74BFC0A2C7B
:1052000015D2CDE900761F23642200213548FDF731
:105210001DFD22462AA12B48FEF73CFCCDE9007873
:105220001F23642214212748FDF710FD0CE02246BD
:1052300023A12448FEF72EFCCDE900781F23642229
:1052400000212048FDF702FD1C480068FBF7D4FC54
:105250001D480168DBF80000814207D1641CE4B2FC
:10526000214909788C4201D999F800401F49096801
:10527000814206D1641EE4B299F800108C4200D23B
:105280000C461B490968814205D100252146BAF820
:105290001400FEF7ADFB002D9FD1BDE8FC9F000080
:1052A00053455420444154450D0A00002202002079
:1052B000980000209803002004000020A80000208F
:1052C000256400002C020020900000207C000020BB
:1052D000A1000020444154453A2025640D0A0000F5
:1052E0002020000040020020A000002094000020A8
:1052F000840000202DE9FC5F6EA17148FEF7CAFB17
:10530000DFF8C0B10A228BF8002040F6FF736C4929
:105310006D48FDF770F8DFF8B49199F8050008289A
:1053200027D2DFE800F02604090E13181D2268A119
:105330006948FEF7AFFB1CE068A16748FEF7AAFBCF
:1053400017E068A16448FEF7A5FB12E068A1624877
:10535000FEF7A0FB0DE068A15F48FEF79BFB08E0AD
:1053600067A15D48FEF796FB03E068A15A48FEF787
:1053700091FB4FF4784A0326CDE9006A4FF6E077B7
:105380003B46502200215448FDF760FC614800680C
:10539000FBF732FC0020CDE9006001463B4650227D
:1053A0004D48FDF753FC5C495C480A6803689A4223
:1053B0007DD101240125DFF868818B468246224693
:1053C00058A13F48FEF766FB3E480A2202704FF69E
:1053D000FF733B493C48FDF70EF8082C27D2DFE865
:1053E00004F02604090E13181D2239A13A48FEF7CD
:1053F00051FB1CE039A13848FEF74CFB17E039A1FE
:105400003548FEF747FB12E039A13348FEF742FB6F
:105410000DE039A13048FEF73DFB08E038A12E48E9
:10542000FEF738FB03E039A12B48FEF733FB40A120
:105430004348FEF72FFB0020CDE9006001463B46C4
:1054400050223F48FDF702FC4FF47840CDE9006060
:105450003B46502200212048FDF7F8FB2D4800680C
:10546000FBF7CAFBDBF80010DAF80000814207D135
:10547000641CE4B2334909788C4201D998F80040A1
:1054800031490968814206D1641EE4B298F80010DF
:105490008C4200D20C462D490968814205D1002575
:1054A0002146B9F81200FEF7A3FA002D87D1BDE816
:1054B000FC9F0000534554204441590D0A00000050
:1054C0002202002098000020980300200400002001
:1054D0004D4F4E44415900002C0200205455455375
:1054E000444159005745444E45534441590000003A
:1054F00054485553444159004652494441590000CB
:1055000053415455524441590000000053554E44F4
:1055100041590000A8000020900000207C000020DD
:105520009F0000204441593A2025640D0A000000E4
:1055300020202020202020202020202000000000EB
:10554000400200209E0000209400002084000020E3
:105550002DE9FE4FA1A1A448FEF79CFAA3480A2515
:105560002A46057040F6FF739F49A148FCF743FFA8
:10557000DFF88092DFF880B24FF4784899F80400A1
:1055800000264FF4FC6A40B39CA19D48FEF782FAC6
:10559000CDE900560022534611469948FDF756FBC7
:1055A00099F80420092A31D996A19748FEF772FA92
:1055B000CDE90058534600220A219348FDF746FBE7
:1055C000DBF80000FBF718FBCDE90056534600223C
:1055D0000A218D48FDF73AFB3EE08CA18A48FEF790
:1055E00059FACDE900580022534611468648FDF786
:1055F0002DFBDBF80000FBF7FFFACDE90056002297
:10560000534611468048FDF721FB25E07BA17C48ED
:10561000FEF740FACDE9005600225346114678487D
:10562000FDF714FB99F8042076A17748FEF732FACB
:10563000CDE900585346002232217348FDF706FB9E
:10564000DBF80000FBF7D8FACDE9005653460022FC
:1056500032216D48FDF7FAFA6D496E480A68036811
:105660009A4273D100240127DFF8ACB122466BA126
:105670005D48FEF70FFA5D482A4605704FF6FF7346
:1056800059495B48FCF7B7FEDCB1092C26D95BA170
:105690005B48FEF7FFF9CDE900580022534611465A
:1056A0005748FDF7D3FA224656A15748FEF7F2F9BC
:1056B000CDE90058534600220A215348FDF7C6FAA7
:1056C0005EE052A15048FEF7E5F9CDE9005800220E
:1056D000534611464C48FDF7B9FA51E052A14848EB
:1056E000FEF7D8F9CDE9005600225346114644484A
:1056F000FDF7ACFA02964DA102A8FEF7CBF9CDE971
:105700000056534600228C2102A8FDF79FFA22463C
:105710003CA13D48FEF7BEF9CDE9005853460022B2
:1057200032213948FDF792FA99F803207AB10A2A12
:105730001AD23FA13448FEF7ADF9CDE900565346E1
:105740000022BE213048FDF781FA19E043E02FA185
:105750002D48FEF79FF9CDE9005653460022BE21A1
:105760002948FDF773FA0BE026A12748FEF792F9C6
:10577000CDE9005653460022BE212348FDF766FAC4
:105780001D480068FBF738FA214801682148006885
:10579000814207D1641CE4B29BF800108C4201D90D
:1057A00024490C7824490968814207D1641EE4B277
:1057B0009BF800108C4201D91E490C781F490968DA
:1057C000814205D100272146B9F81000FEF710F9F3
:1057D000002F7FF44BAFBDE8FE8F000053455420EF
:1057E000484F55520D0A0000220200209800002068
:1057F0009803002004000020A800002020200000C2
:1058000040020020256400002C02002030300000FF
:10581000900000207C0000209C000020484F555242
:105820003A2025640D0A0000202020003A000000E4
:10583000302564009D00002094000020840000209A
:105840002DE9FC5F6EA17148FEF724F9DFF8C0B1C5
:105850000A2632468BF8006040F6FF736B496D48AC
:10586000FCF7C9FDDFF8B0A1DFF8B09100249AF889
:1058700003204FF478474FF4FC68D2B10A2A31D2A2
:1058800067A16848FEF706F943460022BE21654835
:10589000CDE90067FDF7DAF9D9F80000FBF7ACF9BC
:1058A000CDE9006443460022BE215E48FDF7CEF9F3
:1058B00030E05DA15B48FEF7EDF843460022BE21D3
:1058C0005848CDE90067FDF7C1F9D9F80000FBF7AA
:1058D00093F9CDE9006443460022BE215148FDF70B
:1058E000B5F917E051A14F48FEF7D4F8434600221E
:1058F000BE214C48CDE90067FDF7A8F9D9F80000B2
:10590000FBF77AF9CDE9006443460022BE21454801
:10591000FDF79CF9464947480A6803689A426CD1EA
:1059200000240125DFF81081DFF81091834622461C
:1059300043A13648FEF7AEF83548324606704FF6BA
:10594000FF7332493348FCF756FD84B10A2C1CD250
:10595000224633A13348FEF79DF84FF4FC63002242
:10596000BE213048CDE90067FDF770F91BE02EA19C
:105970002C48FEF78FF84FF4FC630022BE21294823
:10598000CDE90067FDF762F90DE0224627A1254821
:10599000FEF780F84FF4FC630022BE212148CDE9D8
:1059A0000067FDF753F91D480068FBF725F920480B
:1059B0000168DBF80000814207D1641CE4B298F86A
:1059C00000108C4201D999F80040204909688142B1
:1059D00007D1641EE4B298F800108C4201D999F8FE
:1059E00000401B490968814205D100252146BAF8CB
:1059F0000E00FDF7FDFF002D99D1BDE8FC9F0000D2
:105A0000534554204D494E0D0A000000220200204B
:105A1000980000209803002004000020A800002027
:105A2000302564002C020020303000002564000086
:105A3000900000207C0000209A0000209B000020A5
:105A40004D494E3A2025640D0A00000094000020C4
:105A5000840000202DE9FC5F5BA15E48FEF71AF888
:105A60005D480A22027040F6FF735A495B48FCF712
:105A7000C2FCDFF86CA1002606279AF80720DFF8A1
:105A800064914FF478480A2A18D257A15748FEF774
:105A900001F8CDE900781F23642278215348FDF7EF
:105AA000D5F8D9F80000FBF7A7F8CDE900761F2359
:105AB000642278214D48FDF7C9F817E04AA14B4808
:105AC000FDF7E8FFCDE9007864221F23114647481F
:105AD000FDF7BCF8D9F80000FBF78EF8CDE90076A9
