:020000040800F2
:10000000E0080020010100088B30000815220008DC
:1000100089300008AD0800083D37000800000000E6
:10002000000000000000000000000000D1310008C6
:10003000AF08000800000000AD300008D331000810
:100040001B0100081B0100081B0100081B01000820
:100050001B0100081B0100081B0100081B01000810
:100060001B0100081B0100081B0100081B01000800
:100070001B0100081B0100081B0100081B010008F0
:100080001B0100081B0100081B0100081B010008E0
:100090001B0100081B0100081B0100081B010008D0
:1000A0001B0100081B0100081B0100081B010008C0
:1000B000B13200081B0100081B0100081B010008E9
:1000C0001B0100081B0100081B010008FD3000088F
:1000D0001B010008313700081B0100081B01000844
:1000E0001B0100081B0100081B010008DFF80CD0F1
:1000F00000F0CAFB00480047C14F0008E00800209C
:100100000648804706480047FEE7FEE7FEE7FEE7B1
:10011000FEE7FEE7FEE7FEE7FEE7FEE769320008DE
:10012000ED000008202A04DB203A21FA02F0002129
:10013000704721FA02F3D040C2F1200291400843F7
:100140001946704740EA01039B0703D009E008C93C
:10015000121F08C0042AFAD203E011F8013B00F88C
:10016000013B521EF9D27047D2B201E000F8012BD8
:10017000491EFBD270470022F6E710B513460A4627
:1001800004461946FFF7F0FF204610BD420005D097
:10019000C0F3C7525242914201DC0020704700EB8D
:1001A000C15070472DE9FE4F804681EA0300C00F21
:1001B0000C46009021F0004123F00045B8EB02000E
:1001C000A94105D24046214690461C460B460246B0
:1001D00023F00040104347D0270DC7F30A00C3F3B4
:1001E0000A510290401A019040286BDAC3F31300C1
:1001F00040F4801B0098924620B10023D2EB030A02
:1002000063EB0B0B01985946C0F14002504600F0D9
:100210006EFA06460D4650465946019A00F076FAA7
:1002200010EB08006141002487EA115284EAE77369
:100230001A4340D0009A62B3019A012A4FEA07524A
:1002400015DC001B61EB02014FF0004202EA07528D
:10025000CDE90042001C41F5801132462B4600F0EA
:10026000ADFA03B0BDE8F08F40462146F9E7001B28
:1002700061EB0201001C41F5801300185B4120185E
:10028000A2F5001747EB030140EAD570B6196D419E
:1002900011E06D084FEA360645EAC0754FEA07528D
:1002A000001B61EB0201001C41F5801149084FEA77
:1002B00030000019514132462B4603B0BDE8F04FE3
:1002C00000F06DBA0098012240000023D0EB02023A
:1002D00063EBE073009821464FEAE074B8EB00004E
:1002E00061EB0401E9E783F000435BE781F0004143
:1002F00058E72DE9FE4F81EA030404F0004421F0A1
:10030000004100944FF0000B23F0004350EA010439
:100310005ED052EA03045BD0C3F30A54C1F30A551A
:100320002C44A4F2F3340194A0FB0254C1F3130152
:1003300041F48011C3F3130343F4801301FB02441F
:1003400000FB034E840A970A44EA815447EA835724
:10035000A4FB076802958D0A05FB07854FEA932CDD
:1003600004FB0C542705029D4FEA065847EA16374E
:10037000B5EB08056EEB070C870E920E47EA811766
:1003800042EA8312A7FB0201B6EB0B0164EB000407
:100390002B0D43EA0C335E1844EB1C50DA465146F1
:1003A000E7FB0201C5F313044FEA0B3343EA14538E
:1003B0004FEA0432019C43EA0603A4F10C040294C0
:1003C000009CCDE900B400F0F9F903B0BDE8F08F6E
:1003D00000200146F9E72DE9F04D81EA030404F01D
:1003E000004B21F0004514464FF0000A23F0004175
:1003F00050EA050220D054EA01021DD0C5F30A5785
:100400000246C5F31303C1F31300C1F30A5640F4C7
:10041000801543F48013A7EB0608101BD64608F29C
:10042000FD3873EB050002D308F1010801E09218D2
:100430005B41B8F1000F03DA00200146BDE8F08D02
:1004400000204FF48011064684460EE0171B73EB24
:10045000050705D3121B63EB050306434CEA010CA9
:1004600049084FEA300092185B4150EA0107EDD18C
:1004700052EA030012D082EA040083EA050108432D
:1004800005D0101BAB4106D20122002306E000225A
:100490004FF0004302E06FF0010253101AEB060028
:1004A0004CEB085110EB0A0041EB0B01BDE8F04D9D
:1004B00000F075B970B521F0004303430CD0C1F3CF
:1004C0000A550024D5EB040564EB0403D617AD1AD6
:1004D000B34102DB0020014670BD201841EB025100
:1004E00070BDC10F80EAE0700844CA07962300215E
:1004F00000F027B90EB5C10F80EAE0700844CA07C2
:10050000002140F233438DE80E000A460B4600F00E
:1005100055F903B000BD0EB540F233410291002100
:10052000CDE900110A460B4600F048F903B000BDC2
:1005300070B5C1F30A5201F000450024C1F3130164
:1005400040F2FF3341F480119A4201DA002070BD7D
:1005500040F233439A42A2F2334203DC5242FFF7A5
:10056000E1FD00E090402C43F1D0404270BDC1F36A
:100570000A5210B5C1F3130140F2FF3341F4801168
:100580009A4201DA002010BD40F233439A42A2F2AF
:10059000334203DC5242FFF7C5FD10BD904010BD51
:1005A00000F0004230F000400AD0C10D01F560714A
:1005B000C0F3160042EA0151C208400711437047D8
:1005C000002001467047000030B5041E71F10004A0
:1005D00004DB4FF00044404264EB0101141E73F150
:1005E000000405DB1C464FF00043524263EB04035A
:1005F0008B4208BF824230BD30B5041E71F1000449
:1006000004DB4FF00044404264EB0101141E73F11F
:10061000000405DB1C464FF00043524263EB040329
:10062000994208BF904230BD01F0004330B421F040
:10063000004150EA010206D00A0DA2F56072C1F332
:100640001301002A02DC30BC00207047440F44EA4A
:10065000C104C100E01830BC00EBC25000F068B823
:1006600030B50B46014600202022012409E021FA82
:1006700002F59D4205D303FA02F5491B04FA02F57F
:100680002844151EA2F10102F1DC30BD2DE9F05F16
:100690000546002092469B468846064681464024F1
:1006A0001BE02846414647462246FFF73BFD53469E
:1006B0005A46C01A914110D311461846224600F0FE
:1006C00016F82D1A67EB01084F462246012000213B
:1006D00000F00DF817EB00094E41201EA4F10104B3
:1006E000DFDC484631462A464346BDE8F09F202AD3
:1006F00004DB203A00FA02F1002070479140C2F179
:10070000200320FA03F3194390407047202A06DBA8
:10071000CB17203A41FA02F043EAE07306E041FACF
:1007200002F3D040C2F120029140084319467047BD
:100730000029A8BF7047401C490008BF20F00100F5
:10074000704710B4B0FA80FC00FA0CF050EA0104D3
:1007500004BF10BC704749B1CCF1200421FA04F465
:1007600011FA0CF118BF012121430843A3EB0C013E
:10077000CB1D4FEA00614FEA102042BF002010BCA1
:10078000704700EBC35010440029A4BF10BC704751
:10079000401C490008BF20F0010010BC704710B594
:1007A000141E73F1000408DA401C41F10001921894
:1007B0005B411A4301D120F0010010BD2DE9F04D3D
:1007C00092469B4611B1B1FA81F202E0B0FA80F292
:1007D00020329046FFF78BFF04460F4640EA0A009E
:1007E00041EA0B0153465A46084313D0114653EAD7
:1007F000010019D0C8F140025046FFF793FC0546AE
:100800000E46504659464246FFF771FF084305D051
:10081000012004E020463946BDE8F08D0020054364
:1008200046EAE0762C4337430A986305E40AA0EBD6
:1008300008000022FD0A44EA47540A3002D500208D
:100840000146E9E7010510196941DDE9084500198C
:100850006941BDE8F04DA2E7C1F30A52C1F31301AB
:1008600040F2FF3341F480119A4202DA002001463F
:10087000704740F233439A42A2F2334202DC5242C2
:10088000FFF750BCFFF733BF064C074D06E0E068AA
:1008900040F0010394E8070098471034AC42F6D3C7
:1008A000FFF728FCB06A0008D06A0008FEE770472E
:1008B00010B5002490F82110022903D0042181638F
:1008C00001243DE001680A6822F00E020A60016816
:1008D0000A6822F001020A601A4A0168914201D1B5
:1008E000012121E0174A1432914201D110211BE06D
:1008F000144A2832914201D1891515E0114A3C323F
:10090000914201D189140FE00E4A5032914202D136
:100910004FF4803108E00B4A6432914202D14FF427
:10092000801101E04FF08071064A083A51600121C0
:1009300080F82110002180F82010416B01B1884718
:10094000204610BD0800024070B5044600F012F9C0
:100950000546601C02D004480078044400F00AF9FF
:10096000401BA042FAD370BDAC0000202DE9F84F27
:1009700000230024DFF8C0914FF00F0809F1040AAA
:100980000AF1040B0BF1040E0127A7400A683A4054
:10099000BA4275D1DFF8A4C14D68A5EB0C066545D8
:1009A0002BD00DDC032D34D005DC35B3012D19D04F
:1009B000022D2FD11BE0112D16D0122D2AD119E0B6
:1009C000B6F5881F19D006DCB6F5803F15D0B6F510
:1009D000801F1FD111E0B6F5001F0ED0B6F5041F21
:1009E00018D10AE0CB6815E0CB681B1D12E0CB687C
:1009F00008330FE0CB680C330CE08B6823B1012B7C
:100A000004D00823476105E0042303E008230761BD
:100A100000E00023FF2A01D8054601E000F10405AB
:100A200002D84FEA840603E0A4F108064FEA8606DE
:100A30002F6808FA06FC27EA0C0703FA06F647EACD
:100A400006072F604D68ED0070D53D4DAE6946F04C
:100A50000106AE61AD6905F001050095394D24F040
:100A600003067719BE68A5072D0F08FA05FC26EACC
:100A70000C06DFF8D4C0604503D14FF0000C17E03E
:100A800054E0DFF8C8C0604502D14FF0010C0FE020
:100A9000DFF8BCC0604502D14FF0020C08E0DFF87F
:100AA000B4C0604502D14FF0030C01E04FF0040CDC
:100AB0000CFA05FC4CEA060CC7F808C04D68ED03BB
:100AC00005D5D9F800501543C9F8005004E0D9F80D
:100AD00000509543C9F800504D68AD0305D5DAF8CC
:100AE00000501543CAF8005004E0DAF8005095436E
:100AF000CAF800504D68ED0205D5DBF800501543EB
:100B0000CBF8005004E0DBF800509543CBF80050E0
:100B10004D68AD0205D5DEF800501543CEF8005003
:100B200004E0DEF800509543CEF80050641C102C11
:100B3000FFF42AAFBDE8F88F000401400000111057
:100B4000001002400000014000080140000C01407C
:100B500000100140001401408068084201D00120CB
:100B6000704700207047002A01D0016170470904D6
:100B7000016170470148806870470000AC000020A8
:100B800070B50446002C04D094F83D00002510B147
:100B900006E0012070BD84F83C50204600F0A6FA23
:100BA000242084F83D002068016821F001010160E3
:100BB00000F038FC424A6168914203D841498842BA
:100BC00003D304E04049884201D2012070BD3F496F
:100BD000B0FBF1F1236859606368934201D8491C66
:100BE00007E04FF4967359434FF47A73B1FBF3F176
:100BF000491C236819626168914210D84900401E5F
:100C0000B0FBF1F2521CC2F30B02042A01D2042001
:100C100022E0B0FBF1F0401CC0F30B001CE0A26826
:100C2000CAB301EBC10303EB0116431EB3FBF6F39A
:100C30005B1C43F480431B0536D06AB301EBC10251
:100C400002EB0111401EB0FBF1F0401CC0F30B00A1
:100C500040F4804040F400402168C861D4E90701B5
:100C6000084321680860D4E90310084321688860BC
:100C7000D4E9050108432168C8602068016841F093
:100C8000010101602564202084F83D00256384F87B
:100C90003E50002070BD00E008E001EB4106431E1D
:100CA000B3FBF6F35B1CC6E70120D5E701EB41017E
:100CB000401EB0FBF1F0401CC0F30B00CAE700007F
:100CC000A086010080841E0000093D0040420F0004
:100CD0002DE9FF4F83B00446DDE911988A4693461B
:100CE000109FFFF747FF054694F83D00202803D0EA
:100CF000022007B0BDE8F08F19230122A049204649
:100D0000009501F0C9FB08B10220F2E794F83C001D
:100D1000012807D0012084F83C0020680168C90739
:100D200002D005E00220E4E7016841F00101016022
:100D30002068016821F400610160222084F83D00F0
:100D4000402084F83E00002626646762A4F82A90BA
:100D50008C48E062608D2085CDE900855A46514679
:100D60002046069B01F06CFA50B1206C042803D099
:100D700084F83C600320BCE784F83C600120B8E7BD
:100D8000208D70B1012815D0022823D02068016879
:100D900041F48061016020684169806902907A4F66
:100DA000E3E02068416981690291016841F40071C2
:100DB0000160F4E72068016821F48061016072B687
:100DC0002068416981690291016841F40071016004
:100DD00062B6E4E72068016841F40061016072B620
:100DE0002068416981690291016821F48061016094
:100DF00062B6D4E703286FD801280BD0022823D08D
:100E00004346002239462046009501F045FBE8B3F1
:100E100003206EE72A464146204601F0C1FB30B16F
:100E2000206C202801D0012063E7032061E72068BF
:100E30000169606A421C62620170208D401E20853B
:100E4000608D401E608590E0434600223946204672
:100E5000009501F021FB08B103204AE772B6206833
:100E6000016841F40071016020680169606A421CF8
:100E700062620170208D401E2085608D401E60855D
:100E800062B620680169606A421C00E008E06262A4
:100E90000170208D401E2085608D401E608564E0BD
:100EA0002068016821F48061016072B620680169E0
:100EB000606A421C62620170208D401E2085608D38
:100EC000401E60854346002239462046009501F0C9
:100ED000E3FA10B103200CE71EE02068016841F43A
:100EE0000071016020680169606A421C62620170E1
:100EF000208D401E2085608D401E608562B6206872
:100F00000169606A421C62620170208D401E20856A
:100F1000608D401E608528E02A464146204601F04B
:100F20003FFB30B1206C202801D00120E1E60320F6
:100F3000DFE620680169606A421C62620170208DF0
:100F4000401E2085608D401E608520684169C94330
:100F500049070AD40169606A421C62620170208DEF
:100F6000401E2085608D401E6085208D00287FF406
:100F700041AF20203C346070A67026700020B8E697
:100F8000020010000000FFFF040001002DE9FF4FE8
:100F900083B00446DDE910898A469346129FFFF725
:100FA000E9FD054694F83D00202803D0022007B053
:100FB000BDE8F08F192301224A492046009501F02F
:100FC0006BFA08B10220F2E794F83C00012807D040
:100FD000012084F83C0020680168C90702D005E0C0
:100FE0000220E4E7016841F0010101602068016826
:100FF00021F400610160212084F83D00402084F844
:101000003E0000262664C4F82480A4F82A903648BE
:10101000E062608D2085CDE900755A465146204634
:10102000069B01F0AFF9D0B3206C042803D084F8FC
:101030003C600320BBE784F83C600120B7E72A4608
:101040003946204601F0DDFA58B1206C042801D061
:101050000320ACE72068016841F4007101600120C1
:10106000A5E7606A411C6162216800780861208DF3
:10107000401E80B22085618D491E618523685969B3
:10108000C94349070BD450B1606A411C61620078C2
:101090001861208D401E2085608D401E6085208D4A
:1010A0000028CCD12A463946204601F0CFF958B164
:1010B000206C042801D0032079E72068016841F4FE
:1010C00000710160012072E71F3454F81F0C0168A1
:1010D00041F4007101602020A077E6776677002058
:1010E00065E70000020010000000FFFF00B585B0BA
:1010F00000680C49884212D1C02001901220029051
:101100000320049001A90848FFF730FC0748C16993
:1011100041F40011C161C06900F40010009005B0F5
:1011200000BD000000540040000C014000100240CF
:10113000024881680278114481607047AC00002049
:1011400010B50748016841F010010160032000F06C
:101150009FF8002000F006F800F026F8002010BDEF
:101160000020024070B504460D4D4FF47A71287886
:10117000B1FBF0F00B490968B1FBF0F000F029FD7C
:1011800008B1012070BD102C07D200222146501E4C
:1011900000F05EF86C60002070BD012070BD0000A2
:1011A000AC000020B800002008B52148816941F05A
:1011B00001018161816901F001010091C16941F082
:1011C0008051C161C06900F080500090032000F0A0
:1011D0005FF8002211466FF00B0000F039F8002292
:1011E00011466FF00A0000F033F8002211466FF04C
:1011F000090000F02DF800221146501F00F028F8D9
:1012000000221146101F00F023F800221146901E04
:1012100000F01EF800221146501E00F019F8054992
:10122000486820F0E06040F00070486008BD0000B1
:10123000001002400000014000F01F020121914017
:101240004009800000F1E020C0F800117047000064
:10125000F0B40D460D4B1B68C3F30223C3F1070422
:10126000042C00D90424191D072901D2002300E011
:10127000DB1E012606FA04F1491E294099409E40D2
:10128000761E16403143F0BC01F000BF0CED00E0CB
:1012900000F00701054A10684FF6FF03184040EAC6
:1012A0000120034908431060704700000CED00E086
:1012B0000000FA052DE9F04704460E46DFF84881A4
:1012C000D8F8000000F00700B0420FD2D8F80000B4
:1012D00020F007003043C8F80000D8F8000000F004
:1012E0000700B04202D00120BDE8F0872078474FC8
:1012F000800705D57868A16820F0F0000843786081
:101300002078C00748D06068012806D0022809D09C
:10131000396889070BD40120E6E73968890306D4C8
:101320000120E1E73968890101D40120DCE779680F
:1013300021F0030101437960FFF71CFC054660685A
:1013400041F28839012809D0022814D020E0FFF7A3
:1013500011FC401B484501D90320C5E77868C0F35C
:1013600081000128F3D117E0FFF704FC401B48453A
:1013700001D90320B8E77868C0F381000228F3D1CF
:101380000AE0FFF7F7FB401B484501D90320ABE714
:10139000786810F00C0FF4D1D8F8000000F00700C6
:1013A000B0420ED9D8F8000020F007003043C8F84A
:1013B0000000D8F8000000F00700B04201D0012082
:1013C00092E72078400705D57868E16820F4E0606E
:1013D000084378602078000706D57868216920F4F2
:1013E000605040EAC100786000F03CF87968084A33
:1013F000C1F30311515CC840064908600020FFF7A3
:10140000B1FE002070E70000002002400010024002
:10141000976A0008B8000020014800687047000083
:10142000B800002000B5FFF7F7FF04494968044AF7
:10143000C1F30221515CC84000BD00000010024011
:10144000A76A000800B5FFF7E7FF04494968044AA6
:10145000C1F3C221515CC84000BD00000010024031
:10146000A76A000885B014A090E80E00C068CDE916
:1014700002230191049014A000680090134B596856
:10148000134801F00C02042A10D0082A0ED101A83A
:10149000C1F38342805CC9030AD55968C1F3404156
:1014A0001DF801100A4A5043B0FBF1F005B0704737
:1014B00008494843FAE70000020304050607080943
:1014C0000A0B0C0D0E0F101001020000001002405C
:1014D00000127A0000093D002DE9F84F0446D04D76
:1014E0002078C0075BD06868C0F38100012807D06E
:1014F0006868C0F3810002280AD16868C00307D574
:10150000286880034BD5606878BB0120BDE8F88F60
:101510006068B0F5803F11D0A8B1B0F5A02F1BD006
:10152000286820F480302860286820F48020286013
:10153000606830B3FFF71EFB06461EE0286840F4E3
:1015400080302860F4E7286820F48030286028681C
:1015500020F480202860EBE7286840F48020286091
:10156000286840F480302860E2E718E0FFF702FBCB
:10157000801B642801D90320C8E728688003F5D5BB
:101580000DE0FFF7F7FA064606E0FFF7F3FA801BD7
:10159000642801D90320B9E728688003F5D42078AE
:1015A000DFF8808280074FF0010A4FF0000945D52F
:1015B000686810F00C0F07D06868C0F3810002283B
:1015C00012D16868C0030FD42868800704D5206949
:1015D000012801D0012099E72868616920F0F8000E
:1015E00040EAC100286029E02069B8B1C8F800A02D
:1015F000FFF7C0FA064606E0FFF7BCFA801B022898
:1016000001D9032082E728688007F5D52868616939
:1016100020F0F80040EAC10028600FE0C8F8009010
:10162000FFF7A8FA064606E0FFF7A4FA801B022897
:1016300001D903206AE728688007F5D420780007DD
:1016400026D57948A16999B1C0F800A0FFF792FAB0
:10165000064606E0FFF78EFA801B022801D9032018
:1016600054E7686A8007F5D5012001F021FD0FE0FD
:10167000C0F80090FFF77EFA064606E0FFF77AFA18
:10168000801B022801D9032040E7686A8007F5D44F
:101690002078400773D50026E869C00008D4E869BF
:1016A00040F08050E861E86900F080500090012629
:1016B000DFF878B1DBF80000C00514D4DBF80000D7
:1016C00040F48070CBF80000FFF754FA074606E0BC
:1016D000FFF750FAC01B642801D9032016E7DBF896
:1016E0000000C005F4D5E068012812D0B0B105288B
:1016F0001DD0286A20F001002862286A20F004002A
:101700002862E06841F2883B28B3FFF733FA0746C6
:101710001DE0286A40F001002862F2E7286A20F004
:1017200001002862286A20F004002862E9E7286A9C
:1017300040F004002862286A40F001002862E0E7D7
:10174000FFF718FAC01B584501D90320DEE6286AC6
:101750008007F5D50DE0FFF70DFA074606E0FFF725
:1017600009FAC01B584501D90320CFE6286A800733
:10177000F5D4012E03D1E86920F08050E861E069DA
:10178000A0B36968C1F38101022947D0022805D0BE
:10179000C8F86090FFF7EEF904463AE0C8F86090A8
:1017A000FFF7E8F9064606E0FFF7E4F9801B022898
:1017B00001D90320AAE628688001F5D4206AB0F593
:1017C000803F05D16868A16820F400300843686054
:1017D000D4E908010843696821F47411084368607A
:1017E000C8F860A0FFF7C6F9044607E014E0FFF769
:1017F000C1F9001B022801D9032087E6286880016F
:10180000F5D509E0FFF7B6F9001B022801D903203E
:101810007CE628688001F5D4002077E6012075E693
:10182000001002400000424280044242007000402A
:101830007047000038B504462068426881684B064E
:1018400009D4CB0707D0530605D5216C01B020463B
:10185000BDE8304008478B0707D5130605D5616CF6
:1018600001B02046BDE83040084711F0600F43D07A
:10187000930641D54B060AD594F85130032B38D046
:10188000636D43F004036365C3688368009389064E
:1018900009D5616D41F001016165816800910168C0
:1018A00021F040010160606D002825D0206841686A
:1018B00021F0E0014160012084F8510002F00200B3
:1018C00002F00101084318D02068416821F00301AB
:1018D00041600C4DE06C18B14563E06CFEF7E8FF29
:1018E000A06C002808D04563A06CBDE83840FEF726
:1018F000DFBFC1688068009038BD2046FFF798FFC1
:1019000038BD00002D31000870B50446002C05D00C
:101910000025A56294F8510010B104E0012070BDCB
:10192000204600F033F8022084F851002068016856
:1019300021F040010160D4E901010843D4E9031218
:101940001143084361690843218B01F40071084386
:10195000E1690843216A0843A16A084321680860D5
:10196000A069042101EA1040616A084321684860C7
:101970002168E06A08612068C16921F40061C161E1
:101980006565012084F85100002070BD30B585B038
:101990000068244D0024244902220323A84222D1B6
:1019A000886940F480508861886900F48050009014
:1019B000A0200190029204931C4D01A92846FEF735
:1019C000D5FF402101910294039401A92846FEF716
:1019D000CDFF002211462320FFF73AFC2320FFF71A
:1019E0002BFC05B030BD124DA842FAD1C86940F4B5
:1019F0008040C861C86900F4804000904FF42040E6
:101A00000190029204930B4D01A92846FEF7AEFF08
:101A10004FF4804101910294039401A92846FEF7F6
:101A2000A5FFDEE700300140001002400008014041
:101A300000380040000C01402DE9F84F04460D46E7
:101A400093461E46002794F8500001280DD04FF011
:101A5000010A84F850A0FFF78DF8804694F85100F1
:101A6000B946012804D002279EE00220BDE8F88F85
:101A7000DDB1BBF1000F18D0032084F85100C4F889
:101A800054902563A4F834B0A4F836B0C4F8389064
:101A9000A4F83C90A4F83E90C4F84490C4F8409058
:101AA000A068B0F5004F02D006E001277CE0206876
:101AB000016841F48041016020680168490603D44F
:101AC000016841F040010160E068B0F5006F05D0A9
:101AD000606850B3E08E012827D044E0606810B100
:101AE000E08E01281DD1216835F8020BC860E08E18
:101AF000401EE08615E020688168890706D535F824
:101B0000021BC160E08E401EE0860AE03EB1701C00
:101B100007D0FFF72FF8A0EB0800B04201D303274E
:101B200042E0E08E0028E6D120E0216815F8010BA4
:101B30000873E08E401EE08615E020688168890702
:101B400006D515F8011B0173E08E401EE0860AE001
:101B50003EB1701C07D0FFF70DF8A0EB0800B042B3
:101B600001D3032720E0E08E0028E6D1334601228E
:101B700002212046CDF8008001F0E0FA08B10327E9
:101B800012E042463146204601F0BEFA18B1012764
:101B90002020606508E0A06818B92068C1688068E6
:101BA0000090606D00B1012784F851A084F8509036
:101BB00038465BE74FF0E021042804D0086920F0A4
:101BC000040008617047086940F00400086170472C
:101BD000704710B5401EB0F1807F01D3012010BDC9
:101BE0004FF0E02460610F21601701F04FFA0020F0
:101BF000A06107202061002010BD10B5FFF7E8FFAD
:101C000010BD7047704730B590F83C20012A20D0B5
:101C1000012380F83C30022280F83D20026854689D
:101C200024F070045460026854680D682C435460BA
:101C30000268946824F0800494600268946849689B
:101C40000C43946080F83D30002180F83C10002067
:101C500030BD022030BD10B50446002C03D094F8EE
:101C60003D0010B107E0012010BD002084F83C00C9
:101C7000204600F00DF8022084F83D00211D206868
:101C800001F046FB012084F83D00002010BD00005B
:101C900008B50068B0F1804F12D10A48C16941F01F
:101CA0000101C161C06900F00100009000221146ED
:101CB0001C20FFF7CDFABDE808401C20FFF7BCBA96
:101CC00008BD0000001002400168CA6842F001022D
:101CD000CA600068016841F001010160002070479E
:101CE00070B5044694F83C00012817D0012584F80B
:101CF0003C50022084F83D002068826822F0770280
:101D000022F47F428260086850283AD00DDC2028F7
:101D10005FD005DCA0B3102864D155E0022070BD6F
:101D200030285BD040285DD13FE0602833D0702858
:101D30000CD0B0F5805F03D0B0F5005F52D113E056
:101D40002068816821F0070181604BE0CB68D1E910
:101D50000121206801F012FB2068816821F07701E1
:101D600041F0770181603DE0CB68D1E90121206835
:101D700001F004FB2068816841F48041816031E01A
:101D80001DE0CA684968206801F00AFB50212068FC
:101D900001F0FEFA26E0CA684968206801F011FBEC
:101DA0006021206801F0F4FA1CE0CA6849682068E4
:101DB00001F0F6FA4021206801F0EAFA12E0002171
:101DC000206801F0E5FA0DE01021206801F0E0FA4A
:101DD00008E02021206801F0DBFA03E030212068D0
:101DE00001F0D6FA3C3465700020207070BD704759
:101DF00070B50446206801694FF00005C9438907A2
:101E000016D4C168C943890712D4E91E01610120B3
:101E1000207720688069800703D02046FFF7E7FF1E
:101E200005E0204600F09BF8204600F099F8257761
:101E300020680169C943490718D4C168C9434907E3
:101E400014D46FF0040101610220207720688069BA
:101E500010F4407F03D02046FFF7C9FF05E020467D
:101E600000F07DF8204600F07BF8257720680169B6
:101E7000C943090717D4C168C943090713D46FF0D0
:101E800008010161042020772068C069800703D021
:101E90002046FFF7ACFF05E0204600F060F8204642
:101EA00000F05EF8257720680169C943C90618D497
:101EB000C168C943C90614D46FF01001016108203C
:101EC00020772068C06910F4407F03D02046FFF7D8
:101ED0008EFF05E0204600F042F8204600F040F872
:101EE000257720680169C943C90708D1C168C9437A
:101EF000C90704D1891E0161204600F032F820682C
:101F00000169C943090609D4C168C943090605D452
:101F10006FF0800101612046FFF773FE20680169C0
:101F2000C943490609D4C168C943490605D46FF0BD
:101F300040010161204600F015F820680169C9439D
:101F400089060BD4C168C943890607D46FF0200104
:101F500001612046BDE87040FFF754BE70BD704778
:101F6000704770477047704770B504462268106824
:101F7000D168526900F00F03002B08D1850606D501
:101F80008D0604D52046BDE8704001F04FBA002B05
:101F90005ED002F0010301F490752B4358D0C307C3
:101FA00005D0CB0503D5E36B43F00103E36343079F
:101FB00005D5D30703D0E36B43F00203E363830744
:101FC00005D5D30703D0E36B43F00403E3630307B2
:101FD00005D5D20703D0E26B42F00802E263E26B60
:101FE000002A2AD0800604D5880602D5204601F0B2
:101FF0001DFA20684069C0F38010E16B090700D426
:1020000000B3204601F0F7F920684169490615D56B
:10201000416921F040014161606B58B1154941634C
:10202000606BFEF745FC002807D0606B416BBDE894
:10203000704008472046FFF796FF70BD2046FFF727
:1020400092FF70BD2046FFF78EFF0020E06370BD59
:10205000020606D50A0604D52046BDE8704001F008
:1020600001BB4006F3D54806F1D52046BDE87040D7
:1020700001F0CFB9E733000870B50446002C04D056
:1020800094F83900002510B106E0012070BD84F8F5
:102090003850204600F022F8242084F839002068C7
:1020A000C16821F40051C160204601F00DFA20689A
:1020B000016921F4904101612068416921F02A0100
:1020C00041612068C16841F40051C160E56320208E
:1020D00084F8390084F83A00002070BD10B586B04D
:1020E00000681549884225D11448816941F480412E
:1020F0008161806900F4804001904FF4007002908B
:1021000002200390032005900D4C02A92046FEF703
:102110002DFC2115029100210391049102A9204672
:10212000FEF724FC002211462520FFF791F8252018
:10213000FFF782F806B010BD0038014000100240E1
:102140000008014070472DE9F84304460D469146CA
:102150001E4694F83900202802D00220BDE8F883FA
:10216000B5B1B9F1000F13D094F83800012811D09F
:10217000012084F838000027E763212084F8390023
:10218000FEF7F8FC8046A4F82490A4F826902DE0F1
:102190000120E3E70220E1E7E08C401EE084A06834
:1021A000B0F5805F09D0434600228021204600968A
:1021B00001F08BFAB0B10320D0E743460022802122
:1021C0002046009601F081FA08B10320C6E728886E
:1021D0002168C0F308004860206908B16D1C05E063
:1021E000AD1C03E0216815F8010B4860E08C002865
:1021F000D2D14346002240212046009601F065FAE4
:1022000008B10320AAE7202038346070277000202E
:10221000A4E77047FEE701684A69D24352050CD42F
:102220006FF480624A610421303001610021016055
:102230002022427301730120704700207047000084
:102240002DE9F84F0446DDE90AB60F4690461D46D3
:102250002068016841F4806101602068016841F4F0
:10226000807101604FF001195B460022494620460B
:10227000009600F011F910B10320BDE8F88F216835
:1022800007F0FE000861DFF8F8A033465A465146D1
:10229000204600F03BF930B1206C042801D0032027
:1022A000EBE70120E9E72068416980690090324648
:1022B0005946204600F0A5F958B1206C042801D0F9
:1022C0000320DAE72068016841F400710160012011
:1022D000D3E7284608F0FF0501280ED021684FEA11
:1022E0001820086132465946204600F08AF970B13C
:1022F000206C042804D00320BFE72068056108E0B3
:102300002068016841F4007101600120B5E7206890
:10231000056132465946204600F073F958B1206CE9
:10232000042801D00320A8E72068016841F4007167
:1023300001600120A1E72068016841F4807101601B
:102340005B46002249462046009600F0A5F808B1F9
:10235000032092E72168F8B240F00100086133469B
:102360005A465146204600F0D1F830B1206C04287E
:1023700001D0032081E701207FE700207DE70000F6
:10238000020001002DE9F8430446DDE908970D46F7
:10239000164698462068016841F4807101604B46FA
:1023A00000224FF001112046009700F075F810B19F
:1023B0000320BDE8F883216805F0FE0008613B4674
:1023C0004A462149204600F0A1F830B1206C04288B
:1023D00001D00320EDE70120EBE720684169806927
:1023E00000903A464946204600F00BF958B1206C5F
:1023F000042801D00320DCE72068016841F4007163
:1024000001600120D5E7F5B2B8F1010F0DD02168C8
:10241000300A08613A464946204600F0F2F870B1A9
:10242000206C042804D00320C3E72068056108E07D
:102430002068016841F4007101600120B9E720685B
:1024400005610020B5E700000200010070B50446F8
:102450000D46164619E02046FFF7DDFE08B10120C3
:1024600070BD681C11D025B1FEF784FB801BA8420B
:102470000BD93034206940F020002061002020601A
:10248000202161732073032070BD20684069C04320
:102490004007E0D4002070BD2DE9F0470546DDF887
:1024A00020A00F4691461E46C7F3074812E0701C55
:1024B00010D02EB1FEF75EFBA0EB0A00B04209D9A6
:1024C000002045F8300F20216973A873287303207A
:1024D000BDE8F087B8F1010F0BD02868806927EAC2
:1024E00000000004000C0FD000244C45DFD0002079
:1024F000EEE72868406927EA00000004000C01D0DC
:102500000024F2E70124F0E70124EEE72DE9F0478B
:1025100004460E46154698464FF000094FF0200A33
:10252000C6F3074729E020684069C043400513D43B
:102530002068016841F40071016021686FF48060D7
:10254000486104202064C4F8309084F83DA084F8E9
:102550003C900120BDE8F087681C0ED02DB1FEF73D
:1025600009FBA0EB0800A84207D9C4F8309084F812
:102570003DA084F83C900320ECE7012F08D02068B0
:10258000806926EA00000004000CCCD10020E1E7BD
:102590002068406926EA00000004000CF6D0C2E77B
:1025A0002DE9F04104460D46164600274FF020085D
:1025B00020E04069C043C0060CD421686FF01000D1
:1025C00048612764276384F83D8084F83C700120CB
:1025D000BDE8F08125B1FEF7CDFA801BA84209D9EC
:1025E000206C40F02000206484F83D8084F83C702A
:1025F0000320EDE720684169C9434906D9D400208A
:10260000E6E770B504460D46164619E02046FFF78A
:1026100002FE08B1012070BD681C11D025B1FEF783
:10262000A9FA801BA8420BD93034206940F0200061
:10263000206100202060202161732073032070BD81
:1026400020684069C0430006E0D4002070BD00004F
:102650002DE9FE4F9046DDE90C6204460F469B468D
:10266000202C01D3203CE4B20020224B04EB440197
:1026700003EB41010DF104090B5C09F80030401C2B
:10268000C0B20628F8D34FF6FF7006EB4601009261
:1026900000EA410200EAC6034146384600F04EF91E
:1026A00000254FF0010A002419F805000AFA04F188
:1026B00008420DD0012E15D004FB068081B205FB27
:1026C000067080B233463246CDF800B000F036F9DD
:1026D000641CE4B2082CE7D36D1CEDB2062DE2D3E6
:1026E000BDE8FE8F08EB040178195A4600F076F831
:1026F000EEE70000B06700082DE9F04782460D467E
:102700004FF4FA74B4EB450F00D92C460122D102E4
:102710001F48FEF728FADFF87C904FF4805800221B
:1027200041464846FEF71FFA4FEA1A27204602F0B4
:10273000BFFC064600200AF0FF0103E037543218C0
:102740005170801CA042F9D36800B0FBF4F7B0FBD5
:10275000F4F104FB110A57B1002506E0A2B20A23E6
:1027600031460D48FFF768F96D1CBD42F6D31FFADC
:102770008AF20A2331460848FFF75EF901224146F2
:102780004846FEF7F0F93046BDE8F04701F002BFD9
:1027900000080140000C0140AC010020F8B5DDF854
:1027A00018C000240025161A002E00DA01245F1A32
:1027B000002F00DA01256CB1801A84B210465DB199
:1027C000C91A8AB2194613462246CDF800C000F055
:1027D000B5F8F8BDB4B2F2E7BAB2F4E72DE9FE4FAE
:1027E00005460C461646514841888D427ED20088E7
:1027F00084427BD2DFF838814FF4006700223946EB
:102800004046FEF7B0F9DFF82CA14FF480590022C2
:1028100049465046FEF7A7F92A2000F02BFA01227C
:1028200039464046FEF79FF9012249465046FEF7D9
:102830009AF9002249465046FEF795F9280A8DF884
:1028400008008DF809506D1C280A8DF80A008DF8D3
:102850000B500123042202A93748FFF7EDF80122AB
:1028600049465046FEF77FF9002239464046FEF7BA
:102870007AF9002249465046FEF775F92B2000F000
:10288000F9F9012239464046FEF76DF90122494621
:102890005046FEF768F9002249465046FEF763F9B4
:1028A000200A8DF804008DF80540641C200A8DF87C
:1028B00006008DF807400123042201A91E48FFF7F6
:1028C000BBF8012249465046FEF74DF90022394631
:1028D0004046FEF748F9002249465046FEF743F9C4
:1028E0002C2000F0C7F90122394600E01CE04046E8
:1028F000FEF739F9012249465046FEF734F9002225
:1029000049465046FEF72FF9300A8DF800008DF841
:1029100001600123022269460748FFF78DF8012272
:1029200049465046FEF71FF9BDE8FE8F0000002023
:1029300000080140000C0140AC0100202DE9F041ED
:102940001546069E1C46144A5388984221D2138885
:1029500099421ED2431957885B1EBB4202DB538843
:102960001B1A9DB20B1917885B1EBB4202DB128833
:10297000521A94B20A19521E93B24219521E92B2BE
:1029800000F082F904FB05F13046BDE8F041FFF7A5
:10299000B3BEBDE8F0810000000000202DE9FC4737
:1029A0000446DDE90A680D4691469A4606EB46075D
:1029B0000AE0CDE90068641C53464A462946FFF701
:1029C00047FE05EB4700C5B220780028F1D1BDE8ED
:1029D000FC870000012211020148FEF7C4B8000084
:1029E0000008014070B50546074C23886288002125
:1029F000084600F049F96188208841432846BDE82F
:102A00007040FFF779BE00000000002010B5FFF70E
:102A1000E1FF00F027F900F005F9012000F08EF940
:102A20004FF47A70FDF790FFCB2000F087F9392042
:102A300000F0A2F92C2000F09FF9002000F09CF992
:102A4000342000F099F9022000F096F9CF2000F030
:102A500075F9002000F090F9C12000F08DF93020C8
:102A600000F08AF9E82000F069F9852000F084F987
:102A7000002000F081F9782000F07EF9EA2000F0D3
:102A80005DF9002000F078F9002000F075F9ED20E4
:102A900000F054F9642000F06FF9032000F06CF9A5
:102AA000122000F069F9812000F066F9F72000F0AB
:102AB00045F9202000F060F9C02000F03FF9232004
:102AC00000F05AF9C12000F039F9102000F054F953
:102AD000C52000F033F93E2000F04EF9282000F028
:102AE0004BF9C72000F02AF9862000F045F936207E
:102AF00000F024F9482000F03FF93A2000F01EF9D8
:102B0000552000F039F9B12000F018F9002000F04C
:102B100033F9182000F030F9B62000F00FF9082042
:102B200000F02AF9822000F027F9272000F024F98C
:102B3000F22000F003F9002000F01EF9262000F03A
:102B4000FDF8012000F018F9E02000F0F7F80F2060
:102B500000F012F9312000F00FF92B2000F00CF9F1
:102B60000C2000F009F90E2000F006F9082000F012
:102B700003F94E2000F000F9F12000F0FDF83720B5
:102B800000F0FAF8072000F0F7F8102000F0F4F851
:102B9000032000F0F1F80E2000F0EEF8092000F01C
:102BA000EBF8002000F0E8F8E12000F0C7F8002082
:102BB00000F0E2F80E2000F0DFF8142000F0DCF85E
:102BC000032000F0D9F8112000F0D6F8072000F01B
:102BD000D3F8312000F0D0F8C12000F0CDF8482023
:102BE00000F0CAF8082000F0C7F80F2000F0C4F881
:102BF0000C2000F0C1F8312000F0BEF8362000F0C3
:102C0000BBF80F2000F0B8F8112000F097F87820FA
:102C1000FDF79AFE292000F091F8BDE81040002051
:102C200000F05CB870B50D4D4FF480740022214661
:102C30002846FDF798FFC820FDF786FE00222101F7
:102C40000748FDF790FFC820FDF77EFE2146284685
:102C5000BDE870400122FDF786BF0000000801407A
:102C6000000C014000224FF480510148FDF77BBF6A
:102C7000000C014001B501231A4669460148FEF7E0
:102C8000DBFE08BDAC0100202DE9F04104460D46F5
:102C900016461F462A2000F051F8200A00F06CF872
:102CA000E0B200F069F8300A00F066F8F0B200F027
:102CB00063F82B2000F042F8280A00F05DF8E8B233
:102CC00000F05AF8380A00F057F8F8B200F054F85B
:102CD000BDE8F0412C2000F031B8000070B504468A
:102CE000362000F02BF80120FDF72EFE2000124CBC
:102CF0004FF0F0054FF4A0760BD001280FD002283A
:102D000013D0032804D1E82000F036F8668025802F
:102D100070BD482000F030F86580268070BD282006
:102D200000F02AF86680258070BD882000F024F825
:102D30006580268070BD00000000002070B506464A
:102D40000B4D4FF48054002221462846FDF70BFF1F
:102D5000002261100748FDF706FF3046FFF78AFFA3
:102D600021462846BDE870400122FDF7FCBE000068
:102D7000000C01400008014070B506460122D10256
:102D80000A48FDF7F0FE0A4D4FF480540022214618
:102D90002846FDF7E8FE3046FFF76CFF214628463F
:102DA000BDE870400122FDF7DEBE000000080140D2
:102DB000000C01402DE9F04F85B03D48816941F09C
:102DC00010018161816901F010010091816941F078
:102DD00020018161816901F020010091816941F048
:102DE00004018161816901F004010091816941F070
:102DF00008018161806900F008000090DFF8B4905C
:102E00004FF40054002221464846FDF7ACFEDFF89F
:102E1000A8A041F20247002239465046FDF7A3FE22
:102E2000DFF898B04FF41068002241465846FDF78D
:102E30009AFE01940126029600240394022504952B
:102E400001A94846FDF792FD4FF4404001900294DD
:102E5000039501A94846FDF789FD062001900294DB
:102E6000039501A95846FDF781FD102001900294B9
:102E7000039401A95846FDF779FD01960294039445
:102E800001A95046FDF772FD01970296039404953F
:102E900001A95046FDF76AFDCDF80480029603941F
:102EA000049501A95846FDF761FD05B0BDE8F08F16
:102EB0000010024000100140000C014000080140D9
:102EC00010B50D480B4901600C494160002181603B
:102ED000C1604FF48042026141618161C161016260
:102EE000FDF74EFE002804D04FF4B87104A000F0A6
:102EF00077FC10BD0054004058010020A08601005E
:102F00002E2E2F5372632F6D61696E2E63000000A9
:102F100010B510480E4901604FF4827141600021E4
:102F20008160C160016141614FF4007282610822D9
:102F3000C2610162416281620A21C162FEF7E4FC62
:102F4000002804D04FF4C47103A000F049FC10BD68
:102F500000300140AC0100202E2E2F5372632F6DE4
:102F600061696E2E6300000010B510480E490160C3
:102F70004FF48271416000218160C1600161416153
:102F80004FF4007282611022C2610162416281626B
:102F90000A21C162FEF7B8FC002804D04FF4D071BA
:102FA00003A000F01DFC10BD00380040040200200A
:102FB0002E2E2F5372632F6D61696E2E63000000F9
:102FC00010B586B018484FF08041016048F6A04126
:102FD000416000248460C821C16004618461FEF7FF
:102FE0003AFE20B14FF4DA7110A000F0F9FB4FF473
:102FF0008050029002A90C48FEF772FE20B14FF4F7
:10300000DD710AA000F0ECFB0094019469460648CB
:10301000FEF7F9FD002804D040F2C11103A000F032
:10302000DFFB06B010BD00005C0200202E2E2F53E7
:1030300072632F6D61696E2E6300000010B50D483C
:103040000B4901604FF4E131416000218160C160B2
:1030500001610C2242618161C161FFF70DF8002816
:1030600004D04FF4EA7104A000F0BAFB10BD0000D8
:10307000003801409C0200202E2E2F5372632F6DCA
:1030800061696E2E63000000FEE770470907090EB4
:10309000002806DA00F00F0000F1E02080F8141D8F
:1030A000704700F1E02080F800147047704700007E
:1030B00008B507494FF4FA520968B1FBF2F14143F0
:1030C000009100BF0098411E0091FAD208BD000097
:1030D000B80000200A21B0FBF1F201FB1202B0FBA4
:1030E000F1F042EA0010C0B2704700F00F01000991
:1030F00000EB800001EB4000C0B270470148FEF7D2
:1031000099BB0000AC01002038B504460B46009284
:1031100000228021204600F011F828B1606D40F0B7
:1031200020006065032038BD002038BD10B5406A1E
:103130000021C187C186FEF77BFB10BD2DE9F04160
:1031400004460E4617461D46DDF8188034E0681C1C
:1031500032D02DB1FDF70EFDA0EB0800A8422BD315
:103160002068416821F0E00141606068B0F5827F2D
:103170000BD1A068B0F5004F02D0B0F5806F04D13C
:103180002068016821F040010160A06AB0F5005F8D
:103190000AD1206801684DF6FF7211400160206875
:1031A000016841F40051016001205034607000203A
:1031B00020700320BDE8F0812068806836EA0000B6
:1031C00004D00020B842C2D10020F3E70120F9E783
:1031D000704710B5FDF7ACFFBDE81040FEF70DBD20
:1031E00030B58FB0012105910804069000240794A2
:1031F000099102250C950D904FF4E0100E9005A852
:10320000FEF76AF920B14FF4A27113A000F0E8FABA
:103210000F200090019502944FF480600390049475
:1032200002216846FEF746F820B14FF4A9710AA0C2
:1032300000F0D6FAFEF7F0F84FF47A71B0FBF1F037
:10324000FEF7C7FC0420FEF7B5FC00221146501E15
:10325000FDF7FEFF0FB030BD2E2E2F5372632F6D82
:1032600061696E2E630000000D48016841F00101A4
:10327000016041680B4A1140416001680A4A1140EF
:103280000160016821F480210160416821F4FE01A0
:1032900041604FF41F0181600449C003086070471A
:1032A000001002400000FFF8FFFFF6FE08ED00E00E
:1032B00010B5104C4FF480412046FDF74DFC0E49EF
:1032C00008604FF400412046FDF746FC0B490860BA
:1032D0000B4C04212046FDF73FFC0A4908600221FF
:1032E0002046FDF739FC08490860BDE81040074852
:1032F000FEF77EBD001001408000002090000020FD
:103300000008014094000020840000205C0200209E
:10331000F0B50268164C174D174E4FF08047A0428B
:1033200005D0B84203D0A84201D0B04203D122F068
:1033300070034A681A43A04205D0B84203D0A8429D
:1033400001D0B04203D122F44073CA681A4322F07C
:1033500080024B69134303608A68C2620A68826212
:10336000A04201D10969016301214161F0BD000062
:10337000002C0140000400400008004010B58468A3
:1033800024F47F4442EA03220A432243826010BDB0
:10339000826822F070020A4342F0070181607047A0
:1033A00010B5036A046A24F001040462846924F0FD
:1033B000F00444EA021423F00A020A438461026220
:1033C00010BD10B5036A23F0100303628469036A19
:1033D00024F4704444EA023223F0A00343EA0111CA
:1033E0008261016210BD10B5406A0021C185C184AF
:1033F000FEF7B9FD10BD0168CA6822F49072CA6078
:1034000001684A6922F001024A61202180F83A10DD
:10341000704710B50168CA6822F04002CA602021D6
:1034200080F83910FEF7F5FE002010BD10B590F8B9
:103430003A10222901D0022010BD8168B1F5805FC9
:1034400011D0016919B30168496801F07F03816AED
:103450004A1C82620B70C18D491E0904090CC1858A
:103460001CD0002010BD816A02693AB1026852681E
:10347000D2B20A80816A491C8162ECE70268526814
:10348000C2F308020A80816A891C8162E3E701684D
:103490004A68816A4B1C83620A70DCE70168CA686B
:1034A00022F02002CA600168CA6822F48072CA60F1
:1034B00001684A6922F001024A61202180F83A102D
:1034C000FEF740FE002010BD2DE9F04104462068C3
:1034D0000169E26821F4405111430161A16820694A
:1034E0000143606901432068C26841F20C639A435A
:1034F0000A43C26020684169A26921F44071114306
:1035000041615749206864253226884254D1FDF72D
:1035100099FF00EBC00101EB001061688900B0FB6E
:10352000F1F7FDF78FFF00EBC00101EB00106168C0
:103530008900B0FBF1F0B0FBF5F06FF018014843E3
:1035400007EB800006EB0010B0FBF5F000F0F00791
:10355000FDF778FF00EBC00101EB00106168890006
:10356000B0FBF1F0B0FBF5F007EB0017FDF76AFFD9
:1035700000EBC00101EB001061688900B0FBF1F8BD
:10358000FDF760FF00EBC00101EB001061688900EE
:10359000B0FBF1F0B0FBF5F06FF01801484308EB19
:1035A000800006EB0010B0FBF5F0216800F00F0082
:1035B00038448860BDE8F081FDF734FF00EBC001BE
:1035C00001EB001061688900B0FBF1F7FDF72AFFFD
:1035D00000EBC00101EB001061688900B0FBF1F065
:1035E000B0FBF5F06FF01801484307EB800006EBE5
:1035F0000010B0FBF5F000F0F007FDF713FF00EB53
:10360000C00101EB001061688900B0FBF1F0B0FB74
:10361000F5F007EB0017FDF705FF00EBC00101EB2C
:10362000001061688900B0FBF1F8FDF7FBFE00EBCC
:10363000C00101EB001061688900B0FBF1F0B0FB44
:10364000F5F06FF01801484308EB800006EB00101E
:10365000B0FBF5F0216800F00F0038448860A9E75E
:103660000038014090F83910212901D0022070471C
:103670008168B1F5805F0CD0016A4A1C0262026861
:1036800009785160C18C491E0904090CC18410D00D
:1036900019E0016A02680988C1F3080151600169F3
:1036A00019B1016A491C0162ECE7016A891C0162D7
:1036B000E8E70168CA6822F08002CA600068C16851
:1036C00041F04001C160002070472DE9F0410446FF
:1036D0000E4617469846069D1DE0681C1BD02DB16E
:1036E000FDF748FAA0EB0800A84214D92068C16889
:1036F00021F4D071C1602068416921F0010141616C
:10370000202084F8390084F83A00002084F838003A
:103710000320BDE8F0812068006836EA000004D08C
:103720000020B842D9D00020F3E70120F9E70000DB
:103730000148FEF719BC00009C020020FEE70000D3
:103740007FB50546002003900846FFF7C3FC0390B1
:10375000194C03AAE18B606ACDE9002102906089CF
:103760004FF6FF7101EA4001238C2A461348FDF70A
:103770000DFCA07040F6FF754FF47A7468B110A18B
:10378000124800F02FF823222B4610491048FEF76C
:10379000DAFC2046FDF7D8F8F1E70EA10B4800F05F
:1037A00021F823222B4609490948FEF7CCFC204684
:1037B000FDF7CAF87FBD000004000020580100207A
:1037C0004552524F52200D0A00000000C400002054
:1037D0009C0200205345542054494D45200D0A00B9
:1037E000FEE700000FB4084B10B504A902AA039825
:1037F00000F0DEF8044602A9002000F070FC20462C
:1038000010BC5DF814FB0000DF40000802E008C8AF
:10381000121F08C1002AFAD170477047002001E04A
:1038200001C1121F002AFBD1704700002DE9FF5F84
:1038300082B00021DDE90430020DDDF840B0034321
:1038400018D044F61050A2F2FF32424315141198DA
:1038500001281FD0A5EB0B00401C5FEA000A4FF0C7
:1038600000064E4FDFF83891B046504615D5CAF1E4
:10387000000413E0119801244AA3012801D16FEA42
:103880000B010298119AC0E90031C0E9024206B06A
:10389000BDE8F09FCBF10000DFE704460021404A7D
:1038A000491842EB0450CDE9001012E0E00707D0C0
:1038B00032463B4640464946FCF71BFD804689465A
:1038C00032463B4610461946FCF713FD06460F46A6
:1038D0006410002CEAD1DDE90401DDE90023BAF12E
:1038E000000F06DAFCF705FD42464B46FCF701FDEA
:1038F00005E0FCF770FD42464B46FCF76CFD0446C4
:103900000E460022284BFCF777FE03D84FF0FF301D
:10391000014607E00022254B20463146FCF742FCD9
:10392000FCF79AFF102409E0002C0ADB0A2200238E
:10393000FCF7ACFE039B30321A55641E50EA0102BC
:10394000F2D1641C039AC4F111031444119A012AA0
:1039500003D0012208430DD10AE0084304D000201F
:103960004FF0110B119072E7A3EB0B056D1E0DE0EC
:103970005B4504DD4FF0000205F1010504E003DAC8
:103980004FF00002A5F10105002AECD00298119930
:10399000C0E90231C0E9004579E7000000001440A9
:1039A0000000F03F300000000000F0430000E03F66
:1039B0002DE9FF4F95B09B468946064600250FE24C
:1039C000252877D100242746F84A0121059400E0F4
:1039D000044316F8013F203B01FA03F01042F7D1EF
:1039E00030782A2811D06FF02F033078A0F1300200
:1039F000092A16D8059A44F0020402EB820203EB6E
:103A000042021044761C0590EFE759F8042B05920A
:103A1000002A03DA504244F40054059044F00204B2
:103A2000761C30782E2816D116F8010F44F00404C5
:103A30002A280DD06FF02F023078A0F13003092B27
:103A400009D807EB870302EB4303C718761CF3E79B
:103A500059F8047B761C30786C280FD006DC4C2893
:103A600017D068280DD06A2814D104E0742810D02B
:103A70007A280FD10DE044F400140AE044F48014D5
:103A800001E044F440147278824202D104F58014BB
:103A9000761C761C307866280BD013DC582877D03B
:103AA00009DC002875D04528F6D04628F4D04728F0
:103AB0001AD19DE118E0632835D0642879D06528B3
:103AC00012D195E1702873D008DC6728F1D06928FD
:103AD0006FD06E280DD06F2806D1B5E073282CD09A
:103AE000752875D0782874D05A46179990476D1C60
:103AF00075E1C4F30250022809D003280DD0D9F88B
:103B0000001004280DD00D6009F1040967E1D9F80F
:103B10000010EA17C1E90052F6E7D9F800100D804D
:103B2000F2E70D70F0E719F8041B8DF80010002083
:103B30008DF80100EA46012003E059F804AB4FF08C
:103B4000FF3061074FF0000102D40DE008F10101E0
:103B50008846B9420FDA8045F8DB1AF808100029C8
:103B6000F4D108E008F1010188468142FADB1AF835
:103B700008100029F6D105985B46A0EB08072146FE
:103B80003846179A00F094FA284400EB080507E03D
:103B90004DE029E10DE01AF8010B5A4617999047BC
:103BA000B8F10108F7D25B4621463846179A13E16F
:103BB00042E00A220092C4F302524FF0000A022AA5
:103BC00008D059F804CB032A4FEAEC710AD00DE073
:103BD00029E02AE009F1070121F00702F2E802C119
:103BE000914609E00FFA8CFC4FEAEC71042A03D1EC
:103BF0004FFA8CFC4FEAEC71002907DA0A460021E3
:103C0000DCF1000C61EB02012D2202E0220504D55B
:103C10002B228DF80420012203E0E20701D02022AC
:103C2000F7E7904659E00A2102E010220DE010214A
:103C30004FF0000A00910BE010224FF0000A44F010
:103C400004040827009203E008224FF0000A0092C3
:103C5000C4F30252022A05D059F804CB0021032AEA
:103C600008D009E009F1070121F00702F2E802C1DA
:103C7000914605E01FFA8CFC042A01D10CF0FF0CE0
:103C80004FF00008220728D5702806D0009B83F04B
:103C9000100353EA0A0305D00EE040228DF80420F9
:103CA000012208E05CEA010206D030228DF80420EF
:103CB0008DF8050002229046009B83F0080353EA2A
:103CC0000A030AD15CEA010201D1620705D530225C
:103CD0008DF804204FF001087F1E582804D034A02E
:103CE00003900EA802900DE036A0F9E75346604617
:103CF000009AFCF7CBFC84460398825C0298401E35
:103D0000029002705CEA0100F0D1029806A9081A3C
:103D100000F1200A600702D524F4803400E0012776
:103D2000574502DDA7EB0A0000E0002000EB0A0186
:103D3000009005984144401A0590E00306D45B4684
:103D40002146179A059800F0B3F90544002706E0CC
:103D500001A85A46C05D179990476D1C7F1C4745C6
:103D6000F6DBE0030CD55B462146179A059800F078
:103D70009FF9054404E030205A46179990476D1C7E
:103D80000099481E00900029F5DC08E0029802998D
:103D90005A460078491C0291179990476D1CBAF158
:103DA0000001AAF1010AF1DC65E100000928010027
:103DB00030313233343536373839616263646566A1
:103DC0000000000030313233343536373839414263
:103DD000434445460000000000F058F90544761CB5
:103DE000307800287FF4ECAD19B02846BDE8F08F9C
:103DF000620700D4062709F1070222F0070CFCE84D
:103E00000223E14603F000485FEA080C02D00FF2FB
:103E1000702C0DE05FEA045C02D50FF2682C07E01D
:103E20005FEAC47C02D00FF2602C01E0AFF2700CAC
:103E30004FF0FF3823F00043CDF850C065280CD078
:103E400006DC452809D046281DD047283DD13DE055
:103E5000662818D067287ED138E00021112F01DBB9
:103E6000112000E0781CCDE9000106A90EA8FFF79B
:103E7000DDFCDDE90F010E9A03910021009207F1AC
:103E8000010A04914DE04FF000400097CDE9011088
:103E900006A90EA8FFF7CAFCDDE90F0203920E9BEC
:103EA00011990022DDF80CA00093049211B9791C3D
:103EB00000EB010AB7EB0A0004D4C0F1FF3007F1B0
:103EC000010A0490AAEB0700019044E0012F00DAF8
:103ED00001270021112F01DD112000E03846CDE936
:103EE000000106A90EA8FFF7A1FCDDE90F010E9A5B
:103EF0000391002104910092BA4621070CD4039942
:103F0000514500DA8A46BAF1010F05DD009AAAF19F
:103F10000101515C302908D0B84202DA10F1040FD7
:103F200006DA0121CDE9011015E0AAF10101E9E766
:103F3000002805DC049901440491AAEB000102E089
:103F4000411C514500DD8A460499401A401C0190ED
:103F50004FF000400290200704D40198504501DB47
:103F6000CDF8048000208DF84F0002980DF14F0726
:103F7000B0F1004F25D02B200E9002984FF0020890
:103F800000280CDA404202902D200E9007E00A2112
:103F90000298FCF765FB3031029007F8011DB8F17B
:103FA0000001A8F10108F2DC02980028EFD1791E87
:103FB0000E980870307800F0200040F0450007F8B7
:103FC000020D12A8C01B00F107081498007800B178
:103FD000012000EB0A01019801EBE07105984144D2
:103FE000401A401E0590E00306D45B462146179A0E
:103FF000059800F05DF805441498007818B15A4609
:10400000179990476D1CE00324D55B462146179A0B
:10401000059800F04DF805441CE00498002807DBE3
:10402000DDE90301884203DD0098405C179901E057
:10403000179930205A469047049805F10105401C15
:1040400004900198401E019004D12E205A461799E1
:1040500090476D1CBAF10001AAF1010ADDDC05E010
:1040600017F8010B5A46179990476D1CB8F10001DB
:10407000A8F10108F4DC5B462146179A0598ABE6E7
:104080002D0000002B000000200000002DE9F04171
:10409000044600251E461746880404D405E0394628
:1040A0002020B0476D1C641EF9D52846BDE8F0817C
:1040B0002DE9F041044600251E469046C80301D56F
:1040C000302700E02027880404D505E04146384623
:1040D000B0476D1C641EF9D52846BDE8F0810A681A
:1040E000531C0B6010707047F0B593B00746482121
:1040F00001A8FCF740F80021354D002001AB2A78DB
:1041000002E05854491CC9B29142FAD9314C32A14B
:1041100001A8226BFFF766FB46222A7040F6FF7665
:10412000334601A93048FEF70EF8216BA1F5963110
:10413000A28DB803A0EB0250B4F92E20E37802FB65
:10414000110094F9042000F580404A4359434FF48C
:104150000043921203EBE1214A43990101EBA221B2
:10416000B4F92A20C00B514301F50051891348438B
:10417000C1134943A278C9115143A0EB2110002873
:1041800000DA00204FF0C851884200DD08460013D5
:10419000FCF7A7F907463846FCF702FA6FF0090466
:1041A0002246FCF787F902460B4610A11648FFF796
:1041B00019FB3C222A70334613490B48FDF7C3FF15
:1041C00013B021463846BDE8F040FBF7DFBF0000E2
:1041D0009800002034000020745F66696E653A2004
:1041E00025640D0A000000009C02002048554D493E
:1041F000444954593A20252E31665F5F5F5F5F5F07
:104200005F5F0D0A00000000E70000202DE9F14F7C
:1042100084B0DFF83CB24FF0000A8E490020CDE9AF
:1042200002018D48006BFCF765F94FF0FF32FCF797
:1042300041F90022894BFCF756F806460F4686489E
:10424000B0F92200FCF756F904460D4632463B46CB
:1042500030463946FCF74DF822462B46FCF749F824
:104260006FF00E02FCF726F9804689467A48B0F9CD
:104270002000FCF73FF932463B46FCF73AF80122B2
:10428000FCF718F942464B46FBF78CFF80468946FF
:104290007148B0F91E00FCF72DF91022FCF70AF95D
:1042A00004460D466FF0010240464946FCF702F90C
:1042B00022462B46FBF776FF804689466648B0F9D2
:1042C0001C00FCF717F932463B46FCF712F8324661
:1042D0003B46FCF70EF86FF01202FCF7EBF80446D1
:1042E0000D465D48B0F91A00FCF704F932463B462A
:1042F000FBF7FFFF22462B46FBF754FF6FF012023D
:10430000FCF7D8F806460F465348008BFCF703F934
:1043100004460D466FF00E0230463946FCF7CAF8E7
:1043200000224F4BFBF73EFF22462B46FBF7E1FFF7
:1043300006460F460022134630463946FCF744F93C
:104340006DD00498FCF7E7F80022464BFBF7CEFF50
:1043500004460D466FF00B0240464946FCF7AAF8AA
:1043600022462B46FBF7C2FF00223F4BFBF7C1FF63
:1043700032463B46FCF72FF804460D463648B0F966
:104380002800FCF7B7F822462B46FBF7B2FF22467F
:104390002B46FBF7AEFF6FF01E02FCF78BF80646CC
:1043A0000F462D48B0F92600FCF7A4F822462B460C
:1043B000FBF79FFF6FF00E02FCF77CF88046894602
:1043C0002548B0F92400FCF795F8CDE900014246F4
:1043D0004B4630463946FBF7E5FEDDE90023FBF7A7
:1043E000E1FE6FF00302FCF765F822462B46FBF76F
:1043F000D9FE04460D4600225B4620462946FCF7BE
:10440000E3F802D254465D460BE00022114B2046F1
:104410002946FCF7F1F804D2DDE9024501E05446F3
:104420005D460022114B20462946FBF7D4FF044687
:104430000D460F4A0F4B20462946FBF75AFF04460C
:104440000D4605B020462946BDE8F04FFCF78FB871
:10445000004CDD4000DBFA40340000200040EF401B
:104460000000F03F00003041006AB84000005940B1
:104470009911DE1E8400E83F2DE9F04F87B0064613
:10448000DFF800914FF00008DFF8FCB0C2463F486B
:104490004089FCF740F8CDE904106FF00902FCF701
:1044A00009F804460D463046FCF735F8CDE9021010
:1044B0006FF00D02FBF7FEFF22462B46FBF713FFC2
:1044C00006460F463148B0F91000FCF713F83246A3
:1044D0003B46FBF70EFF06460F46DDE904106FF082
:1044E0000C02FBF7E7FF04460D46DDE902106FF012
:1044F0001002FBF7DFFF22462B46FBF7F4FE0446D3
:104500000D462248B0F91600FBF7F4FFCDE9000193
:1045100022462B4620462946FBF7EBFEDDE9002329
:10452000FBF7E7FE04460D4622462B463046394649
:10453000FBF738FE0D460446FBF7FAFF1349086304
:10454000204629460022124BFBF745FF04460D4644
:1045500000224B4620462946FCF736F802D2444654
:104560004D4608E00022084B20462946FCF744F857
:1045700001D254465D4607B020462946BDE8F04FBB
:10458000FCF752B8000044C0004055403400002001
:104590000000B44010B5002821D0114B0022001FAC
:1045A000196803E0814203D80A4649680029F9D115
:1045B00052B11368841A9C4204D1006818441060F8
:1045C000104602E0506000E0186039B102680B1A32
:1045D000934203D10B681A4402604968416010BDE0
:1045E000BC0000202DE9F04FADF55D7D01204FF4BA
:1045F0007A7ACDE9010AFD4903460091D022EC21E7
:10460000FB48FCF765FBDFF8E493A9F1010989F8A1
:10461000000000B1012099F80110602901D00121AA
:1046200000E00021F34D08434FF03C0440F6FF77D3
:1046300020D124E0F0A1FC48FFF7D4F822462C70EA
:104640003B46F949F948FDF77EFD5046FCF77CF9F9
:1046500099F8010060280DD0F5A1F348FFF7C2F8E2
:1046600022462C703B46F049F048FDF76CFD504661
:10467000FCF76AF999F800000028E9D0DAE7F2A11E
:10468000E948FFF7AFF83C222A703B46E649E74885
:10469000FDF759FD1821D7A8FBF76DFD1821D7A804
:1046A0008DE8030401238822EC21D148FCF710FB9C
:1046B00089F8000000210DF5177B88460BF8018072
:1046C000491C89B2FF29F9D9FF20CDE900B00123A7
:1046D0008822EC21CDF808A0C548FCF7F9FA89F842
:1046E00000002822DE498DA8FBF72CFD0024282697
:1046F0001BF804302246DBA18DA8FFF773F8324681
:104700002E703B468DA9C948FDF71DFD641CA4B25F
:10471000FF2CEDD94CF25030FCF716F900240DF5C2
:10472000577B2822CE49283101A8FBF70BFD052C29
:104730000FD81BF804302246CFA101A8FFF752F88A
:1047400032462E7040F6FF7301A9B848FDF7FBFC16
:104750000EE01BF804302246CFA101A8FFF742F873
:1047600032462E7040F6FF7301A9B048FDF7EBFC0E
:10477000641CA4B2182CD4D94FF4FA60FCF7E4F806
:104780009DF85C03A9F806009DF85D13A9F80810D0
:1047900040EA0120A9F80A009DF85E03A9F80C0080
:1047A0009DF85F13A9F80E1040EA0120A9F8100047
:1047B0009DF86003A9F812009DF86113A9F8141080
:1047C00040EA0120A9F816009DF862039DF86313E2
:1047D00040EA0120A9F818009DF864139DF86503CC
:1047E00041EA0020A9F81A009DF866039DF86713B6
:1047F00040EA0120A9F81C009DF868139DF86903A0
:1048000041EA0020A9F81E009DF86A039DF86B1389
:1048100040EA0120A9F820009DF86C039DF86D1373
:1048200040EA0120A9F822009DF86E039DF86F135D
:1048300040EA0120A9F824009DF870039DF8711347
:1048400040EA0120A9F826009DF872139DF8730331
:1048500041EA0020A9F82800CDF8308201278CA871
:104860008DE881043B46A122EC216148FCF730FA37
:1048700089F8000028227A49503182A8FBF762FCAF
:104880009DF830228CA182A8FEF7ACFF32462E7034
:1048900040F6FF7382A96548FDF755FC0720CDE976
:1048A000010A80AE0123E122EC2100965048FCF77A
:1048B0000FFA89F8000001244FF01E0B20226849EE
:1048C000783103A8FBF73EFC335D224682A103A8A2
:1048D000FEF788FF5A4685F800B040F6FF7303A93B
:1048E0005248FDF730FC641CA4B2082CE6D94FF402
:1048F000FA60FCF729F8CDF8FC817FA88DE88104E7
:104900000123A122EC213A48FCF7E2F989F80000E2
:104910009DF8FC0189F80200CDF8F88102247EA8F8
:104920008DE811040123E122EC213148FCF7D0F994
:1049300089F800009DF8F8019DF8F91140EA01207E
:10494000A9F82A00CDF8F4817DA88DE8810401231F
:10495000E322EC212648FCF7BBF989F800009DF81A
:10496000F40189F80300CDF8F0817CA88DE81104EA
:104970000123E422EC211E48FCF7AAF989F8000083
:104980009DF8F0119DF8F10161F31F10A9F82C00BA
:10499000CDF8EC817BA88DE811040123E522EC2100
:1049A0001348FCF795F989F800009DF85D039DF820
:1049B0005C13000140EA1110A9F82E00CDF8E8813F
:1049C0007AA88DE881040123E722EC210848FCF74E
:1049D0007FF989F800009DF8E80189F8040046A1F4
:1049E0001148FEF7FFFE3C242C7099E035000020B2
:1049F00058010020980000204552524F5220434F4A
:104A00004E4E45435420544F20424D4532383020BD
:104A100021212120535441545553213D48414C5F9D
:104A20004F4B0D0A00000000E70000209C02002010
:104A3000424D45323830206E6F7420666F756E645B
:104A4000202121210D0A0000434F4E4E45435420A2
:104A5000544F20424D45323830204F4B0D0A000054
:104A6000F06900085245473A5B25645D3A20257895
:104A700020200D0A0000000063616C6C69627261A5
:104A800074696F6E20646174615F545B25645D3A84
:104A900020257820200D0A0063616C6C69627261C8
:104AA00074696F6E20646174615F505B25645D3A68
:104AB00020257820200D0A0063616C6C69627261A8
:104AC00074696F6E20646174615F48203078413191
:104AD0003A202578200D0A0063616C6C696272616E
:104AE00074696F6E20646174615F483A25643A208E
:104AF000257820200D0A000043414C494252415480
:104B00004520444154413D3D3D3D3D3D3D3D3D3DC4
:104B10003D3D3D3D3D3D3D3D3D3D0D0A000000001C
:104B200040F6FF7B5B462246A049A148FDF70BFB00
:104B30003C216BA8FBF71FFBB9F916000090B9F9EF
:104B40001030B9F80A209BA16BA8FEF74BFE2C7021
:104B50005B4622466BA99648FDF7F5FA3C215CA816
:104B6000FBF709FBB9F91C000090B9F91A30B9F844
:104B7000182099A15CA8FEF735FE2C705B462246F2
:104B80005CA98B48FDF7DFFA3C214DA8FBF7F3FA4F
:104B9000B9F922000090B9F92030B9F91E2097A187
:104BA0004DA8FEF71FFE2C705B4622464DA980489B
:104BB000FDF7C9FA3C213EA8FBF7DDFAB9F9280058
:104BC0000090B9F92630B9F9242095A13EA8FEF746
:104BD00009FE2C705B4622463EA97548FDF7B3FAE4
:104BE0003C212FA8FBF7C7FA99F803000090B9F908
:104BF0002A3099F8022093A12FA8FEF7F3FD2C701C
:104C00005B4622462FA96A48FDF79DFA3C2120A861
:104C1000FBF7B1FA99F904000090B9F92E30B9F90F
:104C20002C2091A120A8FEF7DDFD2C705B462246CA
:104C300020A95F48FDF787FA3C2111A8FBF79BFAF2
:104C400092A111A8FEF7CEFD2C705B46224611A959
:104C50005748FDF778FA5046FBF776FECDF84080CE
:104C600010AE8DE8C0040123F522EC219248FCF738
:104C70002FF889F800009DF8400000F0030040F094
:104C8000200010908DE8C0040123F522EC218A4811
:104C9000FCF77CF989F80000CDF83C800FA88DE87E
:104CA00081040123F522EC218348FCF711F889F8EF
:104CB0000000CDF83880CDF834800DAE8DE8C0040A
:104CC0000123F422EC217C48FCF702F889F800006B
:104CD0009DF8340040F027000D908DE8C0040123BA
:104CE000F422EC217448FCF751F989F800000EA871
:104CF0008DE881040123F422EC216F48FBF7E8FFE3
:104D000089F80000CDF830800CAE8DE8C004012396
:104D1000F222EC216848FBF7DBFF89F800009DF8E0
:104D2000300000F0070040F002000C908DE8C00455
:104D30000123F222EC216048FCF728F989F80000F1
:104D4000CDF82C800BA88DE881040123F222EC2100
:104D50005948FBF7BDFF89F800009DF82C00009032
:104D60009DF838309DF83C2054A11048FEF73AFDDC
:104D70002C705B4622460D490D48FDF7E4F999F881
:104D8000000000280ED0AFF290310848FEF72AFD4F
:104D900022462C705B4605490548FDF7D4F950467C
:104DA000FBF7D2FD0DF55D7DBDE8F08FE70000203B
:104DB0009C0200206469675F54313A25642C2064AA
:104DC00069675F54323A25642C206469675F543305
:104DD0003A25640D0A0000006469675F50313A2586
:104DE000642C206469675F50323A25642C20646922
:104DF000675F50333A25640D0A0000006469675FFD
:104E000050343A25642C206469675F50353A256434
:104E10002C206469675F50363A25640D0A00000053
:104E20006469675F50373A25642C206469675F5076
:104E3000383A25642C206469675F50393A25640D3F
:104E40000A0000006469675F48313A25642C2064D9
:104E500069675F48323A25642C206469675F48338C
:104E60003A25640D0A0000006469675F48343A25FA
:104E7000642C206469675F48353A25642C20646996
:104E8000675F48363A25640D0A000000454E44200D
:104E900043414C49425241544520444154413D3DD7
:104EA0003D3D3D3D3D3D3D3D3D3D3D3D3D3D3D3D32
:104EB0003D3D0D0A0D0A000058010020434F4E46AB
:104EC00049473D307825782C20204354524C5F4D83
:104ED0004541533D307825782C204354524C5F484F
:104EE000554D3D307825780D0A0000007CB5FDF762
:104EF0008DFD0320FDF7F2FE0020FDF773FD2CA1D0
:104F00002C48FEF76FFC002503241F23B72207213E
:104F10002848CDE90045FDF741FD27A12548FEF7CA
:104F200061FC1F23D52207212248CDE90045FDF76A
:104F300035FD22A11F48FEF755FC1F239A220721A9
:104F40001C48CDE90045FDF729FD1F2403238F22CE
:104F5000972100200094FDF7F1FC03238F22B42158
:104F600000200094FDF7EAFC03238F22D2210020C9
:104F70000094FDF7E3FC03238F22ED210020009431
:104F8000FDF7DCFC5A230322972100200094FDF753
:104F9000D5FC5A230322972123200094FDF7CEFC51
:104FA0005A23032297218C200094FDF7C7FC7CBD77
:104FB000543A00002D010020483A0000503A000009
:104FC00008B5FCF7BDF8FEF70BF9FDF7F3FEFEF7A9
:104FD00035F8FDF775FFFDF79BFFFDF7F1FFFDF7D6
:104FE000C3FF3148FCF770FEFFF780FFFFF7FAFAC6
:104FF00000F052FB00F034FC2C4E306900F036F922
:1050000040F2B6384046FBF79FFC00F045FB00F04D
:1050100027FCF06800F02AF90024D6E90010884245
:10502000F0D101254FF4FA773846FBF78DFCD6E92D
:105030000010884204D1641CE4B2092C00D1002481
:10504000092C1CD2DFE804F01B05080B0E11141705
:105050001A0001F0FBF912E001F00AF80FE000F08D
:105060008FFE0CE000F05EFD09E000F077FC06E04A
:1050700001F008F903E001F0B9FA00E00025316819
:10508000B06888420DD10025002096234FF4AA7203
:1050900001460090FDF782FB00F0E2FB306900F072
:1050A000E5F8002DC0D1ADE75C0200207C000020B7
:1050B000F0B50B30154D20F007010024144A0FE025
:1050C00003688B420BD38B4205D95E1A431847689D
:1050D000C3E9006700E04368136002C004E0021DFA
:1050E00010680028ECD12046002802D1286808B1B9
:1050F0000020F0BD064A07481060074A121A22F045
:105100000702C0E9002401202860D7E7C000002082
:10511000BC000020E4020020E004002030B585B08F
:10512000002402940394049438480068FBF738FA8A
:1051300002460B4636A102A8FEF754FB0325CDE933
:1051400000541F23B7223C2102A8FDF727FC324858
:105150000068FBF725FA02460B462DA102A8FEF7D0
:1051600041FBCDE900541F23D5223C2102A8FDF7C5
:1051700015FC2A482AA102682A48FEF733FBCDE92C
:1051800000541F239A223C212648FDF707FC26489D
:10519000007808B325480068FBF702FA02460B4680
:1051A0001BA102A8FEF71EFBCDE900541F23B82265
:1051B0009B2102A8FDF7F2FB1D481EA1028802A850
:1051C000FEF710FBCDE900541F23D522A52102A82C
:1051D000FDF7E4FB05B030BD18A102A8FEF702FB05
:1051E000CDE900541F23B8229B2102A8FDF7D6FB6E
:1051F00012A102A8FEF7F6FACDE900541F23D5222A
:10520000A52102A8FDF7CAFBE4E70000700000201A
:10521000252E316600000000740000207800002078
:10522000256400002D0100200400002068000020FB
:105230006C0000202564252500000000202020208F
:10524000000000003EB50024029407A102A8FEF76A
:10525000C9FA0A20CDE900044FF4FC6300228C2136
:1052600002A8FDF79BFB3EBD3A00000010B50446C6
:1052700018480068844214D100F0B6F91648C07886
:1052800078B9FFF7DFFF00F037F900F0E9F800F038
:1052900087F800F025F800F06FF900F0D3F9FFF778
:1052A0003DFF0E480068844213D1FFF7CBFF00F0AA
:1052B0009BF900F021F900F0D3F800F071F800F04C
:1052C0000FF800F059F900F0BDF9BDE81040FFF704
:1052D00025BF10BD88000020040000208C000020A5
:1052E00070B586B00024039404940594294E0625D5
:1052F000F2790A2A0CD228A103A8FEF773FACDE9A5
:1053000000541F236422142103A8FDF747FB0BE080
:1053100021A103A8FEF766FACDE900541F236422F9
:10532000002103A8FDF73AFB1CA103A8FEF75AFAD7
:10533000CDE900541F2364224B2103A8FDF72EFB67
:10534000F2790A2A0CD214A103A8FEF74BFACDE990
:1053500000541F236422142103A8FDF71FFB0BE058
:105360000DA103A8FEF73EFACDE900541F236422E5
:10537000002103A8FDF712FB08A103A8FEF732FAEB
:10538000CDE900541F2364224B2103A8FDF706FB3F
:1053900006B070BD04000020256400002F0000004E
:1053A00010B586B000240394049405941B488079BA
:1053B000082827D2DFE800F02604090E13181D2262
:1053C00017A103A8FEF70EFA1CE017A103A8FEF729
:1053D00009FA17E016A103A8FEF704FA12E017A1D4
:1053E00003A8FEF7FFF90DE016A103A8FEF7FAF9EE
:1053F00008E016A103A8FEF7F5F903E016A103A83B
:10540000FEF7F0F90320CDE900044FF6E0735022D7
:10541000002103A8FDF7C2FA06B010BD0400002069
:105420004D4F4E4441590000545545534441590095
:105430005745444E45534441590000005448555384
:105440004441590046524944415900005341545582
:10545000524441590000000053554E444159000048
:10546000F0B585B000240294039404941E4E0A25DE
:105470004FF4FC67707900281CD01CA102A8FEF72D
:10548000B1F9CDE9005400223B46114602A8FDF7D0
:1054900085FA7279092A1AD915A102A8FEF7A2F98C
:1054A000CDE900543B4600220A2102A8FDF776FA16
:1054B00005B0F0BD0FA102A8FEF794F9CDE90054A4
:1054C00000223B46114602A8FDF768FAF0E708A162
:1054D00002A8FEF787F9CDE900543B4600223221AD
:1054E00002A8FDF75BFAE3E704000020202000009B
:1054F000256400003030000070B586B000240394AD
:105500000494059418480A254FF4FC660279002A91
:105510000FD00A2A1AD215A103A8FEF763F9CDE924
:10552000005433460022BE2103A8FDF737FA06B027
:1055300070BD0FA103A8FEF755F9CDE9005433461D
:105540000022BE2103A8FDF729FAF0E709A103A86C
:10555000FEF748F9CDE9005433460022BE2103A8E6
:10556000FDF71CFAE3E7000004000020302564008A
:10557000303000002564000030B585B0002402946E
:105580000394049415480625027A0A2A0CD214A121
:1055900002A8FEF727F9CDE900541F2364227821E1
:1055A00002A8FDF7FBF90BE00DA102A8FEF71AF91E
:1055B000CDE9005464221F23114602A8FDF7EEF93D
:1055C00008A102A8FEF70EF9CDE900541F236422BA
:1055D000AF2102A8FDF7E2F905B030BD04000020BC
:1055E000256400002F000000F0B585B0002402946F
:1055F00003940494104E03254FF4FC67F0780028C0
:105600000BD10EA102A8FEF7EDF8CDE900543B4600
:105610005022E62102A8FDF7C1F9F27808A102A8FC
:10562000FEF7E0F8CDE900543B465022E62102A8FF
:10563000FDF7B4F905B0F0BD040000202020000003
:105640002564000030B585B00024029403940494CE
:105650000F480625427A0A2A0DD20EA102A8FEF7AB
:10566000C1F8CDE900541F236422DC2102A8FDF714
:1056700095F905B030BD07A102A8FEF7B3F8CDE952
:1056800000541F236422C82102A8FDF787F9F0E720
:1056900004000020256400002DE9F04F87B00024AD
:1056A0000594069408210DF11408CDE900814FF40A
:1056B0007A7002900123F722EC214748FBF708FBA0
:1056C000464908700027464D464E4FF00F0A40F6F7
:1056D000FF7905F118000FC8CDE90323CDE90101D9
:1056E00018F807303A4640A101A8FEF77BF8524669
:1056F00086F800A04B4601A93F48FCF724FD7F1C1B
:10570000FFB2072FE5D99DF817009DF81810000388
:1057100040EA01109DF8191040EA111A9DF8140092
:105720009DF81510000340EA01109DF8161040EA9C
:1057300011189DF81B009DF81A1040EA012B00205B
:105740002E4D2C54401CC0B23C28FAD94346524638
:105750002BA12A48CDF800B0FEF744F83C273A4682
:1057600037704B4625492448FCF7EDFC5046FEF7C0
:1057700083FEDFF8B0A0CAF800004046FEF746FD01
:10578000DFF8A480A8F800005846FEF7ADFC2749D2
:10579000086000216C54491CC9B23C29FAD9FAF7B7
:1057A000FFFE04460D46DAF80000FAF7F9FECDE9EF
:1057B0000245B8F80020009202460B461CA10F4893
:1057C000FEF710F83A4637704B460C490A48FCF78A
:1057D000BAFC07B0BDE8F08F58010020340000206B
:1057E000706A0008980000206164635B25645D3A7C
:1057F000257820200D0A00009C020020E7000020F0
:105800006164635F543D20256420206164635F50C0
:105810003D2025642C206164635F483D2025642081
:105820000D0A0000700000207800002074000020A5
:1058300054656D70657261747572653D252E3266B2
:105840002050726561737572653D25642048756DE1
:1058500069646974793D252E31660D0A00000000E7
:10586000FEB52B4C04F12805A18B606ACDE90051EF
:10587000029060894FF6FF7101EA4001238C628B30
:105880002448FBF725FAA07000B1FEE72878FDF761
:105890002CFCE0706878FDF728FC2071A878FDF7F3
:1058A00024FC6071E878FDF720FCA0712879FDF7F1
:1058B0001CFCE071687900F01F00FDF716FC2072F7
:1058C000A879FDF712FC6072607900902379E27884
:1058D00011A11748FDF786FF232540F6FF763346D2
:1058E0002A4613491348FCF72EFC607A217ACDE949
:1058F0000010E379A27910A10D48FDF773FF03B002
:1059000033462A46BDE8F04009490A48FCF71BBC6B
:1059100004000020580100205345433A2564204DDF
:10592000494E3A256420484F55523A25640D0A00E5
:10593000C40000209C0200204441593A25642044C0
:105940004154453A2564204D4F554E543A25642024
:10595000594541523A2564200D0A00002DE9FC5FAB
:105960005BA15E48FDF73EFF5D480A22027040F6EB
:10597000FF735A495B48FCF7E6FBDFF86CA1002691
:1059800006279AF80720DFF864914FF478480A2A2E
:1059900018D257A15748FDF725FFCDE900781F23FE
:1059A000642214215348FCF7F9FFD9F80000FAF7F4
:1059B000CBFFCDE900761F23642214214D48FCF76C
:1059C000EDFF17E04AA14B48FDF70CFFCDE9007849
:1059D0001F23642200214748FCF7E0FFD9F80000AC
:1059E000FAF7B2FFCDE900761F2364220021414877
:1059F000FCF7D4FF4048414902680B689A4264D1E1
:105A000001240125DFF8F8908B4622463DA133485A
:105A1000FDF7E8FE32480A2202704FF6FF732F4965
:105A20003048FCF790FB3AA13A48FDF7DBFE0A2C20
:105A300015D2CDE900761F23642200213548FCF7FA
:105A4000ADFF22462AA12B48FDF7CCFECDE9007818
:105A50001F23642214212748FCF7A0FF0CE02246F4
:105A600023A12448FDF7BEFECDE900781F23642260
:105A700000212048FCF792FF1C480068FAF764FFF9
:105A80001D480168DBF80000814207D1641CE4B2C4
:105A9000214909788C4201D999F800401F490968C9
:105AA000814206D1641EE4B299F800108C4200D203
:105AB0000C461B490968814205D100252146BAF8E8
:105AC0001400FDF73DFE002D9FD1BDE8FC9F0000B6
:105AD00053455420444154450D0A00002301002041
