:020000040800F2
:1000000070090020010100088B340008C524000895
:10001000893400085D0B00083D3B0008000000002B
:10002000000000000000000000000000D1350008C2
:100030005F0B000800000000AD340008D335000855
:100040001B0100081B0100081B0100081B01000820
:100050001B0100081B0100081B0100081B01000810
:100060001B0100081B0100081B0100081B01000800
:100070001B0100081B0100081B0100081B010008F0
:100080001B0100081B0100081B0100081B010008E0
:100090001B0100081B0100081B0100081B010008D0
:1000A0001B0100081B0100081B0100081B010008C0
:1000B000B13600081B0100081B0100081B010008E5
:1000C0001B0100081B0100081B010008FD3400088B
:1000D0001B010008313B00081B0100081B01000840
:1000E0001B0100081B0100081B010008DFF80CD0F1
:1000F00000F0F0FB00480047FD47000870090020B1
:100100000648804706480047FEE7FEE7FEE7FEE7B1
:10011000FEE7FEE7FEE7FEE7FEE7FEE769360008DA
:10012000ED0000082DE9F0410024061B254671F181
:10013000000605DA01240027D0EB070067EB010178
:10014000161E73F1000605DA0027D2EB070201251F
:1001500067EB030300F0B3F986460E4617469C464C
:10016000AC4204D00025D0EB050E65EB010624B1AE
:100170000020D2EB000760EB030C704631463A4694
:100180006346BDE8F081202A04DB203A21FA02F020
:100190000021704721FA02F3D040C2F120029140C1
:1001A000084319467047D2B201E000F8012B491EFE
:1001B000FBD270470022F6E710B513460A46044604
:1001C0001946FFF7F0FF204610BDF0B480EA0102A7
:1001D000D40F4200B2EB410F02D20246084611464C
:1001E0004A0042D0C30DDDB2C1F3C752AD1A202D73
:1001F00035DAC1F3160141F4000204B15242C5F1EF
:10020000200602FA06F12A411044B3EBD05F23D056
:10021000C4B1012DA0EBC35009DCF0BC4FF000428B
:1002200002EAC352DBB200F5000000F082B94000E0
:1002300000F1807000EBC350A0F1807040EAD170F3
:10024000490009E0490841EAC071A0EBC35000F53C
:100250000000400800EBC350F0BC00F061B96142FF
:10026000012202EB4101001BF6E7F0BC704781F070
:100270000041AAE780F00040A7E780EA010210B53C
:1002800002F00043400022D04A001FD0010E01EBD3
:100290001261C0F35600C2F3560240F4000042F46B
:1002A0000002A0FB022000047F39140400D0401C8F
:1002B00050EA124001D44000491EC2B20C0604EBC1
:1002C000D010401C4008802A02D003E0002010BD5E
:1002D00020F00100002900DA0020184310BD420080
:1002E00005D0C0F3C7525242914201DC0020704752
:1002F00000EBC15070472DE9FE4F81EA030404F082
:10030000004421F0004100944FF0000B23F0004323
:1003100050EA01045ED052EA03045BD0C3F30A54EE
:10032000C1F30A552C44A4F2F3340194A0FB025407
:10033000C1F3130141F48011C3F3130343F4801399
:1003400001FB024400FB034E840A970A44EA8154ED
:1003500047EA8357A4FB076802958D0A05FB0785CA
:100360004FEA932C04FB0C542705029D4FEA0658D4
:1003700047EA1637B5EB08056EEB070C870E920EB1
:1003800047EA811742EA8312A7FB0201B6EB0B0191
:1003900064EB00042B0D43EA0C335E1844EB1C5055
:1003A000DA465146E7FB0201C5F313044FEA0B336B
:1003B00043EA14534FEA0432019C43EA0603A4F1D2
:1003C0000C040294009CCDE900B400F0EFF803B0F7
:1003D000BDE8F08F00200146F9E7C10F80EAE07028
:1003E0000844CA079623002100F0A3B80EB540F2D6
:1003F000334102910021CDE900110A460B4600F07D
:10040000D5F803B000BD00F0004220F00040C10D5F
:10041000C0F3160040F400007F2901DA0020704785
:10042000962903DCC1F19601C84001E09639884065
:10043000002AF4D04042704720F00040C10DC0F3C4
:10044000160040F400007F2901DA00207047962949
:1004500003DCC1F19601C840704796398840704767
:10046000C1F30A5210B5C1F3130140F2FF3341F456
:1004700080119A4201DA002010BD40F233439A42C3
:10048000A2F2334203DC5242FFF77DFE10BD9040E2
:1004900010BD30B50B46014600202022012409E0A2
:1004A00021FA02F59D4205D303FA02F5491B04FA2D
:1004B00002F52844151EA2F10102F1DC30BD2DE940
:1004C000F05F0546002092469B46884606468146D8
:1004D00040241BE02846414647462246FFF753FE8C
:1004E00053465A46C01A914110D311461846224627
:1004F00000F002FA2D1A67EB01084F462246012050
:10050000002100F0F9F917EB00094E41201EA4F17B
:100510000104DFDC484631462A464346BDE8F09FE9
:100520000029A8BF7047401C490008BF20F0010007
:10053000704710B4B0FA80FC00FA0CF050EA0104E5
:1005400004BF10BC704749B1CCF1200421FA04F477
:1005500011FA0CF118BF012121430843A3EB0C0150
:10056000CB1D4FEA00614FEA102042BF002010BCB3
:10057000704700EBC35010440029A4BF10BC704763
:10058000401C490008BF20F0010010BC704710B5A6
:10059000141E73F1000408DA401C41F100019218A6
:1005A0005B411A4301D120F0010010BD2DE9F04D4F
:1005B00092469B4611B1B1FA81F202E0B0FA80F2A4
:1005C0002032904600F098F904460F4640EA0A00AF
:1005D00041EA0B0153465A46084313D0114653EAE9
:1005E000010019D0C8F140025046FFF7CCFD054686
:1005F0000E4650465946424600F07EF9084305D063
:10060000012004E020463946BDE8F08D0020054376
:1006100046EAE0762C4337430A986305E40AA0EBE8
:1006200008000022FD0A44EA47540A3002D500209F
:100630000146E9E7010510196941DDE9084500199E
:100640006941BDE8F04DA2E72DE9FE4F804681EA01
:100650000300C00F0C46009021F0004123F000453C
:10066000B8EB0200A94105D24046214690461C46FF
:100670000B46024623F00040104347D0270DC7F336
:100680000A00C3F30A510290401A019040286BDA25
:10069000C3F3130040F4801B0098924620B100235E
:1006A000D2EB030A63EB0B0B01985946C0F14002F1
:1006B000504600F021F906460D4650465946019A2B
:1006C00000F029F910EB08006141002487EA11527B
:1006D00084EAE7731A4340D0009A62B3019A012A70
:1006E0004FEA075215DC001B61EB02014FF000429C
:1006F00002EA0752CDE90042001C41F58011324662
:100700002B46FFF753FF03B0BDE8F08F404621466C
:10071000F9E7001B61EB0201001C41F58013001892
:100720005B412018A2F5001747EB030140EAD570A2
:10073000B6196D4111E06D084FEA360645EAC075FD
:100740004FEA0752001B61EB0201001C41F58011CA
:1007500049084FEA30000019514132462B4603B098
:10076000BDE8F04FFFF713BF0098012240000023BF
:10077000D0EB020263EBE073009821464FEAE0748D
:10078000B8EB000061EB0401E9E783F000435BE7AD
:1007900081F0004158E72DE9F04D81EA030404F0AF
:1007A000004B21F0004514464FF0000A23F00041B1
:1007B00050EA050220D054EA01021DD0C5F30A57C1
:1007C0000246C5F31303C1F31300C1F30A5640F404
:1007D000801543F48013A7EB0608101BD64608F2D9
:1007E000FD3873EB050002D308F1010801E092180F
:1007F0005B41B8F1000F03DA00200146BDE8F08D3F
:1008000000204FF48011064684460EE0171B73EB60
:10081000050705D3121B63EB050306434CEA010CE5
:1008200049084FEA300092185B4150EA0107EDD1C8
:1008300052EA030012D082EA040083EA0501084369
:1008400005D0101BAB4106D20122002306E0002296
:100850004FF0004302E06FF0010253101AEB060064
:100860004CEB085110EB0A0041EB0B01BDE8F04DD9
:10087000FFF78DBEC1F30A52C1F3130140F2FF33FB
:1008800041F480119A4202DA00200146704740F29A
:1008900033439A42A2F2334202DC5242FFF773BC66
:1008A00000F02AB830B5041E71F1000404DB4FF0EB
:1008B0000044404264EB0101141E73F1000405DBA7
:1008C0001C464FF00043524263EB0403994208BFB9
:1008D000904230BD064C074D06E0E06840F0010351
:1008E00094E8070098471034AC42F6D3FFF702FCB7
:1008F000A45E0008C45E0008202A04DB203A00FA47
:1009000002F1002070479140C2F1200320FA03F366
:10091000194390407047202A06DBCB17203A41FA52
:1009200002F043EAE07306E041FA02F3D040C2F17C
:100930002002914008431946704700002DE9F14F0D
:1009400082B0DFF8D0A174480190DFF8D0B1744ACA
:10095000DBF83000C117841841F1FF35A4FB041007
:1009600005FB040004FB0502BBF91600A1FB0067B0
:10097000C31702FB007001FB0307BBF91400A4FBC3
:1009800000C8C31705FB008004FB030040044FEAC6
:100990004C4340EADC309E194741BBF912004FF04E
:1009A000000818EB060647EBC007BBF91030A1FBA7
:1009B000030902FB03924FEAE37C01FB0C214FF495
:1009C00080724FF00003FFF7ADFBBBF90E20A4FBD4
:1009D00002394FEAE27C05FB029204FB0C2212036F
:1009E00042EA13521B03C41841EB0205241CBBF856
:1009F0000C1045F50042A4FB010302FB013104FB8E
:100A0000081100220223FFF78DFB04460D4654EA2D
:100A100005007DD00298C0F58010C117CB0743EACE
:100A20005003C007811B63EB070340F63542A1FB6F
:100A3000020703FB0272002601FB062122462B4619
:100A4000FFF770FB804689464FF400520023404672
:100A50004946FFF767FBBBF91C200C46A0FB023799
:100A600001FB0271D61700FB061621460246A3FBC6
:100A7000020406FB024203FB01214FF00072002337
:100A8000FFF750FB04460D46BBF91A10A1FB080303
:100A9000CA1702FB083201FB09214FF40022002390
:100AA000FFF740FB06460F4618EB040049EB050133
:100AB000801979414FF480720023FFF733FBBBF9B3
:100AC0001820D3171B0143EA1273120110EB02081E
:100AD00041EB03090222002340464946FFF722FB6F
:100AE00064220346A3FB020501FB0251002403FB21
:100AF000041180222346FFF715FB504503D25046D0
:100B0000BDE8FE8F04E001998842F9D90198F7E722
:100B10005046F5E7C0C62D00C0D8A700340000201D
:100B2000000CFEFF10B50C4AC310D188B2F9084082
:100B3000A3EB41036343DB12C1EB20104043B2F946
:100B40000A100013484380131844106300EB800020
:100B50008030001210BD000034000020FEE7704716
:100B600010B5002490F82110022903D004218163DC
:100B700001243DE001680A6822F00E020A60016863
:100B80000A6822F001020A601A4A0168914201D102
:100B9000012121E0174A1432914201D110211BE0BA
:100BA000144A2832914201D1891515E0114A3C328C
:100BB000914201D189140FE00E4A5032914202D184
:100BC0004FF4803108E00B4A6432914202D14FF475
:100BD000801101E04FF08071064A083A516001210E
:100BE00080F82110002180F82010416B01B1884766
:100BF000204610BD0800024070B5044600F012F90E
:100C00000546601C02D004480078044400F00AF94C
:100C1000401BA042FAD370BDAC0000202DE9F84F74
:100C200000230024DFF8C0914FF00F0809F1040AF7
:100C30000AF1040B0BF1040E0127A7400A683A40A1
:100C4000BA4275D1DFF8A4C14D68A5EB0C06654525
:100C50002BD00DDC032D34D005DC35B3012D19D09C
:100C6000022D2FD11BE0112D16D0122D2AD119E003
:100C7000B6F5881F19D006DCB6F5803F15D0B6F55D
:100C8000801F1FD111E0B6F5001F0ED0B6F5041F6E
:100C900018D10AE0CB6815E0CB681B1D12E0CB68C9
:100CA00008330FE0CB680C330CE08B6823B1012BC9
:100CB00004D00823476105E0042303E0082307610B
:100CC00000E00023FF2A01D8054601E000F10405F9
:100CD00002D84FEA840603E0A4F108064FEA86062C
:100CE0002F6808FA06FC27EA0C0703FA06F647EA1B
:100CF00006072F604D68ED0070D53D4DAE6946F09A
:100D00000106AE61AD6905F001050095394D24F08D
:100D100003067719BE68A5072D0F08FA05FC26EA19
:100D20000C06DFF8D4C0604503D14FF0000C17E08B
:100D300054E0DFF8C8C0604502D14FF0010C0FE06D
:100D4000DFF8BCC0604502D14FF0020C08E0DFF8CC
:100D5000B4C0604502D14FF0030C01E04FF0040C29
:100D60000CFA05FC4CEA060CC7F808C04D68ED0308
:100D700005D5D9F800501543C9F8005004E0D9F85A
:100D800000509543C9F800504D68AD0305D5DAF819
:100D900000501543CAF8005004E0DAF800509543BB
:100DA000CAF800504D68ED0205D5DBF80050154338
:100DB000CBF8005004E0DBF800509543CBF800502E
:100DC0004D68AD0205D5DEF800501543CEF8005051
:100DD00004E0DEF800509543CEF80050641C102C5F
:100DE000FFF42AAFBDE8F88F0004014000001110A5
:100DF000001002400000014000080140000C0140CA
:100E000000100140001401408068084201D0012018
:100E1000704700207047002A01D001617047090423
:100E2000016170470148806870470000AC000020F5
:100E300070B50446002C04D094F83D00002510B194
:100E400006E0012070BD84F83C50204600F0A6FA70
:100E5000242084F83D002068016821F00101016030
:100E600000F038FC424A6168914203D84149884207
:100E700003D304E04049884201D2012070BD3F49BC
:100E8000B0FBF1F1236859606368934201D8491CB3
:100E900007E04FF4967359434FF47A73B1FBF3F1C3
:100EA000491C236819626168914210D84900401EAC
:100EB000B0FBF1F2521CC2F30B02042A01D204204F
:100EC00022E0B0FBF1F0401CC0F30B001CE0A26874
:100ED000CAB301EBC10303EB0116431EB3FBF6F3E8
:100EE0005B1C43F480431B0536D06AB301EBC1029F
:100EF00002EB0111401EB0FBF1F0401CC0F30B00EF
:100F000040F4804040F400402168C861D4E9070102
:100F1000084321680860D4E9031008432168886009
:100F2000D4E9050108432168C8602068016841F0E0
:100F3000010101602564202084F83D00256384F8C8
:100F40003E50002070BD00E008E001EB4106431E6A
:100F5000B3FBF6F35B1CC6E70120D5E701EB4101CB
:100F6000401EB0FBF1F0401CC0F30B00CAE70000CC
:100F7000A086010080841E0000093D0040420F0051
:100F80002DE9FF4F83B00446DDE911988A46934668
:100F9000109FFFF747FF054694F83D00202803D037
:100FA000022007B0BDE8F08F19230122A049204696
:100FB000009501F0C9FB08B10220F2E794F83C006B
:100FC000012807D0012084F83C0020680168C90787
:100FD00002D005E00220E4E7016841F00101016070
:100FE0002068016821F400610160222084F83D003E
:100FF000402084F83E00002626646762A4F82A9008
:101000008C48E062608D2085CDE900855A465146C6
:101010002046069B01F06CFA50B1206C042803D0E6
:1010200084F83C600320BCE784F83C600120B8E70A
:10103000208D70B1012815D0022823D020680168C6
:1010400041F48061016020684169806902907A4FB3
:10105000E3E02068416981690291016841F400710F
:101060000160F4E72068016821F48061016072B6D4
:101070002068416981690291016841F40071016051
:1010800062B6E4E72068016841F40061016072B66D
:101090002068416981690291016821F480610160E1
:1010A00062B6D4E703286FD801280BD0022823D0DA
:1010B0004346002239462046009501F045FBE8B33F
:1010C00003206EE72A464146204601F0C1FB30B1BD
:1010D000206C202801D0012063E7032061E720680D
:1010E0000169606A421C62620170208D401E208589
:1010F000608D401E608590E04346002239462046C0
:10110000009501F021FB08B103204AE772B6206880
:10111000016841F40071016020680169606A421C45
:1011200062620170208D401E2085608D401E6085AA
:1011300062B620680169606A421C00E008E06262F1
:101140000170208D401E2085608D401E608564E00A
:101150002068016821F48061016072B6206801692D
:10116000606A421C62620170208D401E2085608D85
:10117000401E60854346002239462046009501F016
:10118000E3FA10B103200CE71EE02068016841F487
:101190000071016020680169606A421C626201702E
:1011A000208D401E2085608D401E608562B62068BF
:1011B0000169606A421C62620170208D401E2085B8
:1011C000608D401E608528E02A464146204601F099
:1011D0003FFB30B1206C202801D00120E1E6032044
:1011E000DFE620680169606A421C62620170208D3E
:1011F000401E2085608D401E608520684169C9437E
:1012000049070AD40169606A421C62620170208D3C
:10121000401E2085608D401E6085208D00287FF453
:1012200041AF20203C346070A67026700020B8E6E4
:10123000020010000000FFFF040001002DE9FF4F35
:1012400083B00446DDE910898A469346129FFFF772
:10125000E9FD054694F83D00202803D0022007B0A0
:10126000BDE8F08F192301224A492046009501F07C
:101270006BFA08B10220F2E794F83C00012807D08D
:10128000012084F83C0020680168C90702D005E00D
:101290000220E4E7016841F0010101602068016873
:1012A00021F400610160212084F83D00402084F891
:1012B0003E0000262664C4F82480A4F82A9036480C
:1012C000E062608D2085CDE900755A465146204682
:1012D000069B01F0AFF9D0B3206C042803D084F84A
:1012E0003C600320BBE784F83C600120B7E72A4656
:1012F0003946204601F0DDFA58B1206C042801D0AF
:101300000320ACE72068016841F40071016001200E
:10131000A5E7606A411C6162216800780861208D40
:10132000401E80B22085618D491E61852368596900
:10133000C94349070BD450B1606A411C616200780F
:101340001861208D401E2085608D401E6085208D97
:101350000028CCD12A463946204601F0CFF958B1B1
:10136000206C042801D0032079E72068016841F44B
:1013700000710160012072E71F3454F81F0C0168EE
:1013800041F4007101602020A077E67766770020A5
:1013900065E70000020010000000FFFF00B585B007
:1013A00000680C49884212D1C0200190122002909E
:1013B0000320049001A90848FFF730FC0748C169E1
:1013C00041F40011C161C06900F40010009005B043
:1013D00000BD000000540040000C0140001002401D
:1013E000024881680278114481607047AC00002097
:1013F00010B50748016841F010010160032000F0BA
:101400009FF8002000F006F800F026F8002010BD3C
:101410000020024070B504460D4D4FF47A712878D3
:10142000B1FBF0F00B490968B1FBF0F000F029FDC9
:1014300008B1012070BD102C07D200222146501E99
:1014400000F05EF86C60002070BD012070BD0000EF
:10145000AC000020B800002008B52148816941F0A7
:1014600001018161816901F001010091C16941F0CF
:101470008051C161C06900F080500090032000F0ED
:101480005FF8002211466FF00B0000F039F80022DF
:1014900011466FF00A0000F033F8002211466FF099
:1014A000090000F02DF800221146501F00F028F826
:1014B00000221146101F00F023F800221146901E52
:1014C00000F01EF800221146501E00F019F80549E0
:1014D000486820F0E06040F00070486008BD0000FF
:1014E000001002400000014000F01F020121914065
:1014F0004009800000F1E020C0F8001170470000B2
:10150000F0B40D460D4B1B68C3F30223C3F107046F
:10151000042C00D90424191D072901D2002300E05E
:10152000DB1E012606FA04F1491E294099409E401F
:10153000761E16403143F0BC01F0A8BF0CED00E070
:1015400000F00701054A10684FF6FF03184040EA13
:101550000120034908431060704700000CED00E0D3
:101560000000FA052DE9F04704460E46DFF84881F1
:10157000D8F8000000F00700B0420FD2D8F8000001
:1015800020F007003043C8F80000D8F8000000F051
:101590000700B04202D00120BDE8F0872078474F15
:1015A000800705D57868A16820F0F00008437860CE
:1015B0002078C00748D06068012806D0022809D0EA
:1015C000396889070BD40120E6E73968890306D416
:1015D0000120E1E73968890101D40120DCE779685D
:1015E00021F0030101437960FFF71CFC05466068A8
:1015F00041F28839012809D0022814D020E0FFF7F1
:1016000011FC401B484501D90320C5E77868C0F3A9
:1016100081000128F3D117E0FFF704FC401B484587
:1016200001D90320B8E77868C0F381000228F3D11C
:101630000AE0FFF7F7FB401B484501D90320ABE761
:10164000786810F00C0FF4D1D8F8000000F0070013
:10165000B0420ED9D8F8000020F007003043C8F897
:101660000000D8F8000000F00700B04201D00120CF
:1016700092E72078400705D57868E16820F4E060BB
:10168000084378602078000706D57868216920F43F
:10169000605040EAC100786000F03CF87968084A80
:1016A000C1F30311515CC840064908600020FFF7F0
:1016B000B1FE002070E70000002002400010024050
:1016C0008C5E0008B80000200148006870470000E8
:1016D000B800002000B5FFF7F7FF04494968044A45
:1016E000C1F30221515CC84000BD0000001002405F
:1016F0009C5E000800B5FFF7E7FF04494968044A0B
:10170000C1F3C221515CC84000BD0000001002407E
:101710009C5E000885B014A090E80E00C068CDE97A
:1017200002230191049014A000680090134B5968A3
:10173000134801F00C02042A10D0082A0ED101A887
:10174000C1F38342805CC9030AD55968C1F34041A3
:101750001DF801100A4A5043B0FBF1F005B0704784
:1017600008494843FAE70000020304050607080990
:101770000A0B0C0D0E0F10100102000000100240A9
:1017800000127A0000093D002DE9F84F0446D04DC3
:101790002078C0075BD06868C0F38100012807D0BB
:1017A0006868C0F3810002280AD16868C00307D5C1
:1017B000286880034BD5606878BB0120BDE8F88FAE
:1017C0006068B0F5803F11D0A8B1B0F5A02F1BD054
:1017D000286820F480302860286820F48020286061
:1017E000606830B3FFF71EFB06461EE0286840F431
:1017F00080302860F4E7286820F48030286028686A
:1018000020F480202860EBE7286840F480202860DE
:10181000286840F480302860E2E718E0FFF702FB18
:10182000801B642801D90320C8E728688003F5D508
:101830000DE0FFF7F7FA064606E0FFF7F3FA801B24
:10184000642801D90320B9E728688003F5D42078FB
:10185000DFF8808280074FF0010A4FF0000945D57C
:10186000686810F00C0F07D06868C0F38100022888
:1018700012D16868C0030FD42868800704D5206996
:10188000012801D0012099E72868616920F0F8005B
:1018900040EAC100286029E02069B8B1C8F800A07A
:1018A000FFF7C0FA064606E0FFF7BCFA801B0228E5
:1018B00001D9032082E728688007F5D52868616987
:1018C00020F0F80040EAC10028600FE0C8F800905E
:1018D000FFF7A8FA064606E0FFF7A4FA801B0228E5
:1018E00001D903206AE728688007F5D4207800072B
:1018F00026D57948A16999B1C0F800A0FFF792FAFE
:10190000064606E0FFF78EFA801B022801D9032065
:1019100054E7686A8007F5D5012001F0C9FD0FE0A2
:10192000C0F80090FFF77EFA064606E0FFF77AFA65
:10193000801B022801D9032040E7686A8007F5D49C
:101940002078400773D50026E869C00008D4E8690C
:1019500040F08050E861E86900F080500090012676
:10196000DFF878B1DBF80000C00514D4DBF8000024
:1019700040F48070CBF80000FFF754FA074606E009
:10198000FFF750FAC01B642801D9032016E7DBF8E3
:101990000000C005F4D5E068012812D0B0B10528D8
:1019A0001DD0286A20F001002862286A20F0040077
:1019B0002862E06841F2883B28B3FFF733FA074614
:1019C0001DE0286A40F001002862F2E7286A20F052
:1019D00001002862286A20F004002862E9E7286AEA
:1019E00040F004002862286A40F001002862E0E725
:1019F000FFF718FAC01B584501D90320DEE6286A14
:101A00008007F5D50DE0FFF70DFA074606E0FFF772
:101A100009FAC01B584501D90320CFE6286A800780
:101A2000F5D4012E03D1E86920F08050E861E06927
:101A3000A0B36968C1F38101022947D0022805D00B
:101A4000C8F86090FFF7EEF904463AE0C8F86090F5
:101A5000FFF7E8F9064606E0FFF7E4F9801B0228E5
:101A600001D90320AAE628688001F5D4206AB0F5E0
:101A7000803F05D16868A16820F4003008436860A1
:101A8000D4E908010843696821F4741108436860C7
:101A9000C8F860A0FFF7C6F9044607E014E0FFF7B6
:101AA000C1F9001B022801D9032087E628688001BC
:101AB000F5D509E0FFF7B6F9001B022801D903208C
:101AC0007CE628688001F5D4002077E6012075E6E1
:101AD0000010024000004242800442420070004078
:101AE0007047000038B504462068426881684B069C
:101AF00009D4CB0707D0530605D5216C01B0204689
:101B0000BDE8304008478B0707D5130605D5616C43
:101B100001B02046BDE83040084711F0600F43D0C7
:101B2000930641D54B060AD594F85130032B38D093
:101B3000636D43F004036365C3688368009389069B
:101B400009D5616D41F0010161658168009101680D
:101B500021F040010160606D002825D020684168B7
:101B600021F0E0014160012084F8510002F0020000
:101B700002F00101084318D02068416821F00301F8
:101B800041600C4DE06C18B14563E06CFEF7E8FF76
:101B9000A06C002808D04563A06CBDE83840FEF773
:101BA000DFBFC1688068009038BD2046FFF798FF0E
:101BB00038BD00002D35000870B50446002C05D056
:101BC0000025A56294F8510010B104E0012070BD19
:101BD000204600F033F8022084F8510020680168A4
:101BE00021F040010160D4E901010843D4E9031266
:101BF0001143084361690843218B01F400710843D4
:101C0000E1690843216A0843A16A08432168086022
:101C1000A069042101EA1040616A08432168486014
:101C20002168E06A08612068C16921F40061C1612E
:101C30006565012084F85100002070BD30B585B085
:101C40000068244D0024244902220323A84222D103
:101C5000886940F480508861886900F48050009061
:101C6000A0200190029204931C4D01A92846FEF782
:101C7000D5FF402101910294039401A92846FEF763
:101C8000CDFF002211462320FFF73AFC2320FFF767
:101C90002BFC05B030BD124DA842FAD1C86940F402
:101CA0008040C861C86900F4804000904FF4204033
:101CB0000190029204930B4D01A92846FEF7AEFF56
:101CC0004FF4804101910294039401A92846FEF744
:101CD000A5FFDEE70030014000100240000801408F
:101CE00000380040000C01402DE9F84F04460D4635
:101CF00093461E46002794F8500001280DD04FF05F
:101D0000010A84F850A0FFF78DF8804694F851003E
:101D1000B946012804D002279EE00220BDE8F88FD2
:101D2000DDB1BBF1000F18D0032084F85100C4F8D6
:101D300054902563A4F834B0A4F836B0C4F83890B1
:101D4000A4F83C90A4F83E90C4F84490C4F84090A5
:101D5000A068B0F5004F02D006E001277CE02068C3
:101D6000016841F48041016020680168490603D49C
:101D7000016841F040010160E068B0F5006F05D0F6
:101D8000606850B3E08E012827D044E0606810B14D
:101D9000E08E01281DD1216835F8020BC860E08E65
:101DA000401EE08615E020688168890706D535F871
:101DB000021BC160E08E401EE0860AE03EB1701C4E
:101DC00007D0FFF72FF8A0EB0800B04201D303279C
:101DD00042E0E08E0028E6D120E0216815F8010BF2
:101DE0000873E08E401EE08615E020688168890750
:101DF00006D515F8011B0173E08E401EE0860AE04F
:101E00003EB1701C07D0FFF70DF8A0EB0800B04200
:101E100001D3032720E0E08E0028E6D133460122DB
:101E200002212046CDF8008001F088FB08B103278D
:101E300012E042463146204601F066FB18B1012708
:101E40002020606508E0A06818B92068C168806833
:101E50000090606D00B1012784F851A084F8509083
:101E600038465BE74FF0E021042804D0086920F0F1
:101E7000040008617047086940F004000861704779
:101E8000704710B5401EB0F1807F01D3012010BD16
:101E90004FF0E02460610F21601701F0F7FA002095
:101EA000A06107202061002010BD10B5FFF7E8FFFA
:101EB00010BD7047704730B590F83C20012A20D003
:101EC000012380F83C30022280F83D2002685468EB
:101ED00024F070045460026854680D682C43546008
:101EE0000268946824F080049460026894684968E9
:101EF0000C43946080F83D30002180F83C100020B5
:101F000030BD022030BD10B50446002C03D094F83B
:101F10003D0010B107E0012010BD002084F83C0016
:101F2000204600F00DF8022084F83D00211D2068B5
:101F300001F0EEFB012084F83D00002010BD000000
:101F400008B50068B0F1804F12D10A48C16941F06C
:101F50000101C161C06900F001000090002211463A
:101F60001C20FFF7CDFABDE808401C20FFF7BCBAE3
:101F700008BD0000001002400168CA6842F001027A
:101F8000CA600068016841F00101016000207047EB
:101F900070B5044694F83C00012817D0012584F858
:101FA0003C50022084F83D002068826822F07702CD
:101FB00022F47F428260086850283AD00DDC202845
:101FC0005FD005DCA0B3102864D155E0022070BDBD
:101FD00030285BD040285DD13FE0602833D07028A6
:101FE0000CD0B0F5805F03D0B0F5005F52D113E0A4
:101FF0002068816821F0070181604BE0CB68D1E95E
:102000000121206801F0BAFB2068816821F0770186
:1020100041F0770181603DE0CB68D1E90121206882
:1020200001F0ACFB2068816841F48041816031E0BF
:102030001DE0CA684968206801F0B2FB50212068A1
:1020400001F0A6FB26E0CA684968206801F0B9FBE8
:102050006021206801F09CFB1CE0CA684968206888
:1020600001F09EFB4021206801F092FB12E000216C
:10207000206801F08DFB0DE01021206801F088FB45
:1020800008E02021206801F083FB03E03021206874
:1020900001F07EFB3C3465700020207070BD7047FD
:1020A00070B50446206801694FF00005C9438907EF
:1020B00016D4C168C943890712D4E91E0161012001
:1020C000207720688069800703D02046FFF7E7FF6C
:1020D00005E0204600F09BF8204600F099F82577AF
:1020E00020680169C943490718D4C168C943490731
:1020F00014D46FF004010161022020772068806908
:1021000010F4407F03D02046FFF7C9FF05E02046CA
:1021100000F07DF8204600F07BF825772068016903
:10212000C943090717D4C168C943090713D46FF01D
:1021300008010161042020772068C069800703D06E
:102140002046FFF7ACFF05E0204600F060F820468F
:1021500000F05EF8257720680169C943C90618D4E4
:10216000C168C943C90614D46FF010010161082089
:1021700020772068C06910F4407F03D02046FFF725
:102180008EFF05E0204600F042F8204600F040F8BF
:10219000257720680169C943C90708D1C168C943C7
:1021A000C90704D1891E0161204600F032F8206879
:1021B0000169C943090609D4C168C943090605D4A0
:1021C0006FF0800101612046FFF773FE206801690E
:1021D000C943490609D4C168C943490605D46FF00B
:1021E00040010161204600F015F820680169C943EB
:1021F00089060BD4C168C943890607D46FF0200152
:1022000001612046BDE87040FFF754BE70BD7047C5
:10221000704770477047704770B504462268106871
:10222000D168526900F00F03002B08D1850606D54E
:102230008D0604D52046BDE8704001F0F7BA002BAA
:102240005ED002F0010301F490752B4358D0C30710
:1022500005D0CB0503D5E36B43F00103E3634307EC
:1022600005D5D30703D0E36B43F00203E363830791
:1022700005D5D30703D0E36B43F00403E3630307FF
:1022800005D5D20703D0E26B42F00802E263E26BAD
:10229000002A2AD0800604D5880602D5204601F0FF
:1022A000C5FA20684069C0F38010E16B090700D4CB
:1022B00000B3204601F09FFA20684169490615D510
:1022C000416921F040014161606B58B1154941639A
:1022D000606BFEF745FC002807D0606B416BBDE8E2
:1022E000704008472046FFF796FF70BD2046FFF775
:1022F00092FF70BD2046FFF78EFF0020E06370BDA7
:10230000020606D50A0604D52046BDE8704001F055
:10231000A9BB4006F3D54806F1D52046BDE870407C
:1023200001F077BAE737000870B50446002C04D0F6
:1023300094F83900002510B106E0012070BD84F842
:102340003850204600F022F8242084F83900206814
:10235000C16821F40051C160204601F0B5FA20683F
:10236000016921F4904101612068416921F02A014D
:1023700041612068C16841F40051C160E5632020DB
:1023800084F8390084F83A00002070BD10B586B09A
:1023900000681549884225D11448816941F480417B
:1023A0008161806900F4804001904FF400700290D8
:1023B00002200390032005900D4C02A92046FEF751
:1023C0002DFC2115029100210391049102A92046C0
:1023D000FEF724FC002211462520FFF791F8252066
:1023E000FFF782F806B010BD00380140001002402F
:1023F0000008014070472DE9F84304460D46914618
:102400001E4694F83900202802D00220BDE8F88347
:10241000B5B1B9F1000F13D094F83800012811D0EC
:10242000012084F838000027E763212084F8390070
:10243000FEF7F8FC8046A4F82490A4F826902DE03E
:102440000120E3E70220E1E7E08C401EE084A06881
:10245000B0F5805F09D043460022802120460096D7
:1024600001F033FBB0B10320D0E7434600228021C6
:102470002046009601F029FB08B10320C6E7288812
:102480002168C0F308004860206908B16D1C05E0B0
:10249000AD1C03E0216815F8010B4860E08C0028B2
:1024A000D2D14346002240212046009601F00DFB88
:1024B00008B10320AAE7202038346070277000207C
:1024C000A4E77047FEE701684A69D24352050CD47D
:1024D0006FF480624A6104213030016100210160A3
:1024E00020224273017301207047002070470000D2
:1024F0002DE9F84F0446DDE90AB60F4690461D4621
:102500002068016841F4806101602068016841F43D
:10251000807101604FF001195B4600224946204658
:10252000009600F011F910B10320BDE8F88F216882
:1025300007F0FE000861DFF8F8A033465A4651461E
:10254000204600F03BF930B1206C042801D0032074
:10255000EBE70120E9E72068416980690090324695
:102560005946204600F0A5F958B1206C042801D046
:102570000320DAE72068016841F40071016001205E
:10258000D3E7284608F0FF0501280ED021684FEA5E
:102590001820086132465946204600F08AF970B189
:1025A000206C042804D00320BFE72068056108E000
:1025B0002068016841F4007101600120B5E72068DE
:1025C000056132465946204600F073F958B1206C37
:1025D000042801D00320A8E72068016841F40071B5
:1025E00001600120A1E72068016841F48071016069
:1025F0005B46002249462046009600F0A5F808B147
:10260000032092E72168F8B240F0010008613346E8
:102610005A465146204600F0D1F830B1206C0428CB
:1026200001D0032081E701207FE700207DE7000043
:10263000020001002DE9F8430446DDE908970D4644
:10264000164698462068016841F4807101604B4647
:1026500000224FF001112046009700F075F810B1EC
:102660000320BDE8F883216805F0FE0008613B46C1
:102670004A462149204600F0A1F830B1206C0428D8
:1026800001D00320EDE70120EBE720684169806974
:1026900000903A464946204600F00BF958B1206CAC
:1026A000042801D00320DCE72068016841F40071B0
:1026B00001600120D5E7F5B2B8F1010F0DD0216816
:1026C000300A08613A464946204600F0F2F870B1F7
:1026D000206C042804D00320C3E72068056108E0CB
:1026E0002068016841F4007101600120B9E72068A9
:1026F00005610020B5E700000200010070B5044646
:102700000D46164619E02046FFF7DDFE08B1012010
:1027100070BD681C11D025B1FEF784FB801BA84258
:102720000BD93034206940F0200020610020206067
:10273000202161732073032070BD20684069C0436D
:102740004007E0D4002070BD2DE9F0470546DDF8D4
:1027500020A00F4691461E46C7F3074812E0701CA2
:1027600010D02EB1FEF75EFBA0EB0A00B04209D9F3
:10277000002045F8300F20216973A87328730320C7
:10278000BDE8F087B8F1010F0BD02868806927EA0F
:1027900000000004000C0FD000244C45DFD00020C6
:1027A000EEE72868406927EA00000004000C01D029
:1027B0000024F2E70124F0E70124EEE72DE9F047D9
:1027C00004460E46154698464FF000094FF0200A81
:1027D000C6F3074729E020684069C043400513D489
:1027E0002068016841F40071016021686FF4806025
:1027F000486104202064C4F8309084F83DA084F837
:102800003C900120BDE8F087681C0ED02DB1FEF78A
:1028100009FBA0EB0800A84207D9C4F8309084F85F
:102820003DA084F83C900320ECE7012F08D02068FD
:10283000806926EA00000004000CCCD10020E1E70A
:102840002068406926EA00000004000CF6D0C2E7C8
:102850002DE9F04104460D46164600274FF02008AA
:1028600020E04069C043C0060CD421686FF010001E
:1028700048612764276384F83D8084F83C70012018
:10288000BDE8F08125B1FEF7CDFA801BA84209D939
:10289000206C40F02000206484F83D8084F83C7077
:1028A0000320EDE720684169C9434906D9D40020D7
:1028B000E6E770B504460D46164619E02046FFF7D8
:1028C00002FE08B1012070BD681C11D025B1FEF7D1
:1028D000A9FA801BA8420BD93034206940F02000AF
:1028E000206100202060202161732073032070BDCF
:1028F00020684069C0430006E0D4002070BD00009D
:102900002DE9F04F8DB00024A3464FF001080027B9
:102910000C974FF47A790026242103A8FDF74AFC8E
:10292000232533A103A801F037F923224FF6FF73C3
:1029300003A93548FFF75FFD4FF4FA70FEF75CF925
:102940000DF10C0A0A20FEF757F90CA88DE80103D7
:10295000610043465A462D48FEF712FBA8B90020F5
:1029600003E00AF80070401CC0B2A842F9D3224626
:1029700027A103A801F010F923224FF6FF7303A942
:102980002148FFF738FD761CF6B2641CE4B27F2CB8
:10299000D8D396B9002003E00AF80070401CC0B2FA
:1029A000A842F9D322A103A801F0F6F823224FF69A
:1029B000FF7303A91448FFF71EFD4FF4FA70FEF7EA
:1029C0001BF9002003E00AF80070401CC0B2A842C6
:1029D000F9D31DA103A801F0DFF823224FF6FF73FE
:1029E00003A90948FFF707FD0DB0BDE8F08F00000F
:1029F00053454152434820444556495345532E2E92
:102A00002E200D0A0000000030030020EC01002001
:102A100044657669636520616464726573732D3003
:102A2000782578202D20666F756E64200D0A0000D1
:102A300044657669636573206E6F20666F756E649A
:102A40002121210D0A000000444F4E450D0A0000CF
:102A50002DE9FE4F9046DDE90C6204460F469B4689
:102A6000202C01D3203CE4B20020224B04EB440193
:102A700003EB41010DF104090B5C09F80030401C27
:102A8000C0B20628F8D34FF6FF7006EB460100925D
:102A900000EA410200EAC6034146384600F04EF91A
:102AA00000254FF0010A002419F805000AFA04F184
:102AB00008420DD0012E15D004FB068081B205FB23
:102AC000067080B233463246CDF800B000F036F9D9
:102AD000641CE4B2082CE7D36D1CEDB2062DE2D3E2
:102AE000BDE8FE8F08EB040178195A4600F076F82D
:102AF000EEE700004C5C00082DE9F04782460D46E9
:102B00004FF4FA74B4EB450F00D92C460122D102E0
:102B10001F48FEF780F9DFF87C904FF480580022C0
:102B200041464846FEF777F94FEA1A27204601F05A
:102B3000E7FE064600200AF0FF0103E03754321892
:102B40005170801CA042F9D36800B0FBF4F7B0FBD1
:102B5000F4F104FB110A57B1002506E0A2B20A23E2
:102B600031460D48FFF7C0F86D1CBD42F6D31FFA81
:102B70008AF20A2331460848FFF7B6F80122414697
:102B80004846FEF748F93046BDE8F04701F0DEBCA4
:102B900000080140000C014040020020F8B5DDF8BB
:102BA00018C000240025161A002E00DA01245F1A2E
:102BB000002F00DA01256CB1801A84B210465DB195
:102BC000C91A8AB2194613462246CDF800C000F051
:102BD000B5F8F8BDB4B2F2E7BAB2F4E72DE9FE4FAA
:102BE00005460C461646514841888D427ED20088E3
:102BF00084427BD2DFF838814FF4006700223946E7
:102C00004046FEF708F9DFF82CA14FF48059002266
:102C100049465046FEF7FFF82A2000F02BFA012221
:102C200039464046FEF7F7F8012249465046FEF77E
:102C3000F2F8002249465046FEF7EDF8280A8DF8D2
:102C400008008DF809506D1C280A8DF80A008DF8CF
:102C50000B500123042202A93748FFF745F801224F
:102C600049465046FEF7D7F8002239464046FEF75F
:102C7000D2F8002249465046FEF7CDF82B2000F04E
:102C8000F9F9012239464046FEF7C5F801224946C6
:102C90005046FEF7C0F8002249465046FEF7BBF802
:102CA000200A8DF804008DF80540641C200A8DF878
:102CB00006008DF807400123042201A91E48FFF7F2
:102CC00013F8012249465046FEF7A5F8002239467E
:102CD0004046FEF7A0F8002249465046FEF79BF812
:102CE0002C2000F0C7F90122394600E01CE04046E4
:102CF000FEF791F8012249465046FEF78CF8002273
:102D000049465046FEF787F8300A8DF800008DF8E6
:102D100001600123022269460748FEF7E5FF012210
:102D200049465046FEF777F8BDE8FE8F00000020C8
:102D300000080140000C0140400200202DE9F04154
:102D40001546069E1C46144A5388984221D2138881
:102D500099421ED2431957885B1EBB4202DB53883F
:102D60001B1A9DB20B1917885B1EBB4202DB12882F
:102D7000521A94B20A19521E93B24219521E92B2BA
:102D800000F082F904FB05F13046BDE8F041FFF7A1
:102D9000B3BEBDE8F0810000000000202DE9FC4733
:102DA0000446DDE90A680D4691469A4606EB460759
:102DB0000AE0CDE90068641C53464A462946FFF7FD
:102DC00047FE05EB4700C5B220780028F1D1BDE8E9
:102DD000FC870000012211020148FEF71CB8000028
:102DE0000008014070B50546074C23886288002121
:102DF000084600F049F96188208841432846BDE82B
:102E00007040FFF779BE00000000002010B5FFF70A
:102E1000E1FF00F027F900F005F9012000F08EF93C
:102E20004FF47A70FDF7E8FECB2000F087F93920E7
:102E300000F0A2F92C2000F09FF9002000F09CF98E
:102E4000342000F099F9022000F096F9CF2000F02C
:102E500075F9002000F090F9C12000F08DF93020C4
:102E600000F08AF9E82000F069F9852000F084F983
:102E7000002000F081F9782000F07EF9EA2000F0CF
:102E80005DF9002000F078F9002000F075F9ED20E0
:102E900000F054F9642000F06FF9032000F06CF9A1
:102EA000122000F069F9812000F066F9F72000F0A7
:102EB00045F9202000F060F9C02000F03FF9232000
:102EC00000F05AF9C12000F039F9102000F054F94F
:102ED000C52000F033F93E2000F04EF9282000F024
:102EE0004BF9C72000F02AF9862000F045F936207A
:102EF00000F024F9482000F03FF93A2000F01EF9D4
:102F0000552000F039F9B12000F018F9002000F048
:102F100033F9182000F030F9B62000F00FF908203E
:102F200000F02AF9822000F027F9272000F024F988
:102F3000F22000F003F9002000F01EF9262000F036
:102F4000FDF8012000F018F9E02000F0F7F80F205C
:102F500000F012F9312000F00FF92B2000F00CF9ED
:102F60000C2000F009F90E2000F006F9082000F00E
:102F700003F94E2000F000F9F12000F0FDF83720B1
:102F800000F0FAF8072000F0F7F8102000F0F4F84D
:102F9000032000F0F1F80E2000F0EEF8092000F018
:102FA000EBF8002000F0E8F8E12000F0C7F800207E
:102FB00000F0E2F80E2000F0DFF8142000F0DCF85A
:102FC000032000F0D9F8112000F0D6F8072000F017
:102FD000D3F8312000F0D0F8C12000F0CDF848201F
:102FE00000F0CAF8082000F0C7F80F2000F0C4F87D
:102FF0000C2000F0C1F8312000F0BEF8362000F0BF
:10300000BBF80F2000F0B8F8112000F097F87820F6
:10301000FDF7F2FD292000F091F8BDE810400020F6
:1030200000F05CB870B50D4D4FF48074002221465D
:103030002846FDF7F0FEC820FDF7DEFD0022210145
:103040000748FDF7E8FEC820FDF7D6FD21462846D3
:10305000BDE870400122FDF7DEBE0000000801401F
:10306000000C014000224FF480510148FDF7D3BE0F
:10307000000C014001B501231A4669460148FEF7DC
:1030800033FE08BD400200202DE9F04104460D4604
:1030900016461F462A2000F051F8200A00F06CF86E
:1030A000E0B200F069F8300A00F066F8F0B200F023
:1030B00063F82B2000F042F8280A00F05DF8E8B22F
:1030C00000F05AF8380A00F057F8F8B200F054F857
:1030D000BDE8F0412C2000F031B8000070B5044686
:1030E000362000F02BF80120FDF786FD2000124C61
:1030F0004FF0F0054FF4A0760BD001280FD0022836
:1031000013D0032804D1E82000F036F8668025802B
:1031100070BD482000F030F86580268070BD282002
:1031200000F02AF86680258070BD882000F024F821
:103130006580268070BD00000000002070B5064646
:103140000B4D4FF48054002221462846FDF763FEC4
:10315000002261100748FDF75EFE3046FFF78AFF48
:1031600021462846BDE870400122FDF754BE00000C
:10317000000C01400008014070B506460122D10252
:103180000A48FDF748FE0A4D4FF4805400222146BC
:103190002846FDF740FE3046FFF76CFF21462846E3
:1031A000BDE870400122FDF736BE00000008014076
:1031B000000C01402DE9F04F85B03D48816941F098
:1031C00010018161816901F010010091816941F074
:1031D00020018161816901F020010091816941F044
:1031E00004018161816901F004010091816941F06C
:1031F00008018161806900F008000090DFF8B49058
:103200004FF40054002221464846FDF704FEDFF843
:10321000A8A041F20247002239465046FDF7FBFDC7
:10322000DFF898B04FF41068002241465846FDF789
:10323000F2FD0194012602960024039402250495D0
:1032400001A94846FDF7EAFC4FF440400190029482
:10325000039501A94846FDF7E1FC06200190029480
:10326000039501A95846FDF7D9FC1020019002945E
:10327000039401A95846FDF7D1FC019602940394EA
:1032800001A95046FDF7CAFC0197029603940495E4
:1032900001A95046FDF7C2FCCDF8048002960394C4
:1032A000049501A95846FDF7B9FC05B0BDE8F08FBB
:1032B0000010024000100140000C014000080140D5
:1032C00010B50D480B4901600C4941600021816037
:1032D000C1604FF48042026141618161C16101625C
:1032E000FDF7A6FD002804D040F26B1104A000F009
:1032F00051FC10BD00540040EC010020A0860100EC
:103300002E2E2F5372632F6D61696E2E63000000A5
:1033100010B510480E4901604FF4827141600021E0
:103320008160C160016141614FF4007282610822D5
:10333000C2610162416281620A21C162FEF73CFC06
:10334000002804D040F2831103A000F023FC10BD3C
:1033500000300140400200202E2E2F5372632F6D4B
:1033600061696E2E6300000010B510480E490160BF
:103370004FF48271416000218160C160016141614F
:103380004FF4007282611022C26101624162816267
:103390000A21C162FEF710FC002804D040F29B1104
:1033A00003A000F0F7FB10BD003800409802002099
:1033B0002E2E2F5372632F6D61696E2E63000000F5
:1033C00010B586B018484FF08041016048F6A04122
:1033D000416000248460C821C16004618461FEF7FB
:1033E00092FD20B140F2AF1110A000F0D3FB4FF4DA
:1033F0008050029002A90C48FEF7CAFD20B140F2AD
:10340000B5110AA000F0C6FB009401946946064875
:10341000FEF751FD002804D04FF4DE7103A000F048
:10342000B9FB06B010BD0000F00200202E2E2F5375
:1034300072632F6D61696E2E6300000010B50D4838
:103440000B4901604FF4E131416000218160C160AE
:1034500001610C2242618161C161FEF765FF0028B4
:1034600004D040F2CF1104A000F094FB10BD000086
:1034700000380140300300202E2E2F5372632F6D31
:1034800061696E2E63000000FEE770470907090EB0
:10349000002806DA00F00F0000F1E02080F8141D8B
:1034A000704700F1E02080F800147047704700007A
:1034B00008B507494FF4FA520968B1FBF2F14143EC
:1034C000009100BF0098411E0091FAD208BD000093
:1034D000B80000200A21B0FBF1F201FB1202B0FBA0
:1034E000F1F042EA0010C0B2704700F00F0100098D
:1034F00000EB800001EB4000C0B270470148FEF7CE
:10350000F1BA00004002002038B504460B46009294
:1035100000228021204600F011F828B1606D40F0B3
:1035200020006065032038BD002038BD10B5406A1A
:103530000021C187C186FEF7D3FA10BD2DE9F04105
:1035400004460E4617461D46DDF8188034E0681C18
:1035500032D02DB1FDF766FCA0EB0800A8422BD3BA
:103560002068416821F0E00141606068B0F5827F29
:103570000BD1A068B0F5004F02D0B0F5806F04D138
:103580002068016821F040010160A06AB0F5005F89
:103590000AD1206801684DF6FF7211400160206871
:1035A000016841F400510160012050346070002036
:1035B00020700320BDE8F0812068806836EA0000B2
:1035C00004D00020B842C2D10020F3E70120F9E77F
:1035D000704710B5FDF704FFBDE81040FEF765BC6D
:1035E00030B58FB00121059108040690002407949E
:1035F000099102250C950D904FF4E0100E9005A84E
:10360000FEF7C2F820B140F23F1113A000F0C2FA59
:103610000F200090019502944FF480600390049471
:1036200002216846FDF79EFF20B140F24D110AA02D
:1036300000F0B0FAFEF748F84FF47A71B0FBF1F001
:10364000FEF71FFC0420FEF70DFC00221146501E61
:10365000FDF756FF0FB030BD2E2E2F5372632F6D26
:1036600061696E2E630000000D48016841F00101A0
:10367000016041680B4A1140416001680A4A1140EB
:103680000160016821F480210160416821F4FE019C
:1036900041604FF41F0181600449C0030860704716
:1036A000001002400000FFF8FFFFF6FE08ED00E00A
:1036B00010B5104C4FF480412046FDF7A5FB0E4994
:1036C00008604FF400412046FDF79EFB0B4908605F
:1036D0000B4C04212046FDF797FB0A4908600221A4
:1036E0002046FDF791FB08490860BDE810400748F7
:1036F000FEF7D6BC001001408000002090000020A2
:10370000000801409400002084000020F002002006
:10371000F0B50268164C174D174E4FF08047A04287
:1037200005D0B84203D0A84201D0B04203D122F064
:1037300070034A681A43A04205D0B84203D0A84299
:1037400001D0B04203D122F44073CA681A4322F078
:1037500080024B69134303608A68C2620A6882620E
:10376000A04201D10969016301214161F0BD00005E
:10377000002C0140000400400008004010B584689F
:1037800024F47F4442EA03220A432243826010BDAC
:10379000826822F070020A4342F00701816070479C
:1037A00010B5036A046A24F001040462846924F0F9
:1037B000F00444EA021423F00A020A43846102621C
:1037C00010BD10B5036A23F0100303628469036A15
:1037D00024F4704444EA023223F0A00343EA0111C6
:1037E0008261016210BD10B5406A0021C185C184AB
:1037F000FEF711FD10BD0168CA6822F49072CA601C
:1038000001684A6922F001024A61202180F83A10D9
:10381000704710B50168CA6822F04002CA602021D2
:1038200080F83910FEF74DFE002010BD10B590F85D
:103830003A10222901D0022010BD8168B1F5805FC5
:1038400011D0016919B30168496801F07F03816AE9
:103850004A1C82620B70C18D491E0904090CC18586
:103860001CD0002010BD816A02693AB1026852681A
:10387000D2B20A80816A491C8162ECE70268526810
:10388000C2F308020A80816A891C8162E3E7016849
:103890004A68816A4B1C83620A70DCE70168CA6867
:1038A00022F02002CA600168CA6822F48072CA60ED
:1038B00001684A6922F001024A61202180F83A1029
:1038C000FEF798FD002010BD2DE9F0410446206868
:1038D0000169E26821F4405111430161A168206946
:1038E0000143606901432068C26841F20C639A4356
:1038F0000A43C26020684169A26921F44071114302
:1039000041615749206864253226884254D1FDF729
:10391000F1FE00EBC00101EB001061688900B0FB13
:10392000F1F7FDF7E7FE00EBC00101EB0010616865
:103930008900B0FBF1F0B0FBF5F06FF018014843DF
:1039400007EB800006EB0010B0FBF5F000F0F0078D
:10395000FDF7D0FE00EBC00101EB001061688900AB
:10396000B0FBF1F0B0FBF5F007EB0017FDF7C2FE7E
:1039700000EBC00101EB001061688900B0FBF1F8B9
:10398000FDF7B8FE00EBC00101EB00106168890093
:10399000B0FBF1F0B0FBF5F06FF01801484308EB15
:1039A000800006EB0010B0FBF5F0216800F00F007E
:1039B00038448860BDE8F081FDF78CFE00EBC00163
:1039C00001EB001061688900B0FBF1F7FDF782FEA2
:1039D00000EBC00101EB001061688900B0FBF1F061
:1039E000B0FBF5F06FF01801484307EB800006EBE1
:1039F0000010B0FBF5F000F0F007FDF76BFE00EBF8
:103A0000C00101EB001061688900B0FBF1F0B0FB70
:103A1000F5F007EB0017FDF75DFE00EBC00101EBD1
:103A2000001061688900B0FBF1F8FDF753FE00EB70
:103A3000C00101EB001061688900B0FBF1F0B0FB40
:103A4000F5F06FF01801484308EB800006EB00101A
:103A5000B0FBF5F0216800F00F0038448860A9E75A
:103A60000038014090F83910212901D00220704718
:103A70008168B1F5805F0CD0016A4A1C026202685D
:103A800009785160C18C491E0904090CC18410D009
:103A900019E0016A02680988C1F3080151600169EF
:103AA00019B1016A491C0162ECE7016A891C0162D3
:103AB000E8E70168CA6822F08002CA600068C1684D
:103AC00041F04001C160002070472DE9F0410446FB
:103AD0000E4617469846069D1DE0681C1BD02DB16A
:103AE000FDF7A0F9A0EB0800A84214D92068C1682E
:103AF00021F4D071C1602068416921F00101416168
:103B0000202084F8390084F83A00002084F8380036
:103B10000320BDE8F0812068006836EA000004D088
:103B20000020B842D9D00020F3E70120F9E70000D7
:103B30000148FEF771BB000030030020FEE70000E3
:103B40007FB50546002003900846FFF7C3FC0390AD
:103B50000E4C03AAE18B606ACDE9002102906089D6
:103B60004FF6FF7101EA4001238C2A460848FDF711
:103B700065FB60704FF47A7120B10C462046FDF76A
:103B80003BF8FBE70846FDF737F87FBD040000204F
:103B9000EC010020FEE700000FB4084B10B504A9AB
:103BA00002AA039800F0DEF8044602A9002000F003
:103BB00070FC204610BC5DF814FB00009344000824
:103BC00002E008C8121F08C1002AFAD170477047E6
:103BD000002001E001C1121F002AFBD17047000044
:103BE0002DE9FF5F82B00021DDE90430020DDDF830
:103BF00040B0034318D044F61050A2F2FF324243C3
:103C00001514119801281FD0A5EB0B00401C5FEA8A
:103C1000000A4FF000064E4FDFF83891B04650468C
:103C200015D5CAF1000413E0119801244AA3012814
:103C300001D16FEA0B010298119AC0E90031C0E985
:103C4000024206B0BDE8F09FCBF10000DFE704467A
:103C50000021404A491842EB0450CDE9001012E01F
:103C6000E00707D032463B4640464946FCF743FB57
:103C70008046894632463B4610461946FCF73BFBD8
:103C800006460F466410002CEAD1DDE90401DDE9A7
:103C90000023BAF1000F06DAFCF72DFB42464B4633
:103CA000FCF729FB05E0FCF776FD42464B46FCF7A6
:103CB00072FD04460E460022284BFCF7F3FD03D8A4
:103CC0004FF0FF30014607E00022254B20463146E9
:103CD000FCF7BAFCFCF7CEFD102409E0002C0ADB4F
:103CE0000A220023FCF7EBFB039B30321A55641EBB
:103CF00050EA0102F2D1641C039AC4F11103144486
:103D0000119A012A03D0012208430DD10AE0084389
:103D100004D000204FF0110B119072E7A3EB0B05BC
:103D20006D1E0DE05B4504DD4FF0000205F101055D
:103D300004E003DA4FF00002A5F10105002AECD0FF
:103D400002981199C0E90231C0E9004579E7000005
:103D5000000014400000F03F300000000000F0437D
:103D60000000E03F2DE9FF4F95B09B46894606468F
:103D700000250FE2252877D100242746F84A0121A3
:103D8000059400E0044316F8013F203B01FA03F0DC
:103D90001042F7D130782A2811D06FF02F033078F5
:103DA000A0F13002092A16D8059A44F0020402EB69
:103DB000820203EB42021044761C0590EFE759F8AB
:103DC000042B0592002A03DA504244F40054059073
:103DD00044F00204761C30782E2816D116F8010F14
:103DE00044F004042A280DD06FF02F023078A0F19F
:103DF0003003092B09D807EB870302EB4303C718ED
:103E0000761CF3E759F8047B761C30786C280FD0C9
:103E100006DC4C2817D068280DD06A2814D104E09D
:103E2000742810D07A280FD10DE044F400140AE071
:103E300044F4801401E044F440147278824202D1C8
:103E400004F58014761C761C307866280BD013DCC1
:103E5000582877D009DC002875D04528F6D04628A8
:103E6000F4D047281AD19DE118E0632835D06428A2
:103E700079D0652812D195E1702873D008DC6728C5
:103E8000F1D069286FD06E280DD06F2806D1B5E02B
:103E900073282CD0752875D0782874D05A46179975
:103EA00090476D1C75E1C4F30250022809D0032825
:103EB0000DD0D9F8001004280DD00D6009F10409C7
:103EC00067E1D9F80010EA17C1E90052F6E7D9F81E
:103ED00000100D80F2E70D70F0E719F8041B8DF863
:103EE000001000208DF80100EA46012003E059F897
:103EF00004AB4FF0FF3061074FF0000102D40DE03A
:103F000008F101018846B9420FDA8045F8DB1AF85A
:103F100008100029F4D108E008F101018846814227
:103F2000FADB1AF808100029F6D105985B46A0EBD9
:103F3000080721463846179A00F094FA284400EB07
:103F4000080507E04DE029E10DE01AF8010B5A469B
:103F500017999047B8F10108F7D25B4621463846D9
:103F6000179A13E142E00A220092C4F302524FF082
:103F7000000A022A08D059F804CB032A4FEAEC7150
:103F80000AD00DE029E02AE009F1070121F007023B
:103F9000F2E802C1914609E00FFA8CFC4FEAEC719D
:103FA000042A03D14FFA8CFC4FEAEC71002907DA9E
:103FB0000A460021DCF1000C61EB02012D2202E037
:103FC000220504D52B228DF80420012203E0E2070C
:103FD00001D02022F7E7904659E00A2102E01022A2
:103FE0000DE010214FF0000A00910BE010224FF07D
:103FF000000A44F004040827009203E008224FF06E
:10400000000A0092C4F30252022A05D059F804CBE8
:104010000021032A08D009E009F1070121F0070275
:10402000F2E802C1914605E01FFA8CFC042A01D196
:104030000CF0FF0C4FF00008220728D5702806D09E
:10404000009B83F0100353EA0A0305D00EE04022E0
:104050008DF80420012208E05CEA010206D030223B
:104060008DF804208DF8050002229046009B83F015
:10407000080353EA0A030AD15CEA010201D162078C
:1040800005D530228DF804204FF001087F1E5828F6
:1040900004D034A003900EA802900DE036A0F9E7FA
:1040A00053466046009AFCF70AFA84460398825CFD
:1040B0000298401E029002705CEA0100F0D1029862
:1040C00006A9081A00F1200A600702D524F48034FA
:1040D00000E00127574502DDA7EB0A0000E00020C1
:1040E00000EB0A01009005984144401A0590E00356
:1040F00006D45B462146179A059800F0B3F90544AB
:10410000002706E001A85A46C05D179990476D1C2C
:104110007F1C4745F6DBE0030CD55B462146179A2A
:10412000059800F09FF9054404E030205A4617999D
:1041300090476D1C0099481E00900029F5DC08E0AE
:10414000029802995A460078491C029117999047A3
:104150006D1CBAF10001AAF1010AF1DC65E1000071
:10416000092801003031323334353637383961624D
:104170006364656600000000303132333435363711
:1041800038394142434445460000000000F058F9E8
:104190000544761C307800287FF4ECAD19B0284631
:1041A000BDE8F08F620700D4062709F1070222F06C
:1041B000070CFCE80223E14603F000485FEA080C24
:1041C00002D00FF2702C0DE05FEA045C02D50FF212
:1041D000682C07E05FEAC47C02D00FF2602C01E09B
:1041E000AFF2700C4FF0FF3823F00043CDF850C011
:1041F00065280CD006DC452809D046281DD0472864
:104200003DD13DE0662818D067287ED138E00021F6
:10421000112F01DB112000E0781CCDE9000106A977
:104220000EA8FFF7DDFCDDE90F010E9A03910021D6
:10423000009207F1010A04914DE04FF00040009711
:10424000CDE9011006A90EA8FFF7CAFCDDE90F02AF
:1042500003920E9B11990022DDF80CA000930492AA
:1042600011B9791C00EB010AB7EB0A0004D4C0F1C4
:10427000FF3007F1010A0490AAEB0700019044E027
:10428000012F00DA01270021112F01DD112000E0AC
:104290003846CDE9000106A90EA8FFF7A1FCDDE92B
:1042A0000F010E9A0391002104910092BA46210752
:1042B0000CD40399514500DA8A46BAF1010F05DDA5
:1042C000009AAAF10101515C302908D0B84202DA03
:1042D00010F1040F06DA0121CDE9011015E0AAF171
:1042E0000101E9E7002805DC049901440491AAEBE7
:1042F000000102E0411C514500DD8A460499401A44
:10430000401C01904FF000400290200704D4019817
:10431000504501DBCDF8048000208DF84F00029855
:104320000DF14F07B0F1004F25D02B200E900298D1
:104330004FF0020800280CDA404202902D200E9027
:1043400007E00A210298FCF7A4F83031029007F840
:10435000011DB8F10001A8F10108F2DC0298002863
:10436000EFD1791E0E980870307800F0200040F0F0
:10437000450007F8020D12A8C01B00F107081498A9
:10438000007800B1012000EB0A01019801EBE07117
:1043900005984144401A401E0590E00306D45B4650
:1043A0002146179A059800F05DF8054414980078A6
:1043B00018B15A46179990476D1CE00324D55B4607
:1043C0002146179A059800F04DF805441CE0049822
:1043D000002807DBDDE90301884203DD0098405C2B
:1043E000179901E0179930205A469047049805F133
:1043F0000105401C04900198401E019004D12E201C
:104400005A46179990476D1CBAF10001AAF1010AAA
:10441000DDDC05E017F8010B5A46179990476D1C33
:10442000B8F10001A8F10108F4DC5B462146179AB7
:104430000598ABE62D0000002B00000020000000D6
:104440002DE9F041044600251E461746880404D491
:1044500005E039462020B0476D1C641EF9D528467A
:10446000BDE8F0812DE9F041044600251E46904646
:10447000C80301D5302700E02027880404D505E0D3
:1044800041463846B0476D1C641EF9D52846BDE844
:10449000F0810A68531C0B601070704770B54FF4C0
:1044A000C835294A116BA1F596318403108C00059B
:1044B000B2F922604E43201A801B00F58040C317DA
:1044C00000EB5340C01392F904304B43DC1703EB6D
:1044D00094539C12D3785943CB1701EB5351C91213
:1044E00001F500414C43E11704EB91514FF40013E7
:1044F00003EBA121B2F91E30594301F50051CB174E
:1045000001EB934189134843C11700EB5141C91393
:104510004943CB1701EB5361C91192785143CA1734
:1045200001EB1271A0EB2110002800DA00204FF0FF
:10453000C851884200DD0846C11700EB1150001336
:10454000A84200D9284670BD3400002010B50028CC
:1045500021D0114B0022001F196803E0814203D8CB
:104560000A4649680029F9D152B11368841A9C425D
:1045700004D1006818441060104602E0506000E06A
:10458000186039B102680B1A934203D10B681A44C0
:1045900002604968416010BDBC0000202DE9F04177
:1045A0008AB001274FF47A76CDE9017686480090EB
:1045B0003B46D022EC218548FCF7E2FC824D6D1E83
:1045C000287000B101206978602901D0012100E044
:1045D0000021084309D10CE03046FCF70DFB697857
:1045E000602902D03046FCF707FB29780029F6D075
:1045F000F2E7FF217648FBF7DDFDFF20CDE901065C
:10460000734C01230022EC2100947048FCF7B8FCA5
:10461000287014F8880F617840EA0120E880A078BB
:10462000E17840EA012028812079617940EA01207F
:104630006881A079E17940EA0120A881207A617A35
:1046400040EA0120E881A07AE17A40EA012028824C
:10465000207B617B40EA01206882A07BE17B40EA0D
:104660000120A882207C617C40EA0120E882A07CB5
:10467000E17C40EA01202883207D617D40EA012021
:104680006883A07DE17D40EA0120A883607EA87058
:1046900094F8590094F85A1040EA0120E88394F8FD
:1046A0005B00E87094F85D0094F85C20014662F3CA
:1046B0001F11298494F85E10000940EA01106884F3
:1046C00094F85F002871002409940DF12408CDE9C5
:1046D00000870123F522EC213C480296FCF750FCB0
:1046E00028709DF8240000F0030040F0200009909D
:1046F000CDE900870123F522EC2134480296FCF72E
:104700009DFD28700894CDE9017608A8009001234A
:10471000F522EC212D48FCF733FC28700794069411
:104720000DF11808CDE900870123F422EC21274878
:104730000296FCF725FC28709DF8180040F0270031
:104740000690CDE900870123F422EC211F48029650
:10475000FCF774FD2870CDE9017607A800900123CD
:10476000F422EC211948FCF70BFC287005940DF19C
:104770001408CDE900870123F222EC2113480296A8
:10478000FCF7FEFB28709DF8140000F0070040F0D5
:1047900002000590CDE900870123F222EC210B48AD
:1047A0000296FCF74BFD28700494CDE9017604A82D
:1047B00000900123F222EC210448FCF7E1FB287071
:1047C0000AB0BDE8F081000035000020EC010020B7
:1047D000C400002008B5FEF719FB0320FEF77EFC9D
:1047E0000020FEF7FFFA1F20009003234FF4A07271
:1047F00097210020FEF7A2FA08BD000008B5FCF7DB
:10480000F7FDFEF7EDFEFEF7D5FCFEF717FEFEF70F
:1048100057FDFEF77DFDFEF7D3FDFEF7A5FD42F245
:104820001070FCF7E9F9FEF76BF847F23050FCF72F
:10483000E3F93148FDF7A0FBFFF7CCFFFFF7AEFE31
:1048400000F068FB00F0DAFB2C4E306900F04CF908
:1048500040F2B6384046FCF7CFF900F05BFB00F0C1
:10486000CDFBF06800F040F90024D6E90010884242
:10487000F0D101254FF4FA773846FCF7BDF9D6E9B7
:104880000010884204D1641CE4B2092C00D1002439
:10489000092C1CD2DFE804F01B05080B0E111417BD
:1048A0001A0001F07FF812E000F0E8FE0FE000F0DF
:1048B00099FD0CE000F094FC09E000F0D9FB06E063
:1048C00000F0B8FF03E001F00DF900E000253168C9
:1048D000B06888420DD10025002096234FF4AA72BB
:1048E00001460090FEF75AF900F088FB306900F0AD
:1048F000FBF8002DC0D1ADE7F00200207C000020C5
:10490000F0B50B30154D20F007010024144A0FE0DC
:1049100003688B420BD38B4205D95E1A4318476854
:10492000C3E9006700E04368136002C004E0021DB1
:1049300010680028ECD12046002802D1286808B170
:104940000020F0BD064A07481060074A121A22F0FC
:104950000702C0E9002401202860D7E7C00000203A
:10496000BC00002074030020700500202DE9F041F8
:1049700088B0142103A8FBF71DFC42A103A8FFF790
:104980000BF900240325CDE900544FF4FC663346AF
:10499000B7220A2103A8FEF701FACDE900543346F5
:1049A000D5220A2103A8FEF7F9F9CDE900541F2307
:1049B0009A220A213748FEF7F1F9374F37A103A8A9
:1049C0003A88FFF7E9F838884FF47848A0F11201E7
:1049D000072908D8CDE900543346B7220A2103A895
:1049E000FEF7DCF914E0192808D9CDE90054434654
:1049F000B7220A2103A8FEF7D1F909E0122807D24D
:104A0000CDE900541F23B7220A2103A8FEF7C6F9F7
:104A1000244F25A103A83A88FFF7BEF83888A0F1F3
:104A20001E01232908D8CDE900543346D5220A2196
:104A300003A8FEF7B3F914E0412808D9CDE90054E2
:104A40004346D5220A2103A8FEF7A8F909E01E284B
:104A500007D2CDE900541F23D5220A2103A8FEF76F
:104A60009DF9134813A102680A48FFF795F8CDE9AC
:104A700000541F239A220A210648FEF78FF908B036
:104A8000BDE8F08120202020202020202020202090
:104A900020202000C301002074000020543A256427
:104AA0002043000076000020483A25642025250098
:104AB00078000020503A2564206D6D4867000000A2
:104AC0003EB50024029407A102A8FFF765F80A206A
:104AD000CDE900044FF4FC6300228C2102A8FEF70C
:104AE0005DF93EBD3A00000010B504461848006864
:104AF000844214D100F0B6F91648807878B9FFF7EF
:104B0000DFFF00F037F900F0E9F800F087F800F077
:104B100025F800F06FF900F0D3F9FFF727FF0E48F2
:104B20000068844213D1FFF7CBFF00F09BF900F03F
:104B300021F900F0D3F800F071F800F00FF800F060
:104B400059F900F0BDF9BDE81040FFF70FBF10BDE7
:104B500088000020040000208C00002070B586B082
:104B60000024039404940594294E0625B2790A2A58
:104B70000CD228A103A8FFF70FF8CDE900541F239A
:104B80006422142103A8FEF709F90BE021A103A870
:104B9000FFF702F8CDE900541F236422002103A887
:104BA000FEF7FCF81CA103A8FEF7F6FFCDE90054C0
:104BB0001F2364224B2103A8FEF7F0F8B2790A2ADA
:104BC0000CD214A103A8FEF7E7FFCDE900541F2380
:104BD0006422142103A8FEF7E1F80BE00DA103A85D
:104BE000FEF7DAFFCDE900541F236422002103A859
:104BF000FEF7D4F808A103A8FEF7CEFFCDE90054D4
:104C00001F2364224B2103A8FEF7C8F806B070BD2D
:104C100004000020256400002F00000010B586B0BD
:104C200000240394049405941B484079082827D253
:104C3000DFE800F02604090E13181D2217A103A8AF
:104C4000FEF7AAFF1CE017A103A8FEF7A5FF17E0D7
:104C500016A103A8FEF7A0FF12E017A103A8FEF714
:104C60009BFF0DE016A103A8FEF796FF08E016A132
:104C700003A8FEF791FF03E016A103A8FEF78CFF3F
:104C80000320CDE900044FF6E0735022002103A871
:104C9000FEF784F806B010BD040000204D4F4E44CE
:104CA0004159000054554553444159005745444E1D
:104CB000455344415900000054485553444159005C
:104CC00046524944415900005341545552444159B8
:104CD0000000000053554E4441590000F0B585B026
:104CE00000240294039404941E4E0A254FF4FC679A
:104CF000307900281CD01CA102A8FEF74DFFCDE999
:104D0000005400223B46114602A8FEF747F83279CC
:104D1000092A1AD915A102A8FEF73EFFCDE90054D1
:104D20003B4600220A2102A8FEF738F805B0F0BD84
:104D30000FA102A8FEF730FFCDE9005400223B4648
:104D4000114602A8FEF72AF8F0E708A102A8FEF72C
:104D500023FFCDE900543B460022322102A8FEF792
:104D60001DF8E3E704000020202000002564000077
:104D70003030000070B586B000240394049405948C
:104D800018480A254FF4FC66C278002A0FD00A2A78
:104D90001AD215A103A8FEF7FFFECDE90054334651
:104DA0000022BE2103A8FDF7F9FF06B070BD0FA1D8
:104DB00003A8FEF7F1FECDE9005433460022BE21E0
:104DC00003A8FDF7EBFFF0E709A103A8FEF7E4FE57
:104DD000CDE9005433460022BE2103A8FDF7DEFFD3
:104DE000E3E70000040000203025640030300000BC
:104DF0002564000030B585B0002402940394049427
:104E000015480625C2790A2A0CD214A102A8FEF779
:104E1000C3FECDE900541F236422782102A8FDF7C8
:104E2000BDFF0BE00DA102A8FEF7B6FECDE90054D0
:104E300064221F23114602A8FDF7B0FF08A102A8B3
:104E4000FEF7AAFECDE900541F236422AF2102A879
:104E5000FDF7A4FF05B030BD04000020256400006C
:104E60002F000000F0B585B0002402940394049450
:104E7000104E03254FF4FC67B07800280BD10EA12B
:104E800002A8FEF789FECDE900543B465022E621F8
:104E900002A8FDF783FFB27808A102A8FEF77CFE06
:104EA000CDE900543B465022E62102A8FDF776FFEB
:104EB00005B0F0BD040000202020000025640000A3
:104EC00030B585B000240294039404940F4806255D
:104ED000027A0A2A0DD20EA102A8FEF75DFECDE9E4
:104EE00000541F236422DC2102A8FDF757FF05B000
:104EF00030BD07A102A8FEF74FFECDE900541F23E5
:104F00006422C82102A8FDF749FFF0E70400002051
:104F1000256400003EB5FF212F48FBF74BF9FF2128
:104F20002D4DCDE900514FF47A70029001230022FB
:104F3000EC212A48FCF724F8294C207015F8F70FCB
:104F40006978000440EA0120A97808430009A063B9
:104F5000E8782979000440EA0120697908430009CA
:104F60006063E979AA7941EA0221E163FBF7DAFD9E
:104F70006062A06BFBF7E2FCA062E06BFFF78EFAC9
:104F80000546E062606AFBF728FA1649FBF775F9F7
:104F90004FF08041FBF76BF9FBF735FA12490880B7
:104FA000A06A42F2107190FBF1F0104CFBF71EFA70
:104FB0000F4A104BFBF79FF9FBF752FA2060284687
:104FC000FBF70BFA6FF00901FBF789F9FBF734FAED
:104FD000094908803EBD0000C4000020EC0100200B
:104FE000340000200AD7233C740000207800002001
:104FF0009911DE1E8400E83F760000203EB51A4D70
:1050000005F12804A98B686ACDE9004102906889FE
:105010004FF6FF7101EA40012B8C6A8B1348FBF7B6
:10502000AFFF687000B1FEE72078FEF75EFAA87067
:105030006078FEF75AFAE870A078FEF756FA287101
:10504000E078FEF752FA68712079FEF74EFAA871FF
:10505000607900F01F00FEF748FAE871A079FEF7CA
:1050600044FA28723EBD000004000020EC0100203C
:105070002DE9FC5FDFF838A10626DFF838919AF8B1
:1050800006204FF000084FF478470A2A18D24AA1A8
:105090004A48FEF781FD1F23642214214748CDE9C9
:1050A0000067FDF77BFED9F80000FBF7A5FDCDE911
:1050B00000681F23642214214048FDF76FFE17E0AB
:1050C0003DA13E48FEF768FD1F23642200213B48B6
:1050D000CDE90067FDF762FED9F80000FBF78CFD13
:1050E000CDE900681F23642200213448FDF756FEF5
:1050F000DFF8CCB03348DBF800100268914255D19C
:1051000001240125DFF8C09030A13148FEF744FDAD
:105110000A2C15D2CDE900681F23642200212C48F7
:10512000FDF73CFE224624A12448FEF735FD1F234F
:10513000642214212148CDE90067FDF72FFE0CE021
:1051400022461DA11D48FEF727FD1F2364220021D2
:105150001A48CDE90067FDF721FE16480068FBF705
:105160004BFD1848DBF800100068814207D1641C31
:10517000E4B2184909788C4201D999F800401649DF
:105180000968814206D1641EE4B299F800108C428D
:1051900000D20C4611490968814205D100252146FB
:1051A000BAF81400FEF7CCFC002DADD1BDE8FC9F91
:1051B00004000020A800002025640000C301002096
:1051C000900000207C000020A00000202020000093
:1051D000D70100209F0000209400002084000020C0
:1051E0002DE9FC5FDFF8849199F80500082827D2A3
:1051F000DFE800F02604090E13181D225CA15E48AA
:10520000FEF7CAFC1CE05DA15B48FEF7C5FC17E099
:105210005CA15948FEF7C0FC12E05DA15648FEF7BC
:10522000BBFC0DE05CA15448FEF7B6FC08E05CA1B5
:105230005148FEF7B1FC03E05CA14F48FEF7ACFC1F
:105240004FF4784A0326CDE9006A4FF6E0773B46F3
:10525000502200214848FDF7A1FDDFF85881D8F819
:105260000000FBF7C9FC4FF0000BCDE9006B3B469B
:10527000502259464048FDF791FD4F494F480A6872
:1052800003689A426FD101240125DFF834818B46EF
:105290008246082C27D2DFE804F02604090E1318F2
:1052A0001D2233A13448FEF777FC1CE033A13248BD
:1052B000FEF772FC17E033A12F48FEF76DFC12E0F9
:1052C00033A12D48FEF768FC0DE033A12A48FEF714
:1052D00063FC08E032A12848FEF75EFC03E033A13E
:1052E0002548FEF759FC37A13A48FEF755FC002047
:1052F000CDE9006001463B4650223648FDF74EFDA1
:105300004FF47840CDE900603B46502200211A4816
:10531000FDF744FD27480068FBF76EFCDBF8001042
:10532000DAF80000814207D1641CE4B22A49097806
:105330008C4201D998F8004028490968814206D179
:10534000641EE4B298F800108C4200D20C46244946
:105350000968814205D100252146B9F81200FEF7FF
:10536000EFFB002D95D1BDE8FC9F0000040000205C
:105370004D4F4E4441590000C30100205455455340
:10538000444159005745444E45534441590000009B
:10539000544855534441590046524944415900002C
:1053A00053415455524441590000000053554E4456
:1053B00041590000A8000020900000207C0000203F
:1053C0009E0000202020202020202020202020209F
:1053D00000000000D70100209D0000209400002064
:1053E000840000202DE9FE4FDFF8509200260A25A8
:1053F00099F80400DFF848B24FF478484FF4FC6A9B
:10540000002828D08FA19048FEF7C6FBCDE90056B2
:105410000022534611468C48FDF7C0FC99F8042041
:10542000092A31D989A18A48FEF7B6FBCDE900588F
:10543000534600220A218648FDF7B0FCDBF8000045
:10544000FBF7DAFBCDE90056534600220A218048DB
:10545000FDF7A4FC3EE07FA17D48FEF79DFBCDE972
:1054600000580022534611467948FDF797FCDBF8B7
:105470000000FBF7C1FBCDE9005600225346114660
:105480007348FDF78BFC25E06EA16F48FEF784FBA7
:10549000CDE900560022534611466B48FDF77EFCCD
:1054A00099F8042069A16A48FEF776FBCDE9005817
:1054B0005346002232216648FDF770FCDBF80000FD
:1054C000FBF79AFBCDE90056534600223221604893
:1054D000FDF764FC604961480A6803689A4272D12A
:1054E00000240127DFF878B1DCB1092C26D955A1B9
:1054F0005548FEF751FBCDE90058002253461146AE
:105500005148FDF74BFC224650A15148FEF744FBA1
:10551000CDE90058534600220A214D48FDF73EFCD4
:105520005EE04CA14A48FEF737FBCDE90058002267
:10553000534611464648FDF731FC51E049A1424827
:10554000FEF72AFBCDE900560022534611463E489D
:10555000FDF724FC029644A102A8FEF71DFBCDE94D
:105560000056534600228C2102A8FDF717FC224664
:1055700036A13748FEF710FBCDE90058534600220C
:1055800032213348FDF70AFC99F8032072B10A2A48
:105590001AD236A12E48FEF7FFFACDE9005653463F
:1055A0000022BE212A48FDF7F9FB19E029A128486D
:1055B000FEF7F2FACDE9005653460022BE212448F8
:1055C000FDF7ECFB0CE036E020A12148FEF7E4FA01
:1055D000CDE9005653460022BE211D48FDF7DEFBF3
:1055E00017480068FBF708FB1B4801681B48006868
:1055F000814207D1641CE4B29BF800108C4201D9AF
:105600001B490C781B490968814207D1641EE4B22A
:105610009BF800108C4201D915490C78164909688D
:10562000814205D100272146B9F81000FEF788FA1B
:10563000002F7FF459AFBDE8FE8F0000040000206A
:10564000A800002020200000D701002025640000D1
:10565000C301002030300000900000207C000020BA
:105660009B000020202020003A000000302564002C
:105670009C00002094000020840000202DE9FC5FA5
:10568000DFF880A100240A269AF80320DFF8789139
:105690004FF478474FF4FC68002A1AD00A2A31D216
:1056A0005AA15B48FEF778FA43460022BE215848CB
:1056B000CDE90067FDF772FBD9F80000FBF79CFA13
:1056C000CDE9006443460022BE215148FDF766FB48
:1056D00030E050A14E48FEF75FFA43460022BE215B
:1056E0004B48CDE90067FDF759FBD9F80000FBF7FF
:1056F00083FACDE9006443460022BE214448FDF709
:105700004DFB17E044A14248FEF746FA434600220B
:10571000BE213F48CDE90067FDF740FBD9F8000006
:10572000FBF76AFACDE9006443460022BE213848FF
:10573000FDF734FBDFF8E4B03948DBF8001002680D
:1057400091425DD100240125DFF8D880DFF8D890A0
:1057500084B10A2C1CD222462CA12D48FEF71CFA3B
:105760004FF4FC630022BE212948CDE90067FDF714
:1057700015FB1BE027A12648FEF70EFA4FF4FC6349
:105780000022BE212248CDE90067FDF707FB0DE0AE
:10579000224621A11E48FEF7FFF94FF4FC630022C8
:1057A000BE211B48CDE90067FDF7F8FA16480068EE
:1057B000FBF722FA1A48DBF800100068814207D193
:1057C000641CE4B298F800108C4201D999F80040AA
:1057D00016490968814207D1641EE4B298F80010A6
:1057E0008C4201D999F8004011490968814205D1DC
:1057F00000252146BAF80E00FEF7A2F9002DA7D128
:10580000BDE8FC9F04000020A800002030256400B3
:10581000C30100203030000025640000900000200B
:105820007C000020990000209A00002094000020B5
:10583000840000202DE9FC5FDFF838A10626DFF8A0
:1058400038919AF807204FF000084FF478470A2A59
:1058500018D24AA14A48FEF79FF91F2364227821F3
:105860004748CDE90067FDF799FAD9F80000FBF742
:10587000C3F9CDE900681F23642278214048FDF771
:105880008DFA17E03DA13E48FEF786F964221F23FA
:1058900011463B48CDE90067FDF780FAD9F80000D2
:1058A000FBF7AAF9CDE9006864221F2311463448AA
:1058B000FDF774FADFF8CCB03348DBF8001002686B
:1058C000914255D101240125DFF8C0900A2C19D24C
:1058D00022462AA12A48FEF75FF92DA12D48FEF79E
:1058E0005BF9CDE9006864221F2311462948FDF7C2
:1058F00055FA1F23642278212148CDE90067FDF77E
:105900004DFA0CE022461DA11D48FEF745F9642220
:105910001F2311461A48CDE90067FDF73FFA1648E4
:105920000068FBF769F91848DBF80010006881424D
:1059300007D1641CE4B2184909788C4201D999F85E
:10594000004016490968814206D1641EE4B299F804
:1059500000108C4200D20C4611490968814205D1E1
:1059600000252146BAF81600FEF7EAF8002DADD161
:10597000BDE8FC9F04000020A80000202564000072
:10598000C3010020900000207C000020A200002025
:1059900020200000D7010020A1000020940000205A
:1059A000840000202DE9FC5FDFF8088142A1434814
:1059B00098F80220FEF7F0F84FF478490325CDE976
:1059C00000594FF4FC673B465022E6213B48FDF767
:1059D000E5F9DFF8ECA0DAF80000FBF70DF9002696
:1059E000CDE900563B465022E6213448FDF7D6F972
:1059F000344935480A6803689A4258D10024012284
:105A000088F80120DFF8C4A0DFF8C4B022462AA13C
:105A10002A48FEF7C1F80A2C14D22EA12E48FEF710
:105A2000BBF8CDE900563B465022E6212A48FDF757
:105A3000B5F9CDE900593B465022E6211F48FDF754
:105A4000ADF907E0CDE900593B465022E6211B485D
:105A5000FDF7A4F91A480068FBF7CEF81948016869
:105A600019480068814207D1641CE4B29AF800101A
:105A70008C4201D99BF8004018490968814207D13E
:105A8000641EE4B29AF800108C4201D99BF80040E1
:105A900013490968814206D188F801602146B8F8A7
:105AA0000C00FEF74DF898F801000028AED1BDE8D3
:105AB000FC9F00000400002025640000C3010020BA
:105AC000A8000020900000207C000020980000200A
:105AD0009A00002020200000D70100209400002020
